{
  "fileName": "Bull.sol",
  "contractName": "Bull",
  "source": "// COPIED FROM https://github.com/compound-finance/compound-protocol/blob/master/contracts/Governance/Comp.sol\n/*\nCopyright 2020 Compound Labs, Inc.\n\nRedistribution and use in source and binary forms, with or without modification, are permitted provided that the following conditions are met:\n\n1. Redistributions of source code must retain the above copyright notice, this list of conditions and the following disclaimer.\n\n2. Redistributions in binary form must reproduce the above copyright notice, this list of conditions and the following disclaimer in the documentation and/or other materials provided with the distribution.\n\n3. Neither the name of the copyright holder nor the names of its contributors may be used to endorse or promote products derived from this software without specific prior written permission.\n\nTHIS SOFTWARE IS PROVIDED BY THE COPYRIGHT HOLDERS AND CONTRIBUTORS \"AS IS\" AND ANY EXPRESS OR IMPLIED WARRANTIES, INCLUDING, BUT NOT LIMITED TO, THE IMPLIED WARRANTIES OF MERCHANTABILITY AND FITNESS FOR A PARTICULAR PURPOSE ARE DISCLAIMED. IN NO EVENT SHALL THE COPYRIGHT HOLDER OR CONTRIBUTORS BE LIABLE FOR ANY DIRECT, INDIRECT, INCIDENTAL, SPECIAL, EXEMPLARY, OR CONSEQUENTIAL DAMAGES (INCLUDING, BUT NOT LIMITED TO, PROCUREMENT OF SUBSTITUTE GOODS OR SERVICES; LOSS OF USE, DATA, OR PROFITS; OR BUSINESS INTERRUPTION) HOWEVER CAUSED AND ON ANY THEORY OF LIABILITY, WHETHER IN CONTRACT, STRICT LIABILITY, OR TORT (INCLUDING NEGLIGENCE OR OTHERWISE) ARISING IN ANY WAY OUT OF THE USE OF THIS SOFTWARE, EVEN IF ADVISED OF THE POSSIBILITY OF SUCH DAMAGE.\n*/\npragma solidity ^0.5.16;\npragma experimental ABIEncoderV2;\n\nimport \"@openzeppelin/contracts/math/SafeMath.sol\";\n\ncontract Bull {\n    /// @notice EIP-20 token name for this token\n    string public constant name = \"Bull\";\n\n    /// @notice EIP-20 token symbol for this token\n    string public constant symbol = \"BULL\";\n\n    /// @notice EIP-20 token decimals for this token\n    uint8 public constant decimals = 18;\n\n    /// @notice Total number of tokens in circulation\n    uint256 public totalSupply = 20_000e18;\n\n    /// @notice Maxium mintable number of tokens\n    uint256 public cap = 1_000_000e18;\n\n    /// @notice Address which may mint new tokens\n    address public minter;\n\n    /// @notice Allowance amounts on behalf of others\n    mapping (address => mapping (address => uint96)) internal allowances;\n\n    /// @notice Official record of token balances for each account\n    mapping (address => uint96) internal balances;\n\n    /// @notice A record of each accounts delegate\n    mapping (address => address) public delegates;\n\n    /// @notice A checkpoint for marking number of votes from a given block\n    struct Checkpoint {\n        uint32 fromBlock;\n        uint96 votes;\n    }\n\n    /// @notice A record of votes checkpoints for each account, by index\n    mapping (address => mapping (uint32 => Checkpoint)) public checkpoints;\n\n    /// @notice The number of checkpoints for each account\n    mapping (address => uint32) public numCheckpoints;\n\n    /// @notice The EIP-712 typehash for the contract's domain\n    bytes32 public constant DOMAIN_TYPEHASH = keccak256(\"EIP712Domain(string name,uint256 chainId,address verifyingContract)\");\n\n    /// @notice The EIP-712 typehash for the delegation struct used by the contract\n    bytes32 public constant DELEGATION_TYPEHASH = keccak256(\"Delegation(address delegatee,uint256 nonce,uint256 expiry)\");\n\n    /// @notice A record of states for signing / validating signatures\n    mapping (address => uint) public nonces;\n\n    /// @notice An event thats emitted when the minter address is changed\n    event MinterChanged(address minter, address newMinter);\n\n    /// @notice An event thats emitted when an account changes its delegate\n    event DelegateChanged(address indexed delegator, address indexed fromDelegate, address indexed toDelegate);\n\n    /// @notice An event thats emitted when a delegate account's vote balance changes\n    event DelegateVotesChanged(address indexed delegate, uint previousBalance, uint newBalance);\n\n    /// @notice The standard EIP-20 transfer event\n    event Transfer(address indexed from, address indexed to, uint256 amount);\n\n    /// @notice The standard EIP-20 approval event\n    event Approval(address indexed owner, address indexed spender, uint256 amount);\n\n    /**\n     * @notice Construct a new Bull token\n     * @param account The initial account to grant all the tokens\n     * @param _minter The account with minting ability\n     */\n    constructor(address account, address _minter) public {\n        balances[account] = uint96(totalSupply);\n        emit Transfer(address(0), account, totalSupply);\n        minter = _minter;\n        emit MinterChanged(address(0), _minter);\n    }\n\n    /**\n     * @notice Change the minter address\n     * @param _minter The address of the new minter\n     */\n    function setMinter(address _minter) external {\n        require(msg.sender == minter, \"Bull::setMinter: only the minter can change the minter address\");\n        emit MinterChanged(minter, _minter);\n        minter = _minter;\n    }\n\n    /**\n     * @notice Mint new tokens\n     * @param dst The address of the destination account\n     * @param rawAmount The number of tokens to be minted\n     */\n    function mint(address dst, uint rawAmount) external {\n        require(msg.sender == minter, \"Bull::mint: only the minter can mint\");\n        require(dst != address(0), \"Bull::mint: cannot transfer to the zero address\");\n\n        // mint the amount\n        uint96 amount = safe96(rawAmount, \"Bull::mint: amount exceeds 96 bits\");\n        \n        require(SafeMath.add(totalSupply, amount) <= cap, \"Bull: cap exceeded\");\n\n        totalSupply = safe96(SafeMath.add(totalSupply, amount), \"Bull::mint: totalSupply exceeds 96 bits\");\n\n        // transfer the amount to the recipient\n        balances[dst] = add96(balances[dst], amount, \"Bull::mint: transfer amount overflows\");\n        emit Transfer(address(0), dst, amount);\n\n        // move delegates\n        _moveDelegates(address(0), delegates[dst], amount);\n    }\n\n    /**\n     * @notice Get the number of tokens `spender` is approved to spend on behalf of `account`\n     * @param account The address of the account holding the funds\n     * @param spender The address of the account spending the funds\n     * @return The number of tokens approved\n     */\n    function allowance(address account, address spender) external view returns (uint) {\n        return allowances[account][spender];\n    }\n\n    /**\n     * @notice Approve `spender` to transfer up to `amount` from `src`\n     * @dev This will overwrite the approval amount for `spender`\n     *  and is subject to issues noted [here](https://eips.ethereum.org/EIPS/eip-20#approve)\n     * @param spender The address of the account which may transfer tokens\n     * @param rawAmount The number of tokens that are approved (2^256-1 means infinite)\n     * @return Whether or not the approval succeeded\n     */\n    function approve(address spender, uint rawAmount) external returns (bool) {\n        uint96 amount;\n        if (rawAmount == uint(-1)) {\n            amount = uint96(-1);\n        } else {\n            amount = safe96(rawAmount, \"Bull::approve: amount exceeds 96 bits\");\n        }\n\n        allowances[msg.sender][spender] = amount;\n\n        emit Approval(msg.sender, spender, amount);\n        return true;\n    }\n\n    /**\n     * @notice Get the number of tokens held by the `account`\n     * @param account The address of the account to get the balance of\n     * @return The number of tokens held\n     */\n    function balanceOf(address account) external view returns (uint) {\n        return balances[account];\n    }\n\n    /**\n     * @notice Transfer `amount` tokens from `msg.sender` to `dst`\n     * @param dst The address of the destination account\n     * @param rawAmount The number of tokens to transfer\n     * @return Whether or not the transfer succeeded\n     */\n    function transfer(address dst, uint rawAmount) external returns (bool) {\n        uint96 amount = safe96(rawAmount, \"Bull::transfer: amount exceeds 96 bits\");\n        _transferTokens(msg.sender, dst, amount);\n        return true;\n    }\n\n    /**\n     * @notice Transfer `amount` tokens from `src` to `dst`\n     * @param src The address of the source account\n     * @param dst The address of the destination account\n     * @param rawAmount The number of tokens to transfer\n     * @return Whether or not the transfer succeeded\n     */\n    function transferFrom(address src, address dst, uint rawAmount) external returns (bool) {\n        address spender = msg.sender;\n        uint96 spenderAllowance = allowances[src][spender];\n        uint96 amount = safe96(rawAmount, \"Bull::approve: amount exceeds 96 bits\");\n\n        if (spender != src && spenderAllowance != uint96(-1)) {\n            uint96 newAllowance = sub96(spenderAllowance, amount, \"Bull::transferFrom: transfer amount exceeds spender allowance\");\n            allowances[src][spender] = newAllowance;\n\n            emit Approval(src, spender, newAllowance);\n        }\n\n        _transferTokens(src, dst, amount);\n        return true;\n    }\n\n    /**\n     * @notice Delegate votes from `msg.sender` to `delegatee`\n     * @param delegatee The address to delegate votes to\n     */\n    function delegate(address delegatee) public {\n        return _delegate(msg.sender, delegatee);\n    }\n\n    /**\n     * @notice Delegates votes from signatory to `delegatee`\n     * @param delegatee The address to delegate votes to\n     * @param nonce The contract state required to match the signature\n     * @param expiry The time at which to expire the signature\n     * @param v The recovery byte of the signature\n     * @param r Half of the ECDSA signature pair\n     * @param s Half of the ECDSA signature pair\n     */\n    function delegateBySig(address delegatee, uint nonce, uint expiry, uint8 v, bytes32 r, bytes32 s) public {\n        bytes32 domainSeparator = keccak256(abi.encode(DOMAIN_TYPEHASH, keccak256(bytes(name)), getChainId(), address(this)));\n        bytes32 structHash = keccak256(abi.encode(DELEGATION_TYPEHASH, delegatee, nonce, expiry));\n        bytes32 digest = keccak256(abi.encodePacked(\"\\x19\\x01\", domainSeparator, structHash));\n        address signatory = ecrecover(digest, v, r, s);\n        require(signatory != address(0), \"Bull::delegateBySig: invalid signature\");\n        require(nonce == nonces[signatory]++, \"Bull::delegateBySig: invalid nonce\");\n        require(now <= expiry, \"Bull::delegateBySig: signature expired\");\n        return _delegate(signatory, delegatee);\n    }\n\n    /**\n     * @notice Gets the current votes balance for `account`\n     * @param account The address to get votes balance\n     * @return The number of current votes for `account`\n     */\n    function getCurrentVotes(address account) external view returns (uint96) {\n        uint32 nCheckpoints = numCheckpoints[account];\n        return nCheckpoints > 0 ? checkpoints[account][nCheckpoints - 1].votes : 0;\n    }\n\n    /**\n     * @notice Determine the prior number of votes for an account as of a block number\n     * @dev Block number must be a finalized block or else this function will revert to prevent misinformation.\n     * @param account The address of the account to check\n     * @param blockNumber The block number to get the vote balance at\n     * @return The number of votes the account had as of the given block\n     */\n    function getPriorVotes(address account, uint blockNumber) public view returns (uint96) {\n        require(blockNumber < block.number, \"Bull::getPriorVotes: not yet determined\");\n\n        uint32 nCheckpoints = numCheckpoints[account];\n        if (nCheckpoints == 0) {\n            return 0;\n        }\n\n        // First check most recent balance\n        if (checkpoints[account][nCheckpoints - 1].fromBlock <= blockNumber) {\n            return checkpoints[account][nCheckpoints - 1].votes;\n        }\n\n        // Next check implicit zero balance\n        if (checkpoints[account][0].fromBlock > blockNumber) {\n            return 0;\n        }\n\n        uint32 lower = 0;\n        uint32 upper = nCheckpoints - 1;\n        while (upper > lower) {\n            uint32 center = upper - (upper - lower) / 2; // ceil, avoiding overflow\n            Checkpoint memory cp = checkpoints[account][center];\n            if (cp.fromBlock == blockNumber) {\n                return cp.votes;\n            } else if (cp.fromBlock < blockNumber) {\n                lower = center;\n            } else {\n                upper = center - 1;\n            }\n        }\n        return checkpoints[account][lower].votes;\n    }\n\n    function _delegate(address delegator, address delegatee) internal {\n        address currentDelegate = delegates[delegator];\n        uint96 delegatorBalance = balances[delegator];\n        delegates[delegator] = delegatee;\n\n        emit DelegateChanged(delegator, currentDelegate, delegatee);\n\n        _moveDelegates(currentDelegate, delegatee, delegatorBalance);\n    }\n\n    function _transferTokens(address src, address dst, uint96 amount) internal {\n        require(src != address(0), \"Bull::_transferTokens: cannot transfer from the zero address\");\n        require(dst != address(0), \"Bull::_transferTokens: cannot transfer to the zero address\");\n\n        balances[src] = sub96(balances[src], amount, \"Bull::_transferTokens: transfer amount exceeds balance\");\n        balances[dst] = add96(balances[dst], amount, \"Bull::_transferTokens: transfer amount overflows\");\n        emit Transfer(src, dst, amount);\n\n        _moveDelegates(delegates[src], delegates[dst], amount);\n    }\n\n    function _moveDelegates(address srcRep, address dstRep, uint96 amount) internal {\n        if (srcRep != dstRep && amount > 0) {\n            if (srcRep != address(0)) {\n                uint32 srcRepNum = numCheckpoints[srcRep];\n                uint96 srcRepOld = srcRepNum > 0 ? checkpoints[srcRep][srcRepNum - 1].votes : 0;\n                uint96 srcRepNew = sub96(srcRepOld, amount, \"Bull::_moveVotes: vote amount underflows\");\n                _writeCheckpoint(srcRep, srcRepNum, srcRepOld, srcRepNew);\n            }\n\n            if (dstRep != address(0)) {\n                uint32 dstRepNum = numCheckpoints[dstRep];\n                uint96 dstRepOld = dstRepNum > 0 ? checkpoints[dstRep][dstRepNum - 1].votes : 0;\n                uint96 dstRepNew = add96(dstRepOld, amount, \"Bull::_moveVotes: vote amount overflows\");\n                _writeCheckpoint(dstRep, dstRepNum, dstRepOld, dstRepNew);\n            }\n        }\n    }\n\n    function _writeCheckpoint(address delegatee, uint32 nCheckpoints, uint96 oldVotes, uint96 newVotes) internal {\n      uint32 blockNumber = safe32(block.number, \"Bull::_writeCheckpoint: block number exceeds 32 bits\");\n\n      if (nCheckpoints > 0 && checkpoints[delegatee][nCheckpoints - 1].fromBlock == blockNumber) {\n          checkpoints[delegatee][nCheckpoints - 1].votes = newVotes;\n      } else {\n          checkpoints[delegatee][nCheckpoints] = Checkpoint(blockNumber, newVotes);\n          numCheckpoints[delegatee] = nCheckpoints + 1;\n      }\n\n      emit DelegateVotesChanged(delegatee, oldVotes, newVotes);\n    }\n\n    function safe32(uint n, string memory errorMessage) internal pure returns (uint32) {\n        require(n < 2**32, errorMessage);\n        return uint32(n);\n    }\n\n    function safe96(uint n, string memory errorMessage) internal pure returns (uint96) {\n        require(n < 2**96, errorMessage);\n        return uint96(n);\n    }\n\n    function add96(uint96 a, uint96 b, string memory errorMessage) internal pure returns (uint96) {\n        uint96 c = a + b;\n        require(c >= a, errorMessage);\n        return c;\n    }\n\n    function sub96(uint96 a, uint96 b, string memory errorMessage) internal pure returns (uint96) {\n        require(b <= a, errorMessage);\n        return a - b;\n    }\n\n    function getChainId() internal pure returns (uint) {\n        uint256 chainId;\n        assembly { chainId := chainid() }\n        return chainId;\n    }\n}",
  "sourcePath": "contracts/governance/Bull.sol",
  "abi": [
    {
      "inputs": [
        {
          "internalType": "address",
          "name": "account",
          "type": "address"
        },
        {
          "internalType": "address",
          "name": "_minter",
          "type": "address"
        }
      ],
      "payable": false,
      "stateMutability": "nonpayable",
      "type": "constructor"
    },
    {
      "anonymous": false,
      "inputs": [
        {
          "indexed": true,
          "internalType": "address",
          "name": "owner",
          "type": "address"
        },
        {
          "indexed": true,
          "internalType": "address",
          "name": "spender",
          "type": "address"
        },
        {
          "indexed": false,
          "internalType": "uint256",
          "name": "amount",
          "type": "uint256"
        }
      ],
      "name": "Approval",
      "type": "event"
    },
    {
      "anonymous": false,
      "inputs": [
        {
          "indexed": true,
          "internalType": "address",
          "name": "delegator",
          "type": "address"
        },
        {
          "indexed": true,
          "internalType": "address",
          "name": "fromDelegate",
          "type": "address"
        },
        {
          "indexed": true,
          "internalType": "address",
          "name": "toDelegate",
          "type": "address"
        }
      ],
      "name": "DelegateChanged",
      "type": "event"
    },
    {
      "anonymous": false,
      "inputs": [
        {
          "indexed": true,
          "internalType": "address",
          "name": "delegate",
          "type": "address"
        },
        {
          "indexed": false,
          "internalType": "uint256",
          "name": "previousBalance",
          "type": "uint256"
        },
        {
          "indexed": false,
          "internalType": "uint256",
          "name": "newBalance",
          "type": "uint256"
        }
      ],
      "name": "DelegateVotesChanged",
      "type": "event"
    },
    {
      "anonymous": false,
      "inputs": [
        {
          "indexed": false,
          "internalType": "address",
          "name": "minter",
          "type": "address"
        },
        {
          "indexed": false,
          "internalType": "address",
          "name": "newMinter",
          "type": "address"
        }
      ],
      "name": "MinterChanged",
      "type": "event"
    },
    {
      "anonymous": false,
      "inputs": [
        {
          "indexed": true,
          "internalType": "address",
          "name": "from",
          "type": "address"
        },
        {
          "indexed": true,
          "internalType": "address",
          "name": "to",
          "type": "address"
        },
        {
          "indexed": false,
          "internalType": "uint256",
          "name": "amount",
          "type": "uint256"
        }
      ],
      "name": "Transfer",
      "type": "event"
    },
    {
      "constant": true,
      "inputs": [],
      "name": "DELEGATION_TYPEHASH",
      "outputs": [
        {
          "internalType": "bytes32",
          "name": "",
          "type": "bytes32"
        }
      ],
      "payable": false,
      "stateMutability": "view",
      "type": "function"
    },
    {
      "constant": true,
      "inputs": [],
      "name": "DOMAIN_TYPEHASH",
      "outputs": [
        {
          "internalType": "bytes32",
          "name": "",
          "type": "bytes32"
        }
      ],
      "payable": false,
      "stateMutability": "view",
      "type": "function"
    },
    {
      "constant": true,
      "inputs": [
        {
          "internalType": "address",
          "name": "account",
          "type": "address"
        },
        {
          "internalType": "address",
          "name": "spender",
          "type": "address"
        }
      ],
      "name": "allowance",
      "outputs": [
        {
          "internalType": "uint256",
          "name": "",
          "type": "uint256"
        }
      ],
      "payable": false,
      "stateMutability": "view",
      "type": "function"
    },
    {
      "constant": false,
      "inputs": [
        {
          "internalType": "address",
          "name": "spender",
          "type": "address"
        },
        {
          "internalType": "uint256",
          "name": "rawAmount",
          "type": "uint256"
        }
      ],
      "name": "approve",
      "outputs": [
        {
          "internalType": "bool",
          "name": "",
          "type": "bool"
        }
      ],
      "payable": false,
      "stateMutability": "nonpayable",
      "type": "function"
    },
    {
      "constant": true,
      "inputs": [
        {
          "internalType": "address",
          "name": "account",
          "type": "address"
        }
      ],
      "name": "balanceOf",
      "outputs": [
        {
          "internalType": "uint256",
          "name": "",
          "type": "uint256"
        }
      ],
      "payable": false,
      "stateMutability": "view",
      "type": "function"
    },
    {
      "constant": true,
      "inputs": [],
      "name": "cap",
      "outputs": [
        {
          "internalType": "uint256",
          "name": "",
          "type": "uint256"
        }
      ],
      "payable": false,
      "stateMutability": "view",
      "type": "function"
    },
    {
      "constant": true,
      "inputs": [
        {
          "internalType": "address",
          "name": "",
          "type": "address"
        },
        {
          "internalType": "uint32",
          "name": "",
          "type": "uint32"
        }
      ],
      "name": "checkpoints",
      "outputs": [
        {
          "internalType": "uint32",
          "name": "fromBlock",
          "type": "uint32"
        },
        {
          "internalType": "uint96",
          "name": "votes",
          "type": "uint96"
        }
      ],
      "payable": false,
      "stateMutability": "view",
      "type": "function"
    },
    {
      "constant": true,
      "inputs": [],
      "name": "decimals",
      "outputs": [
        {
          "internalType": "uint8",
          "name": "",
          "type": "uint8"
        }
      ],
      "payable": false,
      "stateMutability": "view",
      "type": "function"
    },
    {
      "constant": false,
      "inputs": [
        {
          "internalType": "address",
          "name": "delegatee",
          "type": "address"
        }
      ],
      "name": "delegate",
      "outputs": [],
      "payable": false,
      "stateMutability": "nonpayable",
      "type": "function"
    },
    {
      "constant": false,
      "inputs": [
        {
          "internalType": "address",
          "name": "delegatee",
          "type": "address"
        },
        {
          "internalType": "uint256",
          "name": "nonce",
          "type": "uint256"
        },
        {
          "internalType": "uint256",
          "name": "expiry",
          "type": "uint256"
        },
        {
          "internalType": "uint8",
          "name": "v",
          "type": "uint8"
        },
        {
          "internalType": "bytes32",
          "name": "r",
          "type": "bytes32"
        },
        {
          "internalType": "bytes32",
          "name": "s",
          "type": "bytes32"
        }
      ],
      "name": "delegateBySig",
      "outputs": [],
      "payable": false,
      "stateMutability": "nonpayable",
      "type": "function"
    },
    {
      "constant": true,
      "inputs": [
        {
          "internalType": "address",
          "name": "",
          "type": "address"
        }
      ],
      "name": "delegates",
      "outputs": [
        {
          "internalType": "address",
          "name": "",
          "type": "address"
        }
      ],
      "payable": false,
      "stateMutability": "view",
      "type": "function"
    },
    {
      "constant": true,
      "inputs": [
        {
          "internalType": "address",
          "name": "account",
          "type": "address"
        }
      ],
      "name": "getCurrentVotes",
      "outputs": [
        {
          "internalType": "uint96",
          "name": "",
          "type": "uint96"
        }
      ],
      "payable": false,
      "stateMutability": "view",
      "type": "function"
    },
    {
      "constant": true,
      "inputs": [
        {
          "internalType": "address",
          "name": "account",
          "type": "address"
        },
        {
          "internalType": "uint256",
          "name": "blockNumber",
          "type": "uint256"
        }
      ],
      "name": "getPriorVotes",
      "outputs": [
        {
          "internalType": "uint96",
          "name": "",
          "type": "uint96"
        }
      ],
      "payable": false,
      "stateMutability": "view",
      "type": "function"
    },
    {
      "constant": false,
      "inputs": [
        {
          "internalType": "address",
          "name": "dst",
          "type": "address"
        },
        {
          "internalType": "uint256",
          "name": "rawAmount",
          "type": "uint256"
        }
      ],
      "name": "mint",
      "outputs": [],
      "payable": false,
      "stateMutability": "nonpayable",
      "type": "function"
    },
    {
      "constant": true,
      "inputs": [],
      "name": "minter",
      "outputs": [
        {
          "internalType": "address",
          "name": "",
          "type": "address"
        }
      ],
      "payable": false,
      "stateMutability": "view",
      "type": "function"
    },
    {
      "constant": true,
      "inputs": [],
      "name": "name",
      "outputs": [
        {
          "internalType": "string",
          "name": "",
          "type": "string"
        }
      ],
      "payable": false,
      "stateMutability": "view",
      "type": "function"
    },
    {
      "constant": true,
      "inputs": [
        {
          "internalType": "address",
          "name": "",
          "type": "address"
        }
      ],
      "name": "nonces",
      "outputs": [
        {
          "internalType": "uint256",
          "name": "",
          "type": "uint256"
        }
      ],
      "payable": false,
      "stateMutability": "view",
      "type": "function"
    },
    {
      "constant": true,
      "inputs": [
        {
          "internalType": "address",
          "name": "",
          "type": "address"
        }
      ],
      "name": "numCheckpoints",
      "outputs": [
        {
          "internalType": "uint32",
          "name": "",
          "type": "uint32"
        }
      ],
      "payable": false,
      "stateMutability": "view",
      "type": "function"
    },
    {
      "constant": false,
      "inputs": [
        {
          "internalType": "address",
          "name": "_minter",
          "type": "address"
        }
      ],
      "name": "setMinter",
      "outputs": [],
      "payable": false,
      "stateMutability": "nonpayable",
      "type": "function"
    },
    {
      "constant": true,
      "inputs": [],
      "name": "symbol",
      "outputs": [
        {
          "internalType": "string",
          "name": "",
          "type": "string"
        }
      ],
      "payable": false,
      "stateMutability": "view",
      "type": "function"
    },
    {
      "constant": true,
      "inputs": [],
      "name": "totalSupply",
      "outputs": [
        {
          "internalType": "uint256",
          "name": "",
          "type": "uint256"
        }
      ],
      "payable": false,
      "stateMutability": "view",
      "type": "function"
    },
    {
      "constant": false,
      "inputs": [
        {
          "internalType": "address",
          "name": "dst",
          "type": "address"
        },
        {
          "internalType": "uint256",
          "name": "rawAmount",
          "type": "uint256"
        }
      ],
      "name": "transfer",
      "outputs": [
        {
          "internalType": "bool",
          "name": "",
          "type": "bool"
        }
      ],
      "payable": false,
      "stateMutability": "nonpayable",
      "type": "function"
    },
    {
      "constant": false,
      "inputs": [
        {
          "internalType": "address",
          "name": "src",
          "type": "address"
        },
        {
          "internalType": "address",
          "name": "dst",
          "type": "address"
        },
        {
          "internalType": "uint256",
          "name": "rawAmount",
          "type": "uint256"
        }
      ],
      "name": "transferFrom",
      "outputs": [
        {
          "internalType": "bool",
          "name": "",
          "type": "bool"
        }
      ],
      "payable": false,
      "stateMutability": "nonpayable",
      "type": "function"
    }
  ],
  "bytecode": "0x608060405269043c33c193756480000060005569d3c21bcecceda10000006001553480156200002d57600080fd5b5060405162003972380380620039728339818101604052620000539190810190620001c9565b600054600460008473ffffffffffffffffffffffffffffffffffffffff1673ffffffffffffffffffffffffffffffffffffffff16815260200190815260200160002060006101000a8154816bffffffffffffffffffffffff02191690836bffffffffffffffffffffffff1602179055508173ffffffffffffffffffffffffffffffffffffffff16600073ffffffffffffffffffffffffffffffffffffffff167fddf252ad1be2c89b69c2b068fc378daa952ba7f163c4a11628f55a4df523b3ef6000546040516200012591906200026a565b60405180910390a380600260006101000a81548173ffffffffffffffffffffffffffffffffffffffff021916908373ffffffffffffffffffffffffffffffffffffffff1602179055507f3b0007eb941cf645526cbb3a4fdaecda9d28ce4843167d9263b536a1f1edc0f6600082604051620001a29291906200023d565b60405180910390a150506200031b565b600081519050620001c38162000301565b92915050565b60008060408385031215620001dd57600080fd5b6000620001ed85828601620001b2565b92505060206200020085828601620001b2565b9150509250929050565b6200021581620002c5565b82525050565b620002268162000287565b82525050565b6200023781620002bb565b82525050565b60006040820190506200025460008301856200020a565b6200026360208301846200021b565b9392505050565b60006020820190506200028160008301846200022c565b92915050565b600062000294826200029b565b9050919050565b600073ffffffffffffffffffffffffffffffffffffffff82169050919050565b6000819050919050565b6000620002d282620002d9565b9050919050565b6000620002e682620002ed565b9050919050565b6000620002fa826200029b565b9050919050565b6200030c8162000287565b81146200031857600080fd5b50565b613647806200032b6000396000f3fe608060405234801561001057600080fd5b506004361061014d5760003560e01c80636fcfff45116100c3578063b4b5ea571161007c578063b4b5ea57146103dc578063c3cda5201461040c578063dd62ed3e14610428578063e7a324dc14610458578063f1127ed814610476578063fca3b5aa146104a75761014d565b80636fcfff45146102ce57806370a08231146102fe578063782d6fe11461032e5780637ecebe001461035e57806395d89b411461038e578063a9059cbb146103ac5761014d565b806323b872dd1161011557806323b872dd146101fa578063313ce5671461022a578063355274ea1461024857806340c10f1914610266578063587cde1e146102825780635c19a95c146102b25761014d565b806306fdde03146101525780630754617214610170578063095ea7b31461018e57806318160ddd146101be57806320606b70146101dc575b600080fd5b61015a6104c3565b604051610167919061301c565b60405180910390f35b6101786104fc565b6040516101859190612ed3565b60405180910390f35b6101a860048036036101a39190810190612728565b610522565b6040516101b59190612f17565b60405180910390f35b6101c66106b5565b6040516101d391906131c0565b60405180910390f35b6101e46106bb565b6040516101f19190612f32565b60405180910390f35b610214600480360361020f91908101906126d9565b6106d2565b6040516102219190612f17565b60405180910390f35b610232610966565b60405161023f919061321f565b60405180910390f35b61025061096b565b60405161025d91906131c0565b60405180910390f35b610280600480360361027b9190810190612728565b610971565b005b61029c60048036036102979190810190612674565b610d01565b6040516102a99190612ed3565b60405180910390f35b6102cc60048036036102c79190810190612674565b610d34565b005b6102e860048036036102e39190810190612674565b610d41565b6040516102f591906131db565b60405180910390f35b61031860048036036103139190810190612674565b610d64565b60405161032591906131c0565b60405180910390f35b61034860048036036103439190810190612728565b610dd3565b6040516103559190613255565b60405180910390f35b61037860048036036103739190810190612674565b6111e6565b60405161038591906131c0565b60405180910390f35b6103966111fe565b6040516103a3919061301c565b60405180910390f35b6103c660048036036103c19190810190612728565b611237565b6040516103d39190612f17565b60405180910390f35b6103f660048036036103f19190810190612674565b611274565b6040516104039190613255565b60405180910390f35b61042660048036036104219190810190612764565b611362565b005b610442600480360361043d919081019061269d565b611605565b60405161044f91906131c0565b60405180910390f35b6104606116b2565b60405161046d9190612f32565b60405180910390f35b610490600480360361048b91908101906127ed565b6116c9565b60405161049e9291906131f6565b60405180910390f35b6104c160048036036104bc9190810190612674565b611722565b005b6040518060400160405280600481526020017f42756c6c0000000000000000000000000000000000000000000000000000000081525081565b600260009054906101000a900473ffffffffffffffffffffffffffffffffffffffff1681565b6000807fffffffffffffffffffffffffffffffffffffffffffffffffffffffffffffffff831415610575577fffffffffffffffffffffffffffffffffffffffffffffffffffffffffffffffff905061059a565b6105978360405180606001604052806025815260200161342660259139611851565b90505b80600360003373ffffffffffffffffffffffffffffffffffffffff1673ffffffffffffffffffffffffffffffffffffffff16815260200190815260200160002060008673ffffffffffffffffffffffffffffffffffffffff1673ffffffffffffffffffffffffffffffffffffffff16815260200190815260200160002060006101000a8154816bffffffffffffffffffffffff02191690836bffffffffffffffffffffffff1602179055508373ffffffffffffffffffffffffffffffffffffffff163373ffffffffffffffffffffffffffffffffffffffff167f8c5be1e5ebec7d5bd14f71427d1e84f3dd0314c0f7b2291e5b200ac8c7c3b925836040516106a2919061323a565b60405180910390a3600191505092915050565b60005481565b6040516106c790612ea9565b604051809103902081565b6000803390506000600360008773ffffffffffffffffffffffffffffffffffffffff1673ffffffffffffffffffffffffffffffffffffffff16815260200190815260200160002060008373ffffffffffffffffffffffffffffffffffffffff1673ffffffffffffffffffffffffffffffffffffffff16815260200190815260200160002060009054906101000a90046bffffffffffffffffffffffff16905060006107958560405180606001604052806025815260200161342660259139611851565b90508673ffffffffffffffffffffffffffffffffffffffff168373ffffffffffffffffffffffffffffffffffffffff161415801561080f57507fffffffffffffffffffffffffffffffffffffffffffffffffffffffffffffffff6bffffffffffffffffffffffff16826bffffffffffffffffffffffff1614155b1561094d57600061083983836040518060600160405280603d81526020016134a1603d91396118af565b905080600360008a73ffffffffffffffffffffffffffffffffffffffff1673ffffffffffffffffffffffffffffffffffffffff16815260200190815260200160002060008673ffffffffffffffffffffffffffffffffffffffff1673ffffffffffffffffffffffffffffffffffffffff16815260200190815260200160002060006101000a8154816bffffffffffffffffffffffff02191690836bffffffffffffffffffffffff1602179055508373ffffffffffffffffffffffffffffffffffffffff168873ffffffffffffffffffffffffffffffffffffffff167f8c5be1e5ebec7d5bd14f71427d1e84f3dd0314c0f7b2291e5b200ac8c7c3b92583604051610943919061323a565b60405180910390a3505b610958878783611920565b600193505050509392505050565b601281565b60015481565b600260009054906101000a900473ffffffffffffffffffffffffffffffffffffffff1673ffffffffffffffffffffffffffffffffffffffff163373ffffffffffffffffffffffffffffffffffffffff1614610a01576040517f08c379a00000000000000000000000000000000000000000000000000000000081526004016109f890613120565b60405180910390fd5b600073ffffffffffffffffffffffffffffffffffffffff168273ffffffffffffffffffffffffffffffffffffffff161415610a71576040517f08c379a0000000000000000000000000000000000000000000000000000000008152600401610a6890613100565b60405180910390fd5b6000610a958260405180606001604052806022815260200161358760229139611851565b9050600154610ab4600054836bffffffffffffffffffffffff16611d01565b1115610af5576040517f08c379a0000000000000000000000000000000000000000000000000000000008152600401610aec90613080565b60405180910390fd5b610b30610b12600054836bffffffffffffffffffffffff16611d01565b60405180606001604052806027815260200161350360279139611851565b6bffffffffffffffffffffffff16600081905550610bbe600460008573ffffffffffffffffffffffffffffffffffffffff1673ffffffffffffffffffffffffffffffffffffffff16815260200190815260200160002060009054906101000a90046bffffffffffffffffffffffff16826040518060600160405280602581526020016134de60259139611d56565b600460008573ffffffffffffffffffffffffffffffffffffffff1673ffffffffffffffffffffffffffffffffffffffff16815260200190815260200160002060006101000a8154816bffffffffffffffffffffffff02191690836bffffffffffffffffffffffff1602179055508273ffffffffffffffffffffffffffffffffffffffff16600073ffffffffffffffffffffffffffffffffffffffff167fddf252ad1be2c89b69c2b068fc378daa952ba7f163c4a11628f55a4df523b3ef83604051610c89919061323a565b60405180910390a3610cfc6000600560008673ffffffffffffffffffffffffffffffffffffffff1673ffffffffffffffffffffffffffffffffffffffff16815260200190815260200160002060009054906101000a900473ffffffffffffffffffffffffffffffffffffffff1683611dcc565b505050565b60056020528060005260406000206000915054906101000a900473ffffffffffffffffffffffffffffffffffffffff1681565b610d3e33826120c7565b50565b60076020528060005260406000206000915054906101000a900463ffffffff1681565b6000600460008373ffffffffffffffffffffffffffffffffffffffff1673ffffffffffffffffffffffffffffffffffffffff16815260200190815260200160002060009054906101000a90046bffffffffffffffffffffffff166bffffffffffffffffffffffff169050919050565b6000438210610e17576040517f08c379a0000000000000000000000000000000000000000000000000000000008152600401610e0e90613160565b60405180910390fd5b6000600760008573ffffffffffffffffffffffffffffffffffffffff1673ffffffffffffffffffffffffffffffffffffffff16815260200190815260200160002060009054906101000a900463ffffffff16905060008163ffffffff161415610e845760009150506111e0565b82600660008673ffffffffffffffffffffffffffffffffffffffff1673ffffffffffffffffffffffffffffffffffffffff16815260200190815260200160002060006001840363ffffffff1663ffffffff16815260200190815260200160002060000160009054906101000a900463ffffffff1663ffffffff1611610f8657600660008573ffffffffffffffffffffffffffffffffffffffff1673ffffffffffffffffffffffffffffffffffffffff16815260200190815260200160002060006001830363ffffffff1663ffffffff16815260200190815260200160002060000160049054906101000a90046bffffffffffffffffffffffff169150506111e0565b82600660008673ffffffffffffffffffffffffffffffffffffffff1673ffffffffffffffffffffffffffffffffffffffff16815260200190815260200160002060008063ffffffff16815260200190815260200160002060000160009054906101000a900463ffffffff1663ffffffff1611156110075760009150506111e0565b600080905060006001830390505b8163ffffffff168163ffffffff161115611162576000600283830363ffffffff168161103d57fe5b048203905061104a6125dd565b600660008973ffffffffffffffffffffffffffffffffffffffff1673ffffffffffffffffffffffffffffffffffffffff16815260200190815260200160002060008363ffffffff1663ffffffff1681526020019081526020016000206040518060400160405290816000820160009054906101000a900463ffffffff1663ffffffff1663ffffffff1681526020016000820160049054906101000a90046bffffffffffffffffffffffff166bffffffffffffffffffffffff166bffffffffffffffffffffffff1681525050905086816000015163ffffffff16141561113a578060200151955050505050506111e0565b86816000015163ffffffff1610156111545781935061115b565b6001820392505b5050611015565b600660008773ffffffffffffffffffffffffffffffffffffffff1673ffffffffffffffffffffffffffffffffffffffff16815260200190815260200160002060008363ffffffff1663ffffffff16815260200190815260200160002060000160049054906101000a90046bffffffffffffffffffffffff1693505050505b92915050565b60086020528060005260406000206000915090505481565b6040518060400160405280600481526020017f42554c4c0000000000000000000000000000000000000000000000000000000081525081565b60008061125c8360405180606001604052806026815260200161344b60269139611851565b9050611269338583611920565b600191505092915050565b600080600760008473ffffffffffffffffffffffffffffffffffffffff1673ffffffffffffffffffffffffffffffffffffffff16815260200190815260200160002060009054906101000a900463ffffffff16905060008163ffffffff16116112de57600061135a565b600660008473ffffffffffffffffffffffffffffffffffffffff1673ffffffffffffffffffffffffffffffffffffffff16815260200190815260200160002060006001830363ffffffff1663ffffffff16815260200190815260200160002060000160049054906101000a90046bffffffffffffffffffffffff165b915050919050565b600060405161137090612ea9565b60405180910390206040518060400160405280600481526020017f42756c6c00000000000000000000000000000000000000000000000000000000815250805190602001206113bd612287565b306040516020016113d19493929190612f92565b60405160208183030381529060405280519060200120905060006040516113f790612ebe565b60405180910390208888886040516020016114159493929190612f4d565b60405160208183030381529060405280519060200120905060008282604051602001611442929190612e72565b60405160208183030381529060405280519060200120905060006001828888886040516000815260200160405260405161147f9493929190612fd7565b6020604051602081039080840390855afa1580156114a1573d6000803e3d6000fd5b505050602060405103519050600073ffffffffffffffffffffffffffffffffffffffff168173ffffffffffffffffffffffffffffffffffffffff16141561151d576040517f08c379a000000000000000000000000000000000000000000000000000000000815260040161151490613140565b60405180910390fd5b600860008273ffffffffffffffffffffffffffffffffffffffff1673ffffffffffffffffffffffffffffffffffffffff16815260200190815260200160002060008154809291906001019190505589146115ac576040517f08c379a00000000000000000000000000000000000000000000000000000000081526004016115a390613180565b60405180910390fd5b874211156115ef576040517f08c379a00000000000000000000000000000000000000000000000000000000081526004016115e6906131a0565b60405180910390fd5b6115f9818b6120c7565b50505050505050505050565b6000600360008473ffffffffffffffffffffffffffffffffffffffff1673ffffffffffffffffffffffffffffffffffffffff16815260200190815260200160002060008373ffffffffffffffffffffffffffffffffffffffff1673ffffffffffffffffffffffffffffffffffffffff16815260200190815260200160002060009054906101000a90046bffffffffffffffffffffffff166bffffffffffffffffffffffff16905092915050565b6040516116be90612ebe565b604051809103902081565b6006602052816000526040600020602052806000526040600020600091509150508060000160009054906101000a900463ffffffff16908060000160049054906101000a90046bffffffffffffffffffffffff16905082565b600260009054906101000a900473ffffffffffffffffffffffffffffffffffffffff1673ffffffffffffffffffffffffffffffffffffffff163373ffffffffffffffffffffffffffffffffffffffff16146117b2576040517f08c379a00000000000000000000000000000000000000000000000000000000081526004016117a990613060565b60405180910390fd5b7f3b0007eb941cf645526cbb3a4fdaecda9d28ce4843167d9263b536a1f1edc0f6600260009054906101000a900473ffffffffffffffffffffffffffffffffffffffff1682604051611805929190612eee565b60405180910390a180600260006101000a81548173ffffffffffffffffffffffffffffffffffffffff021916908373ffffffffffffffffffffffffffffffffffffffff16021790555050565b60006c01000000000000000000000000831082906118a5576040517f08c379a000000000000000000000000000000000000000000000000000000000815260040161189c919061303e565b60405180910390fd5b5082905092915050565b6000836bffffffffffffffffffffffff16836bffffffffffffffffffffffff1611158290611913576040517f08c379a000000000000000000000000000000000000000000000000000000000815260040161190a919061303e565b60405180910390fd5b5082840390509392505050565b600073ffffffffffffffffffffffffffffffffffffffff168373ffffffffffffffffffffffffffffffffffffffff161415611990576040517f08c379a0000000000000000000000000000000000000000000000000000000008152600401611987906130c0565b60405180910390fd5b600073ffffffffffffffffffffffffffffffffffffffff168273ffffffffffffffffffffffffffffffffffffffff161415611a00576040517f08c379a00000000000000000000000000000000000000000000000000000000081526004016119f7906130e0565b60405180910390fd5b611a7a600460008573ffffffffffffffffffffffffffffffffffffffff1673ffffffffffffffffffffffffffffffffffffffff16815260200190815260200160002060009054906101000a90046bffffffffffffffffffffffff168260405180606001604052806036815260200161352a603691396118af565b600460008573ffffffffffffffffffffffffffffffffffffffff1673ffffffffffffffffffffffffffffffffffffffff16815260200190815260200160002060006101000a8154816bffffffffffffffffffffffff02191690836bffffffffffffffffffffffff160217905550611b61600460008473ffffffffffffffffffffffffffffffffffffffff1673ffffffffffffffffffffffffffffffffffffffff16815260200190815260200160002060009054906101000a90046bffffffffffffffffffffffff168260405180606001604052806030815260200161347160309139611d56565b600460008473ffffffffffffffffffffffffffffffffffffffff1673ffffffffffffffffffffffffffffffffffffffff16815260200190815260200160002060006101000a8154816bffffffffffffffffffffffff02191690836bffffffffffffffffffffffff1602179055508173ffffffffffffffffffffffffffffffffffffffff168373ffffffffffffffffffffffffffffffffffffffff167fddf252ad1be2c89b69c2b068fc378daa952ba7f163c4a11628f55a4df523b3ef83604051611c2b919061323a565b60405180910390a3611cfc600560008573ffffffffffffffffffffffffffffffffffffffff1673ffffffffffffffffffffffffffffffffffffffff16815260200190815260200160002060009054906101000a900473ffffffffffffffffffffffffffffffffffffffff16600560008573ffffffffffffffffffffffffffffffffffffffff1673ffffffffffffffffffffffffffffffffffffffff16815260200190815260200160002060009054906101000a900473ffffffffffffffffffffffffffffffffffffffff1683611dcc565b505050565b600080828401905083811015611d4c576040517f08c379a0000000000000000000000000000000000000000000000000000000008152600401611d43906130a0565b60405180910390fd5b8091505092915050565b6000808385019050846bffffffffffffffffffffffff16816bffffffffffffffffffffffff1610158390611dc0576040517f08c379a0000000000000000000000000000000000000000000000000000000008152600401611db7919061303e565b60405180910390fd5b50809150509392505050565b8173ffffffffffffffffffffffffffffffffffffffff168373ffffffffffffffffffffffffffffffffffffffff1614158015611e1657506000816bffffffffffffffffffffffff16115b156120c257600073ffffffffffffffffffffffffffffffffffffffff168373ffffffffffffffffffffffffffffffffffffffff1614611f6e576000600760008573ffffffffffffffffffffffffffffffffffffffff1673ffffffffffffffffffffffffffffffffffffffff16815260200190815260200160002060009054906101000a900463ffffffff1690506000808263ffffffff1611611eb9576000611f35565b600660008673ffffffffffffffffffffffffffffffffffffffff1673ffffffffffffffffffffffffffffffffffffffff16815260200190815260200160002060006001840363ffffffff1663ffffffff16815260200190815260200160002060000160049054906101000a90046bffffffffffffffffffffffff165b90506000611f5c82856040518060600160405280602881526020016135a9602891396118af565b9050611f6a86848484612294565b5050505b600073ffffffffffffffffffffffffffffffffffffffff168273ffffffffffffffffffffffffffffffffffffffff16146120c1576000600760008473ffffffffffffffffffffffffffffffffffffffff1673ffffffffffffffffffffffffffffffffffffffff16815260200190815260200160002060009054906101000a900463ffffffff1690506000808263ffffffff161161200c576000612088565b600660008573ffffffffffffffffffffffffffffffffffffffff1673ffffffffffffffffffffffffffffffffffffffff16815260200190815260200160002060006001840363ffffffff1663ffffffff16815260200190815260200160002060000160049054906101000a90046bffffffffffffffffffffffff165b905060006120af828560405180606001604052806027815260200161356060279139611d56565b90506120bd85848484612294565b5050505b5b505050565b6000600560008473ffffffffffffffffffffffffffffffffffffffff1673ffffffffffffffffffffffffffffffffffffffff16815260200190815260200160002060009054906101000a900473ffffffffffffffffffffffffffffffffffffffff1690506000600460008573ffffffffffffffffffffffffffffffffffffffff1673ffffffffffffffffffffffffffffffffffffffff16815260200190815260200160002060009054906101000a90046bffffffffffffffffffffffff16905082600560008673ffffffffffffffffffffffffffffffffffffffff1673ffffffffffffffffffffffffffffffffffffffff16815260200190815260200160002060006101000a81548173ffffffffffffffffffffffffffffffffffffffff021916908373ffffffffffffffffffffffffffffffffffffffff1602179055508273ffffffffffffffffffffffffffffffffffffffff168273ffffffffffffffffffffffffffffffffffffffff168573ffffffffffffffffffffffffffffffffffffffff167f3134e8a2e6d97e929a7e54011ea5485d7d196dd5f0ba4d4ef95803e8e3fc257f60405160405180910390a4612281828483611dcc565b50505050565b6000804690508091505090565b60006122b8436040518060600160405280603481526020016135d160349139612587565b905060008463ffffffff1611801561234d57508063ffffffff16600660008773ffffffffffffffffffffffffffffffffffffffff1673ffffffffffffffffffffffffffffffffffffffff16815260200190815260200160002060006001870363ffffffff1663ffffffff16815260200190815260200160002060000160009054906101000a900463ffffffff1663ffffffff16145b156123e85781600660008773ffffffffffffffffffffffffffffffffffffffff1673ffffffffffffffffffffffffffffffffffffffff16815260200190815260200160002060006001870363ffffffff1663ffffffff16815260200190815260200160002060000160046101000a8154816bffffffffffffffffffffffff02191690836bffffffffffffffffffffffff160217905550612530565b60405180604001604052808263ffffffff168152602001836bffffffffffffffffffffffff16815250600660008773ffffffffffffffffffffffffffffffffffffffff1673ffffffffffffffffffffffffffffffffffffffff16815260200190815260200160002060008663ffffffff1663ffffffff16815260200190815260200160002060008201518160000160006101000a81548163ffffffff021916908363ffffffff16021790555060208201518160000160046101000a8154816bffffffffffffffffffffffff02191690836bffffffffffffffffffffffff16021790555090505060018401600760008773ffffffffffffffffffffffffffffffffffffffff1673ffffffffffffffffffffffffffffffffffffffff16815260200190815260200160002060006101000a81548163ffffffff021916908363ffffffff1602179055505b8473ffffffffffffffffffffffffffffffffffffffff167fdec2bacdd2f05b59de34da9b523dff8be42e5e38e818c82fdb0bae774387a7248484604051612578929190613270565b60405180910390a25050505050565b6000640100000000831082906125d3576040517f08c379a00000000000000000000000000000000000000000000000000000000081526004016125ca919061303e565b60405180910390fd5b5082905092915050565b6040518060400160405280600063ffffffff16815260200160006bffffffffffffffffffffffff1681525090565b60008135905061261a816133b2565b92915050565b60008135905061262f816133c9565b92915050565b600081359050612644816133e0565b92915050565b600081359050612659816133f7565b92915050565b60008135905061266e8161340e565b92915050565b60006020828403121561268657600080fd5b60006126948482850161260b565b91505092915050565b600080604083850312156126b057600080fd5b60006126be8582860161260b565b92505060206126cf8582860161260b565b9150509250929050565b6000806000606084860312156126ee57600080fd5b60006126fc8682870161260b565b935050602061270d8682870161260b565b925050604061271e86828701612635565b9150509250925092565b6000806040838503121561273b57600080fd5b60006127498582860161260b565b925050602061275a85828601612635565b9150509250929050565b60008060008060008060c0878903121561277d57600080fd5b600061278b89828a0161260b565b965050602061279c89828a01612635565b95505060406127ad89828a01612635565b94505060606127be89828a0161265f565b93505060806127cf89828a01612620565b92505060a06127e089828a01612620565b9150509295509295509295565b6000806040838503121561280057600080fd5b600061280e8582860161260b565b925050602061281f8582860161264a565b9150509250929050565b612832816132cb565b82525050565b612841816132dd565b82525050565b612850816132e9565b82525050565b612867612862826132e9565b613397565b82525050565b6000612878826132a4565b61288281856132af565b9350612892818560208601613364565b61289b816133a1565b840191505092915050565b60006128b182613299565b6128bb81856132af565b93506128cb818560208601613364565b6128d4816133a1565b840191505092915050565b60006128ec603e836132af565b91507f42756c6c3a3a7365744d696e7465723a206f6e6c7920746865206d696e74657260008301527f2063616e206368616e676520746865206d696e746572206164647265737300006020830152604082019050919050565b60006129526012836132af565b91507f42756c6c3a2063617020657863656564656400000000000000000000000000006000830152602082019050919050565b60006129926002836132c0565b91507f19010000000000000000000000000000000000000000000000000000000000006000830152600282019050919050565b60006129d2601b836132af565b91507f536166654d6174683a206164646974696f6e206f766572666c6f7700000000006000830152602082019050919050565b6000612a12603c836132af565b91507f42756c6c3a3a5f7472616e73666572546f6b656e733a2063616e6e6f7420747260008301527f616e736665722066726f6d20746865207a65726f2061646472657373000000006020830152604082019050919050565b6000612a78603a836132af565b91507f42756c6c3a3a5f7472616e73666572546f6b656e733a2063616e6e6f7420747260008301527f616e7366657220746f20746865207a65726f20616464726573730000000000006020830152604082019050919050565b6000612ade602f836132af565b91507f42756c6c3a3a6d696e743a2063616e6e6f74207472616e7366657220746f207460008301527f6865207a65726f206164647265737300000000000000000000000000000000006020830152604082019050919050565b6000612b446043836132c0565b91507f454950373132446f6d61696e28737472696e67206e616d652c75696e7432353660008301527f20636861696e49642c6164647265737320766572696679696e67436f6e74726160208301527f63742900000000000000000000000000000000000000000000000000000000006040830152604382019050919050565b6000612bd06024836132af565b91507f42756c6c3a3a6d696e743a206f6e6c7920746865206d696e7465722063616e2060008301527f6d696e74000000000000000000000000000000000000000000000000000000006020830152604082019050919050565b6000612c366026836132af565b91507f42756c6c3a3a64656c656761746542795369673a20696e76616c69642073696760008301527f6e617475726500000000000000000000000000000000000000000000000000006020830152604082019050919050565b6000612c9c6027836132af565b91507f42756c6c3a3a6765745072696f72566f7465733a206e6f74207965742064657460008301527f65726d696e6564000000000000000000000000000000000000000000000000006020830152604082019050919050565b6000612d026022836132af565b91507f42756c6c3a3a64656c656761746542795369673a20696e76616c6964206e6f6e60008301527f63650000000000000000000000000000000000000000000000000000000000006020830152604082019050919050565b6000612d686026836132af565b91507f42756c6c3a3a64656c656761746542795369673a207369676e6174757265206560008301527f78706972656400000000000000000000000000000000000000000000000000006020830152604082019050919050565b6000612dce603a836132c0565b91507f44656c65676174696f6e28616464726573732064656c6567617465652c75696e60008301527f74323536206e6f6e63652c75696e7432353620657870697279290000000000006020830152603a82019050919050565b612e3081613313565b82525050565b612e3f8161331d565b82525050565b612e4e8161332d565b82525050565b612e5d81613352565b82525050565b612e6c8161333a565b82525050565b6000612e7d82612985565b9150612e898285612856565b602082019150612e998284612856565b6020820191508190509392505050565b6000612eb482612b37565b9150819050919050565b6000612ec982612dc1565b9150819050919050565b6000602082019050612ee86000830184612829565b92915050565b6000604082019050612f036000830185612829565b612f106020830184612829565b9392505050565b6000602082019050612f2c6000830184612838565b92915050565b6000602082019050612f476000830184612847565b92915050565b6000608082019050612f626000830187612847565b612f6f6020830186612829565b612f7c6040830185612e27565b612f896060830184612e27565b95945050505050565b6000608082019050612fa76000830187612847565b612fb46020830186612847565b612fc16040830185612e27565b612fce6060830184612829565b95945050505050565b6000608082019050612fec6000830187612847565b612ff96020830186612e45565b6130066040830185612847565b6130136060830184612847565b95945050505050565b6000602082019050818103600083015261303681846128a6565b905092915050565b60006020820190508181036000830152613058818461286d565b905092915050565b60006020820190508181036000830152613079816128df565b9050919050565b6000602082019050818103600083015261309981612945565b9050919050565b600060208201905081810360008301526130b9816129c5565b9050919050565b600060208201905081810360008301526130d981612a05565b9050919050565b600060208201905081810360008301526130f981612a6b565b9050919050565b6000602082019050818103600083015261311981612ad1565b9050919050565b6000602082019050818103600083015261313981612bc3565b9050919050565b6000602082019050818103600083015261315981612c29565b9050919050565b6000602082019050818103600083015261317981612c8f565b9050919050565b6000602082019050818103600083015261319981612cf5565b9050919050565b600060208201905081810360008301526131b981612d5b565b9050919050565b60006020820190506131d56000830184612e27565b92915050565b60006020820190506131f06000830184612e36565b92915050565b600060408201905061320b6000830185612e36565b6132186020830184612e63565b9392505050565b60006020820190506132346000830184612e45565b92915050565b600060208201905061324f6000830184612e54565b92915050565b600060208201905061326a6000830184612e63565b92915050565b60006040820190506132856000830185612e54565b6132926020830184612e54565b9392505050565b600081519050919050565b600081519050919050565b600082825260208201905092915050565b600081905092915050565b60006132d6826132f3565b9050919050565b60008115159050919050565b6000819050919050565b600073ffffffffffffffffffffffffffffffffffffffff82169050919050565b6000819050919050565b600063ffffffff82169050919050565b600060ff82169050919050565b60006bffffffffffffffffffffffff82169050919050565b600061335d8261333a565b9050919050565b60005b83811015613382578082015181840152602081019050613367565b83811115613391576000848401525b50505050565b6000819050919050565b6000601f19601f8301169050919050565b6133bb816132cb565b81146133c657600080fd5b50565b6133d2816132e9565b81146133dd57600080fd5b50565b6133e981613313565b81146133f457600080fd5b50565b6134008161331d565b811461340b57600080fd5b50565b6134178161332d565b811461342257600080fd5b5056fe42756c6c3a3a617070726f76653a20616d6f756e742065786365656473203936206269747342756c6c3a3a7472616e736665723a20616d6f756e742065786365656473203936206269747342756c6c3a3a5f7472616e73666572546f6b656e733a207472616e7366657220616d6f756e74206f766572666c6f777342756c6c3a3a7472616e7366657246726f6d3a207472616e7366657220616d6f756e742065786365656473207370656e64657220616c6c6f77616e636542756c6c3a3a6d696e743a207472616e7366657220616d6f756e74206f766572666c6f777342756c6c3a3a6d696e743a20746f74616c537570706c792065786365656473203936206269747342756c6c3a3a5f7472616e73666572546f6b656e733a207472616e7366657220616d6f756e7420657863656564732062616c616e636542756c6c3a3a5f6d6f7665566f7465733a20766f746520616d6f756e74206f766572666c6f777342756c6c3a3a6d696e743a20616d6f756e742065786365656473203936206269747342756c6c3a3a5f6d6f7665566f7465733a20766f746520616d6f756e7420756e646572666c6f777342756c6c3a3a5f7772697465436865636b706f696e743a20626c6f636b206e756d62657220657863656564732033322062697473a365627a7a723158208412980aa2fc0839010ef80975f015bef5f71906e2250298e3556b3db3de22be6c6578706572696d656e74616cf564736f6c63430005110040",
  "compiler": {
    "name": "solc",
    "version": "0.5.17+commit.d19bba13.Emscripten.clang",
    "optimizer": {
      "enabled": false,
      "runs": 200
    },
    "evmVersion": "istanbul"
  }
}