{
  "fileName": "BVault.sol",
  "contractName": "BVault",
  "source": "pragma solidity ^0.5.17;\n\nimport \"@openzeppelin/contracts/token/ERC20/IERC20.sol\";\nimport \"@openzeppelin/contracts/math/SafeMath.sol\";\nimport \"@openzeppelin/contracts/utils/Address.sol\";\nimport \"@openzeppelin/contracts/token/ERC20/SafeERC20.sol\";\nimport \"@openzeppelin/contracts/token/ERC20/ERC20.sol\";\nimport \"@openzeppelin/contracts/token/ERC20/ERC20Detailed.sol\";\nimport \"@openzeppelin/contracts/ownership/Ownable.sol\";\n\nimport \"../interfaces/yearn/IController.sol\";\n\ncontract BVault is ERC20, ERC20Detailed {\n    using SafeERC20 for IERC20;\n    using Address for address;\n    using SafeMath for uint256;\n\n    IERC20 public token;\n\n    uint256 public min = 9500;\n    uint256 public constant max = 10000;\n\n    address public governance;\n    address public controller;\n\n    constructor(address _token, address _controller)\n        public\n        ERC20Detailed(\n            string(abi.encodePacked(\"bull \", ERC20Detailed(_token).name())),\n            string(abi.encodePacked(\"b\", ERC20Detailed(_token).symbol())),\n            ERC20Detailed(_token).decimals()\n        )\n    {\n        token = IERC20(_token);\n        governance = msg.sender;\n        controller = _controller;\n    }\n\n    function balance() public view returns (uint256) {\n        return token.balanceOf(address(this)).add(IController(controller).balanceOf(address(token)));\n    }\n\n    function setMin(uint256 _min) external {\n        require(msg.sender == governance, \"!governance\");\n        min = _min;\n    }\n\n    function setGovernance(address _governance) public {\n        require(msg.sender == governance, \"!governance\");\n        governance = _governance;\n    }\n\n    function setController(address _controller) public {\n        require(msg.sender == governance, \"!governance\");\n        controller = _controller;\n    }\n\n    // Custom logic in here for how much the vault allows to be borrowed\n    // Sets minimum required on-hand to keep small withdrawals cheap\n    function available() public view returns (uint256) {\n        return token.balanceOf(address(this)).mul(min).div(max);\n    }\n\n    function earn() public returns (uint256) {\n        require(msg.sender == controller, \"!controller\");\n\n        uint256 _bal = available();\n        token.safeTransfer(controller, _bal);\n        return _bal;\n    }\n\n    function depositAll() external {\n        deposit(token.balanceOf(msg.sender));\n    }\n\n    function deposit(uint256 _amount) public {\n        uint256 _pool = balance();\n        uint256 _before = token.balanceOf(address(this));\n        token.safeTransferFrom(msg.sender, address(this), _amount);\n        uint256 _after = token.balanceOf(address(this));\n        _amount = _after.sub(_before); // Additional check for deflationary tokens\n        uint256 shares = 0;\n        if (totalSupply() == 0) {\n            shares = _amount;\n        } else {\n            shares = (_amount.mul(totalSupply())).div(_pool);\n        }\n        _mint(msg.sender, shares);\n    }\n\n    function withdrawAll() external {\n        withdraw(balanceOf(msg.sender));\n    }\n\n    // Used to swap any borrowed reserve over the debt limit to liquidate to 'token'\n    function harvest(address reserve, uint256 amount) external {\n        require(msg.sender == controller, \"!controller\");\n        require(reserve != address(token), \"token\");\n        IERC20(reserve).safeTransfer(controller, amount);\n    }\n\n    // No rebalance implementation for lower fees and faster swaps\n    function withdraw(uint256 _shares) public {\n        uint256 r = (balance().mul(_shares)).div(totalSupply());\n        _burn(msg.sender, _shares);\n\n        // Check balance\n        uint256 b = token.balanceOf(address(this));\n        if (b < r) {\n            uint256 _withdraw = r.sub(b);\n            IController(controller).withdraw(address(token), _withdraw);\n            uint256 _after = token.balanceOf(address(this));\n            uint256 _diff = _after.sub(b);\n            if (_diff < _withdraw) {\n                r = b.add(_diff);\n            }\n        }\n\n        token.safeTransfer(msg.sender, r);\n    }\n\n    function getPricePerFullShare() public view returns (uint256) {\n        return balance().mul(1e18).div(totalSupply());\n    }\n}\n",
  "sourcePath": "contracts/vaults/BVault.sol",
  "abi": [
    {
      "inputs": [
        {
          "internalType": "address",
          "name": "_token",
          "type": "address"
        },
        {
          "internalType": "address",
          "name": "_controller",
          "type": "address"
        }
      ],
      "payable": false,
      "stateMutability": "nonpayable",
      "type": "constructor"
    },
    {
      "anonymous": false,
      "inputs": [
        {
          "indexed": true,
          "internalType": "address",
          "name": "owner",
          "type": "address"
        },
        {
          "indexed": true,
          "internalType": "address",
          "name": "spender",
          "type": "address"
        },
        {
          "indexed": false,
          "internalType": "uint256",
          "name": "value",
          "type": "uint256"
        }
      ],
      "name": "Approval",
      "type": "event"
    },
    {
      "anonymous": false,
      "inputs": [
        {
          "indexed": true,
          "internalType": "address",
          "name": "from",
          "type": "address"
        },
        {
          "indexed": true,
          "internalType": "address",
          "name": "to",
          "type": "address"
        },
        {
          "indexed": false,
          "internalType": "uint256",
          "name": "value",
          "type": "uint256"
        }
      ],
      "name": "Transfer",
      "type": "event"
    },
    {
      "constant": true,
      "inputs": [
        {
          "internalType": "address",
          "name": "owner",
          "type": "address"
        },
        {
          "internalType": "address",
          "name": "spender",
          "type": "address"
        }
      ],
      "name": "allowance",
      "outputs": [
        {
          "internalType": "uint256",
          "name": "",
          "type": "uint256"
        }
      ],
      "payable": false,
      "stateMutability": "view",
      "type": "function"
    },
    {
      "constant": false,
      "inputs": [
        {
          "internalType": "address",
          "name": "spender",
          "type": "address"
        },
        {
          "internalType": "uint256",
          "name": "amount",
          "type": "uint256"
        }
      ],
      "name": "approve",
      "outputs": [
        {
          "internalType": "bool",
          "name": "",
          "type": "bool"
        }
      ],
      "payable": false,
      "stateMutability": "nonpayable",
      "type": "function"
    },
    {
      "constant": true,
      "inputs": [],
      "name": "available",
      "outputs": [
        {
          "internalType": "uint256",
          "name": "",
          "type": "uint256"
        }
      ],
      "payable": false,
      "stateMutability": "view",
      "type": "function"
    },
    {
      "constant": true,
      "inputs": [],
      "name": "balance",
      "outputs": [
        {
          "internalType": "uint256",
          "name": "",
          "type": "uint256"
        }
      ],
      "payable": false,
      "stateMutability": "view",
      "type": "function"
    },
    {
      "constant": true,
      "inputs": [
        {
          "internalType": "address",
          "name": "account",
          "type": "address"
        }
      ],
      "name": "balanceOf",
      "outputs": [
        {
          "internalType": "uint256",
          "name": "",
          "type": "uint256"
        }
      ],
      "payable": false,
      "stateMutability": "view",
      "type": "function"
    },
    {
      "constant": true,
      "inputs": [],
      "name": "controller",
      "outputs": [
        {
          "internalType": "address",
          "name": "",
          "type": "address"
        }
      ],
      "payable": false,
      "stateMutability": "view",
      "type": "function"
    },
    {
      "constant": true,
      "inputs": [],
      "name": "decimals",
      "outputs": [
        {
          "internalType": "uint8",
          "name": "",
          "type": "uint8"
        }
      ],
      "payable": false,
      "stateMutability": "view",
      "type": "function"
    },
    {
      "constant": false,
      "inputs": [
        {
          "internalType": "address",
          "name": "spender",
          "type": "address"
        },
        {
          "internalType": "uint256",
          "name": "subtractedValue",
          "type": "uint256"
        }
      ],
      "name": "decreaseAllowance",
      "outputs": [
        {
          "internalType": "bool",
          "name": "",
          "type": "bool"
        }
      ],
      "payable": false,
      "stateMutability": "nonpayable",
      "type": "function"
    },
    {
      "constant": false,
      "inputs": [
        {
          "internalType": "uint256",
          "name": "_amount",
          "type": "uint256"
        }
      ],
      "name": "deposit",
      "outputs": [],
      "payable": false,
      "stateMutability": "nonpayable",
      "type": "function"
    },
    {
      "constant": false,
      "inputs": [],
      "name": "depositAll",
      "outputs": [],
      "payable": false,
      "stateMutability": "nonpayable",
      "type": "function"
    },
    {
      "constant": false,
      "inputs": [],
      "name": "earn",
      "outputs": [
        {
          "internalType": "uint256",
          "name": "",
          "type": "uint256"
        }
      ],
      "payable": false,
      "stateMutability": "nonpayable",
      "type": "function"
    },
    {
      "constant": true,
      "inputs": [],
      "name": "getPricePerFullShare",
      "outputs": [
        {
          "internalType": "uint256",
          "name": "",
          "type": "uint256"
        }
      ],
      "payable": false,
      "stateMutability": "view",
      "type": "function"
    },
    {
      "constant": true,
      "inputs": [],
      "name": "governance",
      "outputs": [
        {
          "internalType": "address",
          "name": "",
          "type": "address"
        }
      ],
      "payable": false,
      "stateMutability": "view",
      "type": "function"
    },
    {
      "constant": false,
      "inputs": [
        {
          "internalType": "address",
          "name": "reserve",
          "type": "address"
        },
        {
          "internalType": "uint256",
          "name": "amount",
          "type": "uint256"
        }
      ],
      "name": "harvest",
      "outputs": [],
      "payable": false,
      "stateMutability": "nonpayable",
      "type": "function"
    },
    {
      "constant": false,
      "inputs": [
        {
          "internalType": "address",
          "name": "spender",
          "type": "address"
        },
        {
          "internalType": "uint256",
          "name": "addedValue",
          "type": "uint256"
        }
      ],
      "name": "increaseAllowance",
      "outputs": [
        {
          "internalType": "bool",
          "name": "",
          "type": "bool"
        }
      ],
      "payable": false,
      "stateMutability": "nonpayable",
      "type": "function"
    },
    {
      "constant": true,
      "inputs": [],
      "name": "max",
      "outputs": [
        {
          "internalType": "uint256",
          "name": "",
          "type": "uint256"
        }
      ],
      "payable": false,
      "stateMutability": "view",
      "type": "function"
    },
    {
      "constant": true,
      "inputs": [],
      "name": "min",
      "outputs": [
        {
          "internalType": "uint256",
          "name": "",
          "type": "uint256"
        }
      ],
      "payable": false,
      "stateMutability": "view",
      "type": "function"
    },
    {
      "constant": true,
      "inputs": [],
      "name": "name",
      "outputs": [
        {
          "internalType": "string",
          "name": "",
          "type": "string"
        }
      ],
      "payable": false,
      "stateMutability": "view",
      "type": "function"
    },
    {
      "constant": false,
      "inputs": [
        {
          "internalType": "address",
          "name": "_controller",
          "type": "address"
        }
      ],
      "name": "setController",
      "outputs": [],
      "payable": false,
      "stateMutability": "nonpayable",
      "type": "function"
    },
    {
      "constant": false,
      "inputs": [
        {
          "internalType": "address",
          "name": "_governance",
          "type": "address"
        }
      ],
      "name": "setGovernance",
      "outputs": [],
      "payable": false,
      "stateMutability": "nonpayable",
      "type": "function"
    },
    {
      "constant": false,
      "inputs": [
        {
          "internalType": "uint256",
          "name": "_min",
          "type": "uint256"
        }
      ],
      "name": "setMin",
      "outputs": [],
      "payable": false,
      "stateMutability": "nonpayable",
      "type": "function"
    },
    {
      "constant": true,
      "inputs": [],
      "name": "symbol",
      "outputs": [
        {
          "internalType": "string",
          "name": "",
          "type": "string"
        }
      ],
      "payable": false,
      "stateMutability": "view",
      "type": "function"
    },
    {
      "constant": true,
      "inputs": [],
      "name": "token",
      "outputs": [
        {
          "internalType": "contract IERC20",
          "name": "",
          "type": "address"
        }
      ],
      "payable": false,
      "stateMutability": "view",
      "type": "function"
    },
    {
      "constant": true,
      "inputs": [],
      "name": "totalSupply",
      "outputs": [
        {
          "internalType": "uint256",
          "name": "",
          "type": "uint256"
        }
      ],
      "payable": false,
      "stateMutability": "view",
      "type": "function"
    },
    {
      "constant": false,
      "inputs": [
        {
          "internalType": "address",
          "name": "recipient",
          "type": "address"
        },
        {
          "internalType": "uint256",
          "name": "amount",
          "type": "uint256"
        }
      ],
      "name": "transfer",
      "outputs": [
        {
          "internalType": "bool",
          "name": "",
          "type": "bool"
        }
      ],
      "payable": false,
      "stateMutability": "nonpayable",
      "type": "function"
    },
    {
      "constant": false,
      "inputs": [
        {
          "internalType": "address",
          "name": "sender",
          "type": "address"
        },
        {
          "internalType": "address",
          "name": "recipient",
          "type": "address"
        },
        {
          "internalType": "uint256",
          "name": "amount",
          "type": "uint256"
        }
      ],
      "name": "transferFrom",
      "outputs": [
        {
          "internalType": "bool",
          "name": "",
          "type": "bool"
        }
      ],
      "payable": false,
      "stateMutability": "nonpayable",
      "type": "function"
    },
    {
      "constant": false,
      "inputs": [
        {
          "internalType": "uint256",
          "name": "_shares",
          "type": "uint256"
        }
      ],
      "name": "withdraw",
      "outputs": [],
      "payable": false,
      "stateMutability": "nonpayable",
      "type": "function"
    },
    {
      "constant": false,
      "inputs": [],
      "name": "withdrawAll",
      "outputs": [],
      "payable": false,
      "stateMutability": "nonpayable",
      "type": "function"
    }
  ],
  "bytecode": "0x608060405261251c6006553480156200001757600080fd5b506040516200367838038062003678833981810160405260408110156200003d57600080fd5b8101908080519060200190929190805190602001909291905050508173ffffffffffffffffffffffffffffffffffffffff166306fdde036040518163ffffffff1660e01b815260040160006040518083038186803b1580156200009f57600080fd5b505afa158015620000b4573d6000803e3d6000fd5b505050506040513d6000823e3d601f19601f820116820180604052506020811015620000df57600080fd5b81019080805160405193929190846401000000008211156200010057600080fd5b838201915060208201858111156200011757600080fd5b82518660018202830111640100000000821117156200013557600080fd5b8083526020830192505050908051906020019080838360005b838110156200016b5780820151818401526020810190506200014e565b50505050905090810190601f168015620001995780820380516001836020036101000a031916815260200191505b5060405250505060405160200180807f62756c6c2000000000000000000000000000000000000000000000000000000081525060050182805190602001908083835b60208310620002005780518252602082019150602081019050602083039250620001db565b6001836020036101000a0380198251168184511680821785525050505050509050019150506040516020818303038152906040528273ffffffffffffffffffffffffffffffffffffffff166395d89b416040518163ffffffff1660e01b815260040160006040518083038186803b1580156200027b57600080fd5b505afa15801562000290573d6000803e3d6000fd5b505050506040513d6000823e3d601f19601f820116820180604052506020811015620002bb57600080fd5b8101908080516040519392919084640100000000821115620002dc57600080fd5b83820191506020820185811115620002f357600080fd5b82518660018202830111640100000000821117156200031157600080fd5b8083526020830192505050908051906020019080838360005b83811015620003475780820151818401526020810190506200032a565b50505050905090810190601f168015620003755780820380516001836020036101000a031916815260200191505b5060405250505060405160200180807f620000000000000000000000000000000000000000000000000000000000000081525060010182805190602001908083835b60208310620003dc5780518252602082019150602081019050602083039250620003b7565b6001836020036101000a0380198251168184511680821785525050505050509050019150506040516020818303038152906040528373ffffffffffffffffffffffffffffffffffffffff1663313ce5676040518163ffffffff1660e01b815260040160206040518083038186803b1580156200045757600080fd5b505afa1580156200046c573d6000803e3d6000fd5b505050506040513d60208110156200048357600080fd5b81019080805190602001909291905050508260039080519060200190620004ac929190620005af565b508160049080519060200190620004c5929190620005af565b5080600560006101000a81548160ff021916908360ff16021790555050505081600560016101000a81548173ffffffffffffffffffffffffffffffffffffffff021916908373ffffffffffffffffffffffffffffffffffffffff16021790555033600760006101000a81548173ffffffffffffffffffffffffffffffffffffffff021916908373ffffffffffffffffffffffffffffffffffffffff16021790555080600860006101000a81548173ffffffffffffffffffffffffffffffffffffffff021916908373ffffffffffffffffffffffffffffffffffffffff16021790555050506200065e565b828054600181600116156101000203166002900490600052602060002090601f016020900481019282601f10620005f257805160ff191683800117855562000623565b8280016001018555821562000623579182015b828111156200062257825182559160200191906001019062000605565b5b50905062000632919062000636565b5090565b6200065b91905b80821115620006575760008160009055506001016200063d565b5090565b90565b61300a806200066e6000396000f3fe608060405234801561001057600080fd5b50600436106101c45760003560e01c8063853828b6116100f9578063b6b55f2511610097578063de5f626811610071578063de5f626814610849578063f77c479114610853578063f88979451461089d578063fc0c546a146108bb576101c4565b8063b6b55f2514610785578063d389800f146107b3578063dd62ed3e146107d1576101c4565b8063a457c2d7116100d3578063a457c2d714610657578063a9059cbb146106bd578063ab033ea914610723578063b69ef8a814610767576101c4565b8063853828b61461058657806392eefe9b1461059057806395d89b41146105d4576101c4565b806339509351116101665780635aa6e675116101405780635aa6e675146104a85780636ac5db19146104f257806370a082311461051057806377c7b8fc14610568576101c4565b806339509351146103f657806345dc3dd81461045c57806348a0d7541461048a576101c4565b806318160ddd116101a257806318160ddd1461030057806323b872dd1461031e5780632e1a7d4d146103a4578063313ce567146103d2576101c4565b8063018ee9b7146101c957806306fdde0314610217578063095ea7b31461029a575b600080fd5b610215600480360360408110156101df57600080fd5b81019080803573ffffffffffffffffffffffffffffffffffffffff16906020019092919080359060200190929190505050610905565b005b61021f610add565b6040518080602001828103825283818151815260200191508051906020019080838360005b8381101561025f578082015181840152602081019050610244565b50505050905090810190601f16801561028c5780820380516001836020036101000a031916815260200191505b509250505060405180910390f35b6102e6600480360360408110156102b057600080fd5b81019080803573ffffffffffffffffffffffffffffffffffffffff16906020019092919080359060200190929190505050610b7f565b604051808215151515815260200191505060405180910390f35b610308610b9d565b6040518082815260200191505060405180910390f35b61038a6004803603606081101561033457600080fd5b81019080803573ffffffffffffffffffffffffffffffffffffffff169060200190929190803573ffffffffffffffffffffffffffffffffffffffff16906020019092919080359060200190929190505050610ba7565b604051808215151515815260200191505060405180910390f35b6103d0600480360360208110156103ba57600080fd5b8101908080359060200190929190505050610c80565b005b6103da61100a565b604051808260ff1660ff16815260200191505060405180910390f35b6104426004803603604081101561040c57600080fd5b81019080803573ffffffffffffffffffffffffffffffffffffffff16906020019092919080359060200190929190505050611021565b604051808215151515815260200191505060405180910390f35b6104886004803603602081101561047257600080fd5b81019080803590602001909291905050506110d4565b005b6104926111a1565b6040518082815260200191505060405180910390f35b6104b06112aa565b604051808273ffffffffffffffffffffffffffffffffffffffff1673ffffffffffffffffffffffffffffffffffffffff16815260200191505060405180910390f35b6104fa6112d0565b6040518082815260200191505060405180910390f35b6105526004803603602081101561052657600080fd5b81019080803573ffffffffffffffffffffffffffffffffffffffff1690602001909291905050506112d6565b6040518082815260200191505060405180910390f35b61057061131e565b6040518082815260200191505060405180910390f35b61058e611360565b005b6105d2600480360360208110156105a657600080fd5b81019080803573ffffffffffffffffffffffffffffffffffffffff169060200190929190505050611373565b005b6105dc61147a565b6040518080602001828103825283818151815260200191508051906020019080838360005b8381101561061c578082015181840152602081019050610601565b50505050905090810190601f1680156106495780820380516001836020036101000a031916815260200191505b509250505060405180910390f35b6106a36004803603604081101561066d57600080fd5b81019080803573ffffffffffffffffffffffffffffffffffffffff1690602001909291908035906020019092919050505061151c565b604051808215151515815260200191505060405180910390f35b610709600480360360408110156106d357600080fd5b81019080803573ffffffffffffffffffffffffffffffffffffffff169060200190929190803590602001909291905050506115e9565b604051808215151515815260200191505060405180910390f35b6107656004803603602081101561073957600080fd5b81019080803573ffffffffffffffffffffffffffffffffffffffff169060200190929190505050611607565b005b61076f61170e565b6040518082815260200191505060405180910390f35b6107b16004803603602081101561079b57600080fd5b81019080803590602001909291905050506118fc565b005b6107bb611b85565b6040518082815260200191505060405180910390f35b610833600480360360408110156107e757600080fd5b81019080803573ffffffffffffffffffffffffffffffffffffffff169060200190929190803573ffffffffffffffffffffffffffffffffffffffff169060200190929190505050611ccc565b6040518082815260200191505060405180910390f35b610851611d53565b005b61085b611e37565b604051808273ffffffffffffffffffffffffffffffffffffffff1673ffffffffffffffffffffffffffffffffffffffff16815260200191505060405180910390f35b6108a5611e5d565b6040518082815260200191505060405180910390f35b6108c3611e63565b604051808273ffffffffffffffffffffffffffffffffffffffff1673ffffffffffffffffffffffffffffffffffffffff16815260200191505060405180910390f35b600860009054906101000a900473ffffffffffffffffffffffffffffffffffffffff1673ffffffffffffffffffffffffffffffffffffffff163373ffffffffffffffffffffffffffffffffffffffff16146109c8576040517f08c379a000000000000000000000000000000000000000000000000000000000815260040180806020018281038252600b8152602001807f21636f6e74726f6c6c657200000000000000000000000000000000000000000081525060200191505060405180910390fd5b600560019054906101000a900473ffffffffffffffffffffffffffffffffffffffff1673ffffffffffffffffffffffffffffffffffffffff168273ffffffffffffffffffffffffffffffffffffffff161415610a8c576040517f08c379a00000000000000000000000000000000000000000000000000000000081526004018080602001828103825260058152602001807f746f6b656e00000000000000000000000000000000000000000000000000000081525060200191505060405180910390fd5b610ad9600860009054906101000a900473ffffffffffffffffffffffffffffffffffffffff16828473ffffffffffffffffffffffffffffffffffffffff16611e899092919063ffffffff16565b5050565b606060038054600181600116156101000203166002900480601f016020809104026020016040519081016040528092919081815260200182805460018160011615610100020316600290048015610b755780601f10610b4a57610100808354040283529160200191610b75565b820191906000526020600020905b815481529060010190602001808311610b5857829003601f168201915b5050505050905090565b6000610b93610b8c611f5a565b8484611f62565b6001905092915050565b6000600254905090565b6000610bb4848484612159565b610c7584610bc0611f5a565b610c7085604051806060016040528060288152602001612ef560289139600160008b73ffffffffffffffffffffffffffffffffffffffff1673ffffffffffffffffffffffffffffffffffffffff1681526020019081526020016000206000610c26611f5a565b73ffffffffffffffffffffffffffffffffffffffff1673ffffffffffffffffffffffffffffffffffffffff1681526020019081526020016000205461240f9092919063ffffffff16565b611f62565b600190509392505050565b6000610cb5610c8d610b9d565b610ca784610c9961170e565b6124cf90919063ffffffff16565b61255590919063ffffffff16565b9050610cc1338361259f565b6000600560019054906101000a900473ffffffffffffffffffffffffffffffffffffffff1673ffffffffffffffffffffffffffffffffffffffff166370a08231306040518263ffffffff1660e01b8152600401808273ffffffffffffffffffffffffffffffffffffffff1673ffffffffffffffffffffffffffffffffffffffff16815260200191505060206040518083038186803b158015610d6257600080fd5b505afa158015610d76573d6000803e3d6000fd5b505050506040513d6020811015610d8c57600080fd5b8101908080519060200190929190505050905081811015610fb8576000610dbc828461275790919063ffffffff16565b9050600860009054906101000a900473ffffffffffffffffffffffffffffffffffffffff1673ffffffffffffffffffffffffffffffffffffffff1663f3fef3a3600560019054906101000a900473ffffffffffffffffffffffffffffffffffffffff16836040518363ffffffff1660e01b8152600401808373ffffffffffffffffffffffffffffffffffffffff1673ffffffffffffffffffffffffffffffffffffffff16815260200182815260200192505050600060405180830381600087803b158015610e8957600080fd5b505af1158015610e9d573d6000803e3d6000fd5b505050506000600560019054906101000a900473ffffffffffffffffffffffffffffffffffffffff1673ffffffffffffffffffffffffffffffffffffffff166370a08231306040518263ffffffff1660e01b8152600401808273ffffffffffffffffffffffffffffffffffffffff1673ffffffffffffffffffffffffffffffffffffffff16815260200191505060206040518083038186803b158015610f4257600080fd5b505afa158015610f56573d6000803e3d6000fd5b505050506040513d6020811015610f6c57600080fd5b810190808051906020019092919050505090506000610f94848361275790919063ffffffff16565b905082811015610fb457610fb181856127a190919063ffffffff16565b94505b5050505b6110053383600560019054906101000a900473ffffffffffffffffffffffffffffffffffffffff1673ffffffffffffffffffffffffffffffffffffffff16611e899092919063ffffffff16565b505050565b6000600560009054906101000a900460ff16905090565b60006110ca61102e611f5a565b846110c5856001600061103f611f5a565b73ffffffffffffffffffffffffffffffffffffffff1673ffffffffffffffffffffffffffffffffffffffff16815260200190815260200160002060008973ffffffffffffffffffffffffffffffffffffffff1673ffffffffffffffffffffffffffffffffffffffff168152602001908152602001600020546127a190919063ffffffff16565b611f62565b6001905092915050565b600760009054906101000a900473ffffffffffffffffffffffffffffffffffffffff1673ffffffffffffffffffffffffffffffffffffffff163373ffffffffffffffffffffffffffffffffffffffff1614611197576040517f08c379a000000000000000000000000000000000000000000000000000000000815260040180806020018281038252600b8152602001807f21676f7665726e616e636500000000000000000000000000000000000000000081525060200191505060405180910390fd5b8060068190555050565b60006112a5612710611297600654600560019054906101000a900473ffffffffffffffffffffffffffffffffffffffff1673ffffffffffffffffffffffffffffffffffffffff166370a08231306040518263ffffffff1660e01b8152600401808273ffffffffffffffffffffffffffffffffffffffff1673ffffffffffffffffffffffffffffffffffffffff16815260200191505060206040518083038186803b15801561124e57600080fd5b505afa158015611262573d6000803e3d6000fd5b505050506040513d602081101561127857600080fd5b81019080805190602001909291905050506124cf90919063ffffffff16565b61255590919063ffffffff16565b905090565b600760009054906101000a900473ffffffffffffffffffffffffffffffffffffffff1681565b61271081565b60008060008373ffffffffffffffffffffffffffffffffffffffff1673ffffffffffffffffffffffffffffffffffffffff168152602001908152602001600020549050919050565b600061135b61132b610b9d565b61134d670de0b6b3a764000061133f61170e565b6124cf90919063ffffffff16565b61255590919063ffffffff16565b905090565b61137161136c336112d6565b610c80565b565b600760009054906101000a900473ffffffffffffffffffffffffffffffffffffffff1673ffffffffffffffffffffffffffffffffffffffff163373ffffffffffffffffffffffffffffffffffffffff1614611436576040517f08c379a000000000000000000000000000000000000000000000000000000000815260040180806020018281038252600b8152602001807f21676f7665726e616e636500000000000000000000000000000000000000000081525060200191505060405180910390fd5b80600860006101000a81548173ffffffffffffffffffffffffffffffffffffffff021916908373ffffffffffffffffffffffffffffffffffffffff16021790555050565b606060048054600181600116156101000203166002900480601f0160208091040260200160405190810160405280929190818152602001828054600181600116156101000203166002900480156115125780601f106114e757610100808354040283529160200191611512565b820191906000526020600020905b8154815290600101906020018083116114f557829003601f168201915b5050505050905090565b60006115df611529611f5a565b846115da85604051806060016040528060258152602001612fb16025913960016000611553611f5a565b73ffffffffffffffffffffffffffffffffffffffff1673ffffffffffffffffffffffffffffffffffffffff16815260200190815260200160002060008a73ffffffffffffffffffffffffffffffffffffffff1673ffffffffffffffffffffffffffffffffffffffff1681526020019081526020016000205461240f9092919063ffffffff16565b611f62565b6001905092915050565b60006115fd6115f6611f5a565b8484612159565b6001905092915050565b600760009054906101000a900473ffffffffffffffffffffffffffffffffffffffff1673ffffffffffffffffffffffffffffffffffffffff163373ffffffffffffffffffffffffffffffffffffffff16146116ca576040517f08c379a000000000000000000000000000000000000000000000000000000000815260040180806020018281038252600b8152602001807f21676f7665726e616e636500000000000000000000000000000000000000000081525060200191505060405180910390fd5b80600760006101000a81548173ffffffffffffffffffffffffffffffffffffffff021916908373ffffffffffffffffffffffffffffffffffffffff16021790555050565b60006118f7600860009054906101000a900473ffffffffffffffffffffffffffffffffffffffff1673ffffffffffffffffffffffffffffffffffffffff166370a08231600560019054906101000a900473ffffffffffffffffffffffffffffffffffffffff166040518263ffffffff1660e01b8152600401808273ffffffffffffffffffffffffffffffffffffffff1673ffffffffffffffffffffffffffffffffffffffff16815260200191505060206040518083038186803b1580156117d457600080fd5b505afa1580156117e8573d6000803e3d6000fd5b505050506040513d60208110156117fe57600080fd5b8101908080519060200190929190505050600560019054906101000a900473ffffffffffffffffffffffffffffffffffffffff1673ffffffffffffffffffffffffffffffffffffffff166370a08231306040518263ffffffff1660e01b8152600401808273ffffffffffffffffffffffffffffffffffffffff1673ffffffffffffffffffffffffffffffffffffffff16815260200191505060206040518083038186803b1580156118ae57600080fd5b505afa1580156118c2573d6000803e3d6000fd5b505050506040513d60208110156118d857600080fd5b81019080805190602001909291905050506127a190919063ffffffff16565b905090565b600061190661170e565b90506000600560019054906101000a900473ffffffffffffffffffffffffffffffffffffffff1673ffffffffffffffffffffffffffffffffffffffff166370a08231306040518263ffffffff1660e01b8152600401808273ffffffffffffffffffffffffffffffffffffffff1673ffffffffffffffffffffffffffffffffffffffff16815260200191505060206040518083038186803b1580156119a957600080fd5b505afa1580156119bd573d6000803e3d6000fd5b505050506040513d60208110156119d357600080fd5b81019080805190602001909291905050509050611a35333085600560019054906101000a900473ffffffffffffffffffffffffffffffffffffffff1673ffffffffffffffffffffffffffffffffffffffff16612829909392919063ffffffff16565b6000600560019054906101000a900473ffffffffffffffffffffffffffffffffffffffff1673ffffffffffffffffffffffffffffffffffffffff166370a08231306040518263ffffffff1660e01b8152600401808273ffffffffffffffffffffffffffffffffffffffff1673ffffffffffffffffffffffffffffffffffffffff16815260200191505060206040518083038186803b158015611ad657600080fd5b505afa158015611aea573d6000803e3d6000fd5b505050506040513d6020811015611b0057600080fd5b81019080805190602001909291905050509050611b26828261275790919063ffffffff16565b935060008090506000611b37610b9d565b1415611b4557849050611b74565b611b7184611b63611b54610b9d565b886124cf90919063ffffffff16565b61255590919063ffffffff16565b90505b611b7e338261292f565b5050505050565b6000600860009054906101000a900473ffffffffffffffffffffffffffffffffffffffff1673ffffffffffffffffffffffffffffffffffffffff163373ffffffffffffffffffffffffffffffffffffffff1614611c4a576040517f08c379a000000000000000000000000000000000000000000000000000000000815260040180806020018281038252600b8152602001807f21636f6e74726f6c6c657200000000000000000000000000000000000000000081525060200191505060405180910390fd5b6000611c546111a1565b9050611cc5600860009054906101000a900473ffffffffffffffffffffffffffffffffffffffff1682600560019054906101000a900473ffffffffffffffffffffffffffffffffffffffff1673ffffffffffffffffffffffffffffffffffffffff16611e899092919063ffffffff16565b8091505090565b6000600160008473ffffffffffffffffffffffffffffffffffffffff1673ffffffffffffffffffffffffffffffffffffffff16815260200190815260200160002060008373ffffffffffffffffffffffffffffffffffffffff1673ffffffffffffffffffffffffffffffffffffffff16815260200190815260200160002054905092915050565b611e35600560019054906101000a900473ffffffffffffffffffffffffffffffffffffffff1673ffffffffffffffffffffffffffffffffffffffff166370a08231336040518263ffffffff1660e01b8152600401808273ffffffffffffffffffffffffffffffffffffffff1673ffffffffffffffffffffffffffffffffffffffff16815260200191505060206040518083038186803b158015611df557600080fd5b505afa158015611e09573d6000803e3d6000fd5b505050506040513d6020811015611e1f57600080fd5b81019080805190602001909291905050506118fc565b565b600860009054906101000a900473ffffffffffffffffffffffffffffffffffffffff1681565b60065481565b600560019054906101000a900473ffffffffffffffffffffffffffffffffffffffff1681565b611f55838473ffffffffffffffffffffffffffffffffffffffff1663a9059cbb905060e01b8484604051602401808373ffffffffffffffffffffffffffffffffffffffff1673ffffffffffffffffffffffffffffffffffffffff16815260200182815260200192505050604051602081830303815290604052907bffffffffffffffffffffffffffffffffffffffffffffffffffffffff19166020820180517bffffffffffffffffffffffffffffffffffffffffffffffffffffffff8381831617835250505050612aea565b505050565b600033905090565b600073ffffffffffffffffffffffffffffffffffffffff168373ffffffffffffffffffffffffffffffffffffffff161415611fe8576040517f08c379a0000000000000000000000000000000000000000000000000000000008152600401808060200182810382526024815260200180612f636024913960400191505060405180910390fd5b600073ffffffffffffffffffffffffffffffffffffffff168273ffffffffffffffffffffffffffffffffffffffff16141561206e576040517f08c379a0000000000000000000000000000000000000000000000000000000008152600401808060200182810382526022815260200180612e8c6022913960400191505060405180910390fd5b80600160008573ffffffffffffffffffffffffffffffffffffffff1673ffffffffffffffffffffffffffffffffffffffff16815260200190815260200160002060008473ffffffffffffffffffffffffffffffffffffffff1673ffffffffffffffffffffffffffffffffffffffff168152602001908152602001600020819055508173ffffffffffffffffffffffffffffffffffffffff168373ffffffffffffffffffffffffffffffffffffffff167f8c5be1e5ebec7d5bd14f71427d1e84f3dd0314c0f7b2291e5b200ac8c7c3b925836040518082815260200191505060405180910390a3505050565b600073ffffffffffffffffffffffffffffffffffffffff168373ffffffffffffffffffffffffffffffffffffffff1614156121df576040517f08c379a0000000000000000000000000000000000000000000000000000000008152600401808060200182810382526025815260200180612f3e6025913960400191505060405180910390fd5b600073ffffffffffffffffffffffffffffffffffffffff168273ffffffffffffffffffffffffffffffffffffffff161415612265576040517f08c379a0000000000000000000000000000000000000000000000000000000008152600401808060200182810382526023815260200180612e476023913960400191505060405180910390fd5b6122d081604051806060016040528060268152602001612eae602691396000808773ffffffffffffffffffffffffffffffffffffffff1673ffffffffffffffffffffffffffffffffffffffff1681526020019081526020016000205461240f9092919063ffffffff16565b6000808573ffffffffffffffffffffffffffffffffffffffff1673ffffffffffffffffffffffffffffffffffffffff16815260200190815260200160002081905550612363816000808573ffffffffffffffffffffffffffffffffffffffff1673ffffffffffffffffffffffffffffffffffffffff168152602001908152602001600020546127a190919063ffffffff16565b6000808473ffffffffffffffffffffffffffffffffffffffff1673ffffffffffffffffffffffffffffffffffffffff168152602001908152602001600020819055508173ffffffffffffffffffffffffffffffffffffffff168373ffffffffffffffffffffffffffffffffffffffff167fddf252ad1be2c89b69c2b068fc378daa952ba7f163c4a11628f55a4df523b3ef836040518082815260200191505060405180910390a3505050565b60008383111582906124bc576040517f08c379a00000000000000000000000000000000000000000000000000000000081526004018080602001828103825283818151815260200191508051906020019080838360005b83811015612481578082015181840152602081019050612466565b50505050905090810190601f1680156124ae5780820380516001836020036101000a031916815260200191505b509250505060405180910390fd5b5060008385039050809150509392505050565b6000808314156124e2576000905061254f565b60008284029050828482816124f357fe5b041461254a576040517f08c379a0000000000000000000000000000000000000000000000000000000008152600401808060200182810382526021815260200180612ed46021913960400191505060405180910390fd5b809150505b92915050565b600061259783836040518060400160405280601a81526020017f536166654d6174683a206469766973696f6e206279207a65726f000000000000815250612d35565b905092915050565b600073ffffffffffffffffffffffffffffffffffffffff168273ffffffffffffffffffffffffffffffffffffffff161415612625576040517f08c379a0000000000000000000000000000000000000000000000000000000008152600401808060200182810382526021815260200180612f1d6021913960400191505060405180910390fd5b61269081604051806060016040528060228152602001612e6a602291396000808673ffffffffffffffffffffffffffffffffffffffff1673ffffffffffffffffffffffffffffffffffffffff1681526020019081526020016000205461240f9092919063ffffffff16565b6000808473ffffffffffffffffffffffffffffffffffffffff1673ffffffffffffffffffffffffffffffffffffffff168152602001908152602001600020819055506126e78160025461275790919063ffffffff16565b600281905550600073ffffffffffffffffffffffffffffffffffffffff168273ffffffffffffffffffffffffffffffffffffffff167fddf252ad1be2c89b69c2b068fc378daa952ba7f163c4a11628f55a4df523b3ef836040518082815260200191505060405180910390a35050565b600061279983836040518060400160405280601e81526020017f536166654d6174683a207375627472616374696f6e206f766572666c6f77000081525061240f565b905092915050565b60008082840190508381101561281f576040517f08c379a000000000000000000000000000000000000000000000000000000000815260040180806020018281038252601b8152602001807f536166654d6174683a206164646974696f6e206f766572666c6f77000000000081525060200191505060405180910390fd5b8091505092915050565b612929848573ffffffffffffffffffffffffffffffffffffffff166323b872dd905060e01b858585604051602401808473ffffffffffffffffffffffffffffffffffffffff1673ffffffffffffffffffffffffffffffffffffffff1681526020018373ffffffffffffffffffffffffffffffffffffffff1673ffffffffffffffffffffffffffffffffffffffff1681526020018281526020019350505050604051602081830303815290604052907bffffffffffffffffffffffffffffffffffffffffffffffffffffffff19166020820180517bffffffffffffffffffffffffffffffffffffffffffffffffffffffff8381831617835250505050612aea565b50505050565b600073ffffffffffffffffffffffffffffffffffffffff168273ffffffffffffffffffffffffffffffffffffffff1614156129d2576040517f08c379a000000000000000000000000000000000000000000000000000000000815260040180806020018281038252601f8152602001807f45524332303a206d696e7420746f20746865207a65726f20616464726573730081525060200191505060405180910390fd5b6129e7816002546127a190919063ffffffff16565b600281905550612a3e816000808573ffffffffffffffffffffffffffffffffffffffff1673ffffffffffffffffffffffffffffffffffffffff168152602001908152602001600020546127a190919063ffffffff16565b6000808473ffffffffffffffffffffffffffffffffffffffff1673ffffffffffffffffffffffffffffffffffffffff168152602001908152602001600020819055508173ffffffffffffffffffffffffffffffffffffffff16600073ffffffffffffffffffffffffffffffffffffffff167fddf252ad1be2c89b69c2b068fc378daa952ba7f163c4a11628f55a4df523b3ef836040518082815260200191505060405180910390a35050565b612b098273ffffffffffffffffffffffffffffffffffffffff16612dfb565b612b7b576040517f08c379a000000000000000000000000000000000000000000000000000000000815260040180806020018281038252601f8152602001807f5361666545524332303a2063616c6c20746f206e6f6e2d636f6e74726163740081525060200191505060405180910390fd5b600060608373ffffffffffffffffffffffffffffffffffffffff16836040518082805190602001908083835b60208310612bca5780518252602082019150602081019050602083039250612ba7565b6001836020036101000a0380198251168184511680821785525050505050509050019150506000604051808303816000865af19150503d8060008114612c2c576040519150601f19603f3d011682016040523d82523d6000602084013e612c31565b606091505b509150915081612ca9576040517f08c379a00000000000000000000000000000000000000000000000000000000081526004018080602001828103825260208152602001807f5361666545524332303a206c6f772d6c6576656c2063616c6c206661696c656481525060200191505060405180910390fd5b600081511115612d2f57808060200190516020811015612cc857600080fd5b8101908080519060200190929190505050612d2e576040517f08c379a000000000000000000000000000000000000000000000000000000000815260040180806020018281038252602a815260200180612f87602a913960400191505060405180910390fd5b5b50505050565b60008083118290612de1576040517f08c379a00000000000000000000000000000000000000000000000000000000081526004018080602001828103825283818151815260200191508051906020019080838360005b83811015612da6578082015181840152602081019050612d8b565b50505050905090810190601f168015612dd35780820380516001836020036101000a031916815260200191505b509250505060405180910390fd5b506000838581612ded57fe5b049050809150509392505050565b60008060007fc5d2460186f7233c927e7db2dcc703c0e500b653ca82273b7bfad8045d85a47060001b9050833f9150808214158015612e3d57506000801b8214155b9250505091905056fe45524332303a207472616e7366657220746f20746865207a65726f206164647265737345524332303a206275726e20616d6f756e7420657863656564732062616c616e636545524332303a20617070726f766520746f20746865207a65726f206164647265737345524332303a207472616e7366657220616d6f756e7420657863656564732062616c616e6365536166654d6174683a206d756c7469706c69636174696f6e206f766572666c6f7745524332303a207472616e7366657220616d6f756e74206578636565647320616c6c6f77616e636545524332303a206275726e2066726f6d20746865207a65726f206164647265737345524332303a207472616e736665722066726f6d20746865207a65726f206164647265737345524332303a20617070726f76652066726f6d20746865207a65726f20616464726573735361666545524332303a204552433230206f7065726174696f6e20646964206e6f74207375636365656445524332303a2064656372656173656420616c6c6f77616e63652062656c6f77207a65726fa265627a7a723158205843db4fbe7bf4514b666c4d9bc3070ed7f6d9e6a510276fdcd8934326f2ce8564736f6c63430005110032",
  "compiler": {
    "name": "solc",
    "version": "0.5.17+commit.d19bba13.Emscripten.clang",
    "optimizer": {
      "enabled": false,
      "runs": 200
    },
    "evmVersion": "istanbul"
  }
}