{
  "contractName": "Controller",
  "abi": [
    {
      "inputs": [
        {
          "internalType": "address",
          "name": "_rewards",
          "type": "address"
        }
      ],
      "payable": false,
      "stateMutability": "nonpayable",
      "type": "constructor"
    },
    {
      "constant": true,
      "inputs": [
        {
          "internalType": "address",
          "name": "",
          "type": "address"
        },
        {
          "internalType": "address",
          "name": "",
          "type": "address"
        }
      ],
      "name": "approvedStrategies",
      "outputs": [
        {
          "internalType": "bool",
          "name": "",
          "type": "bool"
        }
      ],
      "payable": false,
      "stateMutability": "view",
      "type": "function"
    },
    {
      "constant": true,
      "inputs": [
        {
          "internalType": "address",
          "name": "",
          "type": "address"
        },
        {
          "internalType": "address",
          "name": "",
          "type": "address"
        }
      ],
      "name": "converters",
      "outputs": [
        {
          "internalType": "address",
          "name": "",
          "type": "address"
        }
      ],
      "payable": false,
      "stateMutability": "view",
      "type": "function"
    },
    {
      "constant": true,
      "inputs": [],
      "name": "governance",
      "outputs": [
        {
          "internalType": "address",
          "name": "",
          "type": "address"
        }
      ],
      "payable": false,
      "stateMutability": "view",
      "type": "function"
    },
    {
      "constant": true,
      "inputs": [],
      "name": "max",
      "outputs": [
        {
          "internalType": "uint256",
          "name": "",
          "type": "uint256"
        }
      ],
      "payable": false,
      "stateMutability": "view",
      "type": "function"
    },
    {
      "constant": true,
      "inputs": [],
      "name": "onesplit",
      "outputs": [
        {
          "internalType": "address",
          "name": "",
          "type": "address"
        }
      ],
      "payable": false,
      "stateMutability": "view",
      "type": "function"
    },
    {
      "constant": true,
      "inputs": [],
      "name": "rewards",
      "outputs": [
        {
          "internalType": "address",
          "name": "",
          "type": "address"
        }
      ],
      "payable": false,
      "stateMutability": "view",
      "type": "function"
    },
    {
      "constant": true,
      "inputs": [],
      "name": "split",
      "outputs": [
        {
          "internalType": "uint256",
          "name": "",
          "type": "uint256"
        }
      ],
      "payable": false,
      "stateMutability": "view",
      "type": "function"
    },
    {
      "constant": true,
      "inputs": [
        {
          "internalType": "address",
          "name": "",
          "type": "address"
        }
      ],
      "name": "strategies",
      "outputs": [
        {
          "internalType": "address",
          "name": "",
          "type": "address"
        }
      ],
      "payable": false,
      "stateMutability": "view",
      "type": "function"
    },
    {
      "constant": true,
      "inputs": [],
      "name": "strategist",
      "outputs": [
        {
          "internalType": "address",
          "name": "",
          "type": "address"
        }
      ],
      "payable": false,
      "stateMutability": "view",
      "type": "function"
    },
    {
      "constant": true,
      "inputs": [
        {
          "internalType": "address",
          "name": "",
          "type": "address"
        }
      ],
      "name": "vaults",
      "outputs": [
        {
          "internalType": "address",
          "name": "",
          "type": "address"
        }
      ],
      "payable": false,
      "stateMutability": "view",
      "type": "function"
    },
    {
      "constant": false,
      "inputs": [
        {
          "internalType": "address",
          "name": "_rewards",
          "type": "address"
        }
      ],
      "name": "setRewards",
      "outputs": [],
      "payable": false,
      "stateMutability": "nonpayable",
      "type": "function"
    },
    {
      "constant": false,
      "inputs": [
        {
          "internalType": "address",
          "name": "_strategist",
          "type": "address"
        }
      ],
      "name": "setStrategist",
      "outputs": [],
      "payable": false,
      "stateMutability": "nonpayable",
      "type": "function"
    },
    {
      "constant": false,
      "inputs": [
        {
          "internalType": "uint256",
          "name": "_split",
          "type": "uint256"
        }
      ],
      "name": "setSplit",
      "outputs": [],
      "payable": false,
      "stateMutability": "nonpayable",
      "type": "function"
    },
    {
      "constant": false,
      "inputs": [
        {
          "internalType": "address",
          "name": "_onesplit",
          "type": "address"
        }
      ],
      "name": "setOneSplit",
      "outputs": [],
      "payable": false,
      "stateMutability": "nonpayable",
      "type": "function"
    },
    {
      "constant": false,
      "inputs": [
        {
          "internalType": "address",
          "name": "_governance",
          "type": "address"
        }
      ],
      "name": "setGovernance",
      "outputs": [],
      "payable": false,
      "stateMutability": "nonpayable",
      "type": "function"
    },
    {
      "constant": false,
      "inputs": [
        {
          "internalType": "address",
          "name": "_token",
          "type": "address"
        },
        {
          "internalType": "address",
          "name": "_vault",
          "type": "address"
        }
      ],
      "name": "setVault",
      "outputs": [],
      "payable": false,
      "stateMutability": "nonpayable",
      "type": "function"
    },
    {
      "constant": false,
      "inputs": [
        {
          "internalType": "address",
          "name": "_token",
          "type": "address"
        },
        {
          "internalType": "address",
          "name": "_strategy",
          "type": "address"
        }
      ],
      "name": "approveStrategy",
      "outputs": [],
      "payable": false,
      "stateMutability": "nonpayable",
      "type": "function"
    },
    {
      "constant": false,
      "inputs": [
        {
          "internalType": "address",
          "name": "_token",
          "type": "address"
        },
        {
          "internalType": "address",
          "name": "_strategy",
          "type": "address"
        }
      ],
      "name": "revokeStrategy",
      "outputs": [],
      "payable": false,
      "stateMutability": "nonpayable",
      "type": "function"
    },
    {
      "constant": false,
      "inputs": [
        {
          "internalType": "address",
          "name": "_input",
          "type": "address"
        },
        {
          "internalType": "address",
          "name": "_output",
          "type": "address"
        },
        {
          "internalType": "address",
          "name": "_converter",
          "type": "address"
        }
      ],
      "name": "setConverter",
      "outputs": [],
      "payable": false,
      "stateMutability": "nonpayable",
      "type": "function"
    },
    {
      "constant": false,
      "inputs": [
        {
          "internalType": "address",
          "name": "_token",
          "type": "address"
        },
        {
          "internalType": "address",
          "name": "_strategy",
          "type": "address"
        }
      ],
      "name": "setStrategy",
      "outputs": [],
      "payable": false,
      "stateMutability": "nonpayable",
      "type": "function"
    },
    {
      "constant": false,
      "inputs": [
        {
          "internalType": "address",
          "name": "_token",
          "type": "address"
        },
        {
          "internalType": "uint256",
          "name": "_amount",
          "type": "uint256"
        }
      ],
      "name": "earn",
      "outputs": [],
      "payable": false,
      "stateMutability": "nonpayable",
      "type": "function"
    },
    {
      "constant": true,
      "inputs": [
        {
          "internalType": "address",
          "name": "_token",
          "type": "address"
        }
      ],
      "name": "balanceOf",
      "outputs": [
        {
          "internalType": "uint256",
          "name": "",
          "type": "uint256"
        }
      ],
      "payable": false,
      "stateMutability": "view",
      "type": "function"
    },
    {
      "constant": false,
      "inputs": [
        {
          "internalType": "address",
          "name": "_token",
          "type": "address"
        }
      ],
      "name": "withdrawAll",
      "outputs": [],
      "payable": false,
      "stateMutability": "nonpayable",
      "type": "function"
    },
    {
      "constant": false,
      "inputs": [
        {
          "internalType": "address",
          "name": "_token",
          "type": "address"
        },
        {
          "internalType": "uint256",
          "name": "_amount",
          "type": "uint256"
        }
      ],
      "name": "inCaseTokensGetStuck",
      "outputs": [],
      "payable": false,
      "stateMutability": "nonpayable",
      "type": "function"
    },
    {
      "constant": false,
      "inputs": [
        {
          "internalType": "address",
          "name": "_strategy",
          "type": "address"
        },
        {
          "internalType": "address",
          "name": "_token",
          "type": "address"
        }
      ],
      "name": "inCaseStrategyTokenGetStuck",
      "outputs": [],
      "payable": false,
      "stateMutability": "nonpayable",
      "type": "function"
    },
    {
      "constant": true,
      "inputs": [
        {
          "internalType": "address",
          "name": "_strategy",
          "type": "address"
        },
        {
          "internalType": "address",
          "name": "_token",
          "type": "address"
        },
        {
          "internalType": "uint256",
          "name": "parts",
          "type": "uint256"
        }
      ],
      "name": "getExpectedReturn",
      "outputs": [
        {
          "internalType": "uint256",
          "name": "expected",
          "type": "uint256"
        }
      ],
      "payable": false,
      "stateMutability": "view",
      "type": "function"
    },
    {
      "constant": false,
      "inputs": [
        {
          "internalType": "address",
          "name": "_strategy",
          "type": "address"
        },
        {
          "internalType": "address",
          "name": "_token",
          "type": "address"
        },
        {
          "internalType": "uint256",
          "name": "parts",
          "type": "uint256"
        }
      ],
      "name": "yearn",
      "outputs": [],
      "payable": false,
      "stateMutability": "nonpayable",
      "type": "function"
    },
    {
      "constant": false,
      "inputs": [
        {
          "internalType": "address",
          "name": "_token",
          "type": "address"
        },
        {
          "internalType": "uint256",
          "name": "_amount",
          "type": "uint256"
        }
      ],
      "name": "withdraw",
      "outputs": [],
      "payable": false,
      "stateMutability": "nonpayable",
      "type": "function"
    }
  ],
  "bytecode": "0x60806040526101f460085534801561001657600080fd5b50604051613f34380380613f348339818101604052602081101561003957600080fd5b8101908080519060200190929190505050336000806101000a81548173ffffffffffffffffffffffffffffffffffffffff021916908373ffffffffffffffffffffffffffffffffffffffff16021790555033600160006101000a81548173ffffffffffffffffffffffffffffffffffffffff021916908373ffffffffffffffffffffffffffffffffffffffff1602179055507350fda034c0ce7a8f7efdaebda7aa7ca21cc1267e600260006101000a81548173ffffffffffffffffffffffffffffffffffffffff021916908373ffffffffffffffffffffffffffffffffffffffff16021790555080600360006101000a81548173ffffffffffffffffffffffffffffffffffffffff021916908373ffffffffffffffffffffffffffffffffffffffff16021790555050613dc3806101716000396000f3fe608060405234801561001057600080fd5b50600436106101c45760003560e01c8063a1578b6a116100f9578063ccd0631811610097578063f3fef3a311610071578063f3fef3a314610a87578063f712adbb14610ad5578063f765417614610b1f578063fa09e63014610b3d576101c4565b8063ccd063181461091b578063e4f2494d1461099f578063ec38a86214610a43576101c4565b8063b02bf4b9116100d3578063b02bf4b9146107d7578063c494448e14610825578063c6d758cb14610889578063c7b9d530146108d7576101c4565b8063a1578b6a14610693578063a622ee7c1461070f578063ab033ea914610793576101c4565b80636ac5db1911610166578063714ccf7b11610140578063714ccf7b1461053d57806372cb5d97146105a15780638da1df4d146106055780639ec5a89414610649576101c4565b80636ac5db19146104455780636dcd64e51461046357806370a08231146104e5576101c4565b806339ebf823116101a257806339ebf823146102e5578063590bbb60146103695780635aa6e675146103cd578063674e694f14610417576101c4565b806304209f48146101c9578063197baa6d146102375780631fe4a6861461029b575b600080fd5b610235600480360360608110156101df57600080fd5b81019080803573ffffffffffffffffffffffffffffffffffffffff169060200190929190803573ffffffffffffffffffffffffffffffffffffffff16906020019092919080359060200190929190505050610b81565b005b6102996004803603604081101561024d57600080fd5b81019080803573ffffffffffffffffffffffffffffffffffffffff169060200190929190803573ffffffffffffffffffffffffffffffffffffffff169060200190929190505050611568565b005b6102a361171d565b604051808273ffffffffffffffffffffffffffffffffffffffff1673ffffffffffffffffffffffffffffffffffffffff16815260200191505060405180910390f35b610327600480360360208110156102fb57600080fd5b81019080803573ffffffffffffffffffffffffffffffffffffffff169060200190929190505050611743565b604051808273ffffffffffffffffffffffffffffffffffffffff1673ffffffffffffffffffffffffffffffffffffffff16815260200191505060405180910390f35b6103cb6004803603604081101561037f57600080fd5b81019080803573ffffffffffffffffffffffffffffffffffffffff169060200190929190803573ffffffffffffffffffffffffffffffffffffffff169060200190929190505050611776565b005b6103d56118d1565b604051808273ffffffffffffffffffffffffffffffffffffffff1673ffffffffffffffffffffffffffffffffffffffff16815260200191505060405180910390f35b6104436004803603602081101561042d57600080fd5b81019080803590602001909291905050506118f6565b005b61044d6119c2565b6040518082815260200191505060405180910390f35b6104cf6004803603606081101561047957600080fd5b81019080803573ffffffffffffffffffffffffffffffffffffffff169060200190929190803573ffffffffffffffffffffffffffffffffffffffff169060200190929190803590602001909291905050506119c8565b6040518082815260200191505060405180910390f35b610527600480360360208110156104fb57600080fd5b81019080803573ffffffffffffffffffffffffffffffffffffffff169060200190929190505050611ce3565b6040518082815260200191505060405180910390f35b61059f6004803603604081101561055357600080fd5b81019080803573ffffffffffffffffffffffffffffffffffffffff169060200190929190803573ffffffffffffffffffffffffffffffffffffffff169060200190929190505050611dcc565b005b610603600480360360408110156105b757600080fd5b81019080803573ffffffffffffffffffffffffffffffffffffffff169060200190929190803573ffffffffffffffffffffffffffffffffffffffff169060200190929190505050612069565b005b6106476004803603602081101561061b57600080fd5b81019080803573ffffffffffffffffffffffffffffffffffffffff169060200190929190505050612426565b005b61065161252c565b604051808273ffffffffffffffffffffffffffffffffffffffff1673ffffffffffffffffffffffffffffffffffffffff16815260200191505060405180910390f35b6106f5600480360360408110156106a957600080fd5b81019080803573ffffffffffffffffffffffffffffffffffffffff169060200190929190803573ffffffffffffffffffffffffffffffffffffffff169060200190929190505050612552565b604051808215151515815260200191505060405180910390f35b6107516004803603602081101561072557600080fd5b81019080803573ffffffffffffffffffffffffffffffffffffffff169060200190929190505050612581565b604051808273ffffffffffffffffffffffffffffffffffffffff1673ffffffffffffffffffffffffffffffffffffffff16815260200191505060405180910390f35b6107d5600480360360208110156107a957600080fd5b81019080803573ffffffffffffffffffffffffffffffffffffffff1690602001909291905050506125b4565b005b610823600480360360408110156107ed57600080fd5b81019080803573ffffffffffffffffffffffffffffffffffffffff169060200190929190803590602001909291905050506126b9565b005b6108876004803603604081101561083b57600080fd5b81019080803573ffffffffffffffffffffffffffffffffffffffff169060200190929190803573ffffffffffffffffffffffffffffffffffffffff169060200190929190505050612a20565b005b6108d56004803603604081101561089f57600080fd5b81019080803573ffffffffffffffffffffffffffffffffffffffff16906020019092919080359060200190929190505050612b7b565b005b610919600480360360208110156108ed57600080fd5b81019080803573ffffffffffffffffffffffffffffffffffffffff169060200190929190505050612cc4565b005b61099d6004803603606081101561093157600080fd5b81019080803573ffffffffffffffffffffffffffffffffffffffff169060200190929190803573ffffffffffffffffffffffffffffffffffffffff169060200190929190803573ffffffffffffffffffffffffffffffffffffffff169060200190929190505050612dca565b005b610a01600480360360408110156109b557600080fd5b81019080803573ffffffffffffffffffffffffffffffffffffffff169060200190929190803573ffffffffffffffffffffffffffffffffffffffff169060200190929190505050612fa4565b604051808273ffffffffffffffffffffffffffffffffffffffff1673ffffffffffffffffffffffffffffffffffffffff16815260200191505060405180910390f35b610a8560048036036020811015610a5957600080fd5b81019080803573ffffffffffffffffffffffffffffffffffffffff169060200190929190505050612fe6565b005b610ad360048036036040811015610a9d57600080fd5b81019080803573ffffffffffffffffffffffffffffffffffffffff169060200190929190803590602001909291905050506130ec565b005b610add6132ba565b604051808273ffffffffffffffffffffffffffffffffffffffff1673ffffffffffffffffffffffffffffffffffffffff16815260200191505060405180910390f35b610b276132e0565b6040518082815260200191505060405180910390f35b610b7f60048036036020811015610b5357600080fd5b81019080803573ffffffffffffffffffffffffffffffffffffffff1690602001909291905050506132e6565b005b600160009054906101000a900473ffffffffffffffffffffffffffffffffffffffff1673ffffffffffffffffffffffffffffffffffffffff163373ffffffffffffffffffffffffffffffffffffffff161480610c2957506000809054906101000a900473ffffffffffffffffffffffffffffffffffffffff1673ffffffffffffffffffffffffffffffffffffffff163373ffffffffffffffffffffffffffffffffffffffff16145b610c9b576040517f08c379a000000000000000000000000000000000000000000000000000000000815260040180806020018281038252600b8152602001807f21676f7665726e616e636500000000000000000000000000000000000000000081525060200191505060405180910390fd5b60008273ffffffffffffffffffffffffffffffffffffffff166370a08231306040518263ffffffff1660e01b8152600401808273ffffffffffffffffffffffffffffffffffffffff1673ffffffffffffffffffffffffffffffffffffffff16815260200191505060206040518083038186803b158015610d1a57600080fd5b505afa158015610d2e573d6000803e3d6000fd5b505050506040513d6020811015610d4457600080fd5b810190808051906020019092919050505090508373ffffffffffffffffffffffffffffffffffffffff166351cff8d9846040518263ffffffff1660e01b8152600401808273ffffffffffffffffffffffffffffffffffffffff1673ffffffffffffffffffffffffffffffffffffffff168152602001915050600060405180830381600087803b158015610dd657600080fd5b505af1158015610dea573d6000803e3d6000fd5b5050505060008373ffffffffffffffffffffffffffffffffffffffff166370a08231306040518263ffffffff1660e01b8152600401808273ffffffffffffffffffffffffffffffffffffffff1673ffffffffffffffffffffffffffffffffffffffff16815260200191505060206040518083038186803b158015610e6d57600080fd5b505afa158015610e81573d6000803e3d6000fd5b505050506040513d6020811015610e9757600080fd5b8101908080519060200190929190505050905081811115611561576000610ec783836134e690919063ffffffff16565b905060008673ffffffffffffffffffffffffffffffffffffffff16631f1fcd516040518163ffffffff1660e01b815260040160206040518083038186803b158015610f1157600080fd5b505afa158015610f25573d6000803e3d6000fd5b505050506040513d6020811015610f3b57600080fd5b81019080805190602001909291905050509050606060008273ffffffffffffffffffffffffffffffffffffffff166370a08231306040518263ffffffff1660e01b8152600401808273ffffffffffffffffffffffffffffffffffffffff1673ffffffffffffffffffffffffffffffffffffffff16815260200191505060206040518083038186803b158015610fcf57600080fd5b505afa158015610fe3573d6000803e3d6000fd5b505050506040513d6020811015610ff957600080fd5b8101908080519060200190929190505050955061105a600260009054906101000a900473ffffffffffffffffffffffffffffffffffffffff1660008a73ffffffffffffffffffffffffffffffffffffffff166135309092919063ffffffff16565b6110a7600260009054906101000a900473ffffffffffffffffffffffffffffffffffffffff16858a73ffffffffffffffffffffffffffffffffffffffff166135309092919063ffffffff16565b600260009054906101000a900473ffffffffffffffffffffffffffffffffffffffff1673ffffffffffffffffffffffffffffffffffffffff1663085e2c5b8985878b60006040518663ffffffff1660e01b8152600401808673ffffffffffffffffffffffffffffffffffffffff1673ffffffffffffffffffffffffffffffffffffffff1681526020018573ffffffffffffffffffffffffffffffffffffffff1673ffffffffffffffffffffffffffffffffffffffff1681526020018481526020018381526020018281526020019550505050505060006040518083038186803b15801561119357600080fd5b505afa1580156111a7573d6000803e3d6000fd5b505050506040513d6000823e3d601f19601f8201168201806040525060408110156111d157600080fd5b8101908080519060200190929190805160405193929190846401000000008211156111fb57600080fd5b8382019150602082018581111561121157600080fd5b825186602082028301116401000000008211171561122e57600080fd5b8083526020830192505050908051906020019060200280838360005b8381101561126557808201518184015260208101905061124a565b505050509050016040525050508093508192505050600260009054906101000a900473ffffffffffffffffffffffffffffffffffffffff1673ffffffffffffffffffffffffffffffffffffffff1663e2a7515e898587858760006040518763ffffffff1660e01b8152600401808773ffffffffffffffffffffffffffffffffffffffff1673ffffffffffffffffffffffffffffffffffffffff1681526020018673ffffffffffffffffffffffffffffffffffffffff1673ffffffffffffffffffffffffffffffffffffffff16815260200185815260200184815260200180602001838152602001828103825284818151815260200191508051906020019060200280838360005b8381101561138757808201518184015260208101905061136c565b50505050905001975050505050505050602060405180830381600087803b1580156113b157600080fd5b505af11580156113c5573d6000803e3d6000fd5b505050506040513d60208110156113db57600080fd5b8101908080519060200190929190505050508273ffffffffffffffffffffffffffffffffffffffff166370a08231306040518263ffffffff1660e01b8152600401808273ffffffffffffffffffffffffffffffffffffffff1673ffffffffffffffffffffffffffffffffffffffff16815260200191505060206040518083038186803b15801561146a57600080fd5b505afa15801561147e573d6000803e3d6000fd5b505050506040513d602081101561149457600080fd5b810190808051906020019092919050505094508585111561155c576114c286866134e690919063ffffffff16565b935060006114ef6127106114e16008548861375090919063ffffffff16565b6137d690919063ffffffff16565b905061150d8461150883886134e690919063ffffffff16565b6126b9565b61155a600360009054906101000a900473ffffffffffffffffffffffffffffffffffffffff16828673ffffffffffffffffffffffffffffffffffffffff166138209092919063ffffffff16565b505b505050505b5050505050565b600160009054906101000a900473ffffffffffffffffffffffffffffffffffffffff1673ffffffffffffffffffffffffffffffffffffffff163373ffffffffffffffffffffffffffffffffffffffff16148061161057506000809054906101000a900473ffffffffffffffffffffffffffffffffffffffff1673ffffffffffffffffffffffffffffffffffffffff163373ffffffffffffffffffffffffffffffffffffffff16145b611682576040517f08c379a000000000000000000000000000000000000000000000000000000000815260040180806020018281038252600b8152602001807f21676f7665726e616e636500000000000000000000000000000000000000000081525060200191505060405180910390fd5b8173ffffffffffffffffffffffffffffffffffffffff166351cff8d9826040518263ffffffff1660e01b8152600401808273ffffffffffffffffffffffffffffffffffffffff1673ffffffffffffffffffffffffffffffffffffffff168152602001915050600060405180830381600087803b15801561170157600080fd5b505af1158015611715573d6000803e3d6000fd5b505050505050565b600160009054906101000a900473ffffffffffffffffffffffffffffffffffffffff1681565b60056020528060005260406000206000915054906101000a900473ffffffffffffffffffffffffffffffffffffffff1681565b6000809054906101000a900473ffffffffffffffffffffffffffffffffffffffff1673ffffffffffffffffffffffffffffffffffffffff163373ffffffffffffffffffffffffffffffffffffffff1614611838576040517f08c379a000000000000000000000000000000000000000000000000000000000815260040180806020018281038252600b8152602001807f21676f7665726e616e636500000000000000000000000000000000000000000081525060200191505060405180910390fd5b6000600760008473ffffffffffffffffffffffffffffffffffffffff1673ffffffffffffffffffffffffffffffffffffffff16815260200190815260200160002060008373ffffffffffffffffffffffffffffffffffffffff1673ffffffffffffffffffffffffffffffffffffffff16815260200190815260200160002060006101000a81548160ff0219169083151502179055505050565b6000809054906101000a900473ffffffffffffffffffffffffffffffffffffffff1681565b6000809054906101000a900473ffffffffffffffffffffffffffffffffffffffff1673ffffffffffffffffffffffffffffffffffffffff163373ffffffffffffffffffffffffffffffffffffffff16146119b8576040517f08c379a000000000000000000000000000000000000000000000000000000000815260040180806020018281038252600b8152602001807f21676f7665726e616e636500000000000000000000000000000000000000000081525060200191505060405180910390fd5b8060088190555050565b61271081565b6000808373ffffffffffffffffffffffffffffffffffffffff166370a08231866040518263ffffffff1660e01b8152600401808273ffffffffffffffffffffffffffffffffffffffff1673ffffffffffffffffffffffffffffffffffffffff16815260200191505060206040518083038186803b158015611a4857600080fd5b505afa158015611a5c573d6000803e3d6000fd5b505050506040513d6020811015611a7257600080fd5b8101908080519060200190929190505050905060008573ffffffffffffffffffffffffffffffffffffffff16631f1fcd516040518163ffffffff1660e01b815260040160206040518083038186803b158015611acd57600080fd5b505afa158015611ae1573d6000803e3d6000fd5b505050506040513d6020811015611af757600080fd5b81019080805190602001909291905050509050600260009054906101000a900473ffffffffffffffffffffffffffffffffffffffff1673ffffffffffffffffffffffffffffffffffffffff1663085e2c5b8683858860006040518663ffffffff1660e01b8152600401808673ffffffffffffffffffffffffffffffffffffffff1673ffffffffffffffffffffffffffffffffffffffff1681526020018573ffffffffffffffffffffffffffffffffffffffff1673ffffffffffffffffffffffffffffffffffffffff1681526020018481526020018381526020018281526020019550505050505060006040518083038186803b158015611bf657600080fd5b505afa158015611c0a573d6000803e3d6000fd5b505050506040513d6000823e3d601f19601f820116820180604052506040811015611c3457600080fd5b810190808051906020019092919080516040519392919084640100000000821115611c5e57600080fd5b83820191506020820185811115611c7457600080fd5b8251866020820283011164010000000082111715611c9157600080fd5b8083526020830192505050908051906020019060200280838360005b83811015611cc8578082015181840152602081019050611cad565b50505050905001604052505050508093505050509392505050565b6000600560008373ffffffffffffffffffffffffffffffffffffffff1673ffffffffffffffffffffffffffffffffffffffff16815260200190815260200160002060009054906101000a900473ffffffffffffffffffffffffffffffffffffffff1673ffffffffffffffffffffffffffffffffffffffff1663722713f76040518163ffffffff1660e01b815260040160206040518083038186803b158015611d8a57600080fd5b505afa158015611d9e573d6000803e3d6000fd5b505050506040513d6020811015611db457600080fd5b81019080805190602001909291905050509050919050565b600160009054906101000a900473ffffffffffffffffffffffffffffffffffffffff1673ffffffffffffffffffffffffffffffffffffffff163373ffffffffffffffffffffffffffffffffffffffff161480611e7457506000809054906101000a900473ffffffffffffffffffffffffffffffffffffffff1673ffffffffffffffffffffffffffffffffffffffff163373ffffffffffffffffffffffffffffffffffffffff16145b611ee6576040517f08c379a000000000000000000000000000000000000000000000000000000000815260040180806020018281038252600b8152602001807f217374726174656769737400000000000000000000000000000000000000000081525060200191505060405180910390fd5b600073ffffffffffffffffffffffffffffffffffffffff16600460008473ffffffffffffffffffffffffffffffffffffffff1673ffffffffffffffffffffffffffffffffffffffff16815260200190815260200160002060009054906101000a900473ffffffffffffffffffffffffffffffffffffffff1673ffffffffffffffffffffffffffffffffffffffff1614611fe7576040517f08c379a00000000000000000000000000000000000000000000000000000000081526004018080602001828103825260058152602001807f7661756c7400000000000000000000000000000000000000000000000000000081525060200191505060405180910390fd5b80600460008473ffffffffffffffffffffffffffffffffffffffff1673ffffffffffffffffffffffffffffffffffffffff16815260200190815260200160002060006101000a81548173ffffffffffffffffffffffffffffffffffffffff021916908373ffffffffffffffffffffffffffffffffffffffff1602179055505050565b600160009054906101000a900473ffffffffffffffffffffffffffffffffffffffff1673ffffffffffffffffffffffffffffffffffffffff163373ffffffffffffffffffffffffffffffffffffffff16148061211157506000809054906101000a900473ffffffffffffffffffffffffffffffffffffffff1673ffffffffffffffffffffffffffffffffffffffff163373ffffffffffffffffffffffffffffffffffffffff16145b612183576040517f08c379a000000000000000000000000000000000000000000000000000000000815260040180806020018281038252600b8152602001807f217374726174656769737400000000000000000000000000000000000000000081525060200191505060405180910390fd5b60011515600760008473ffffffffffffffffffffffffffffffffffffffff1673ffffffffffffffffffffffffffffffffffffffff16815260200190815260200160002060008373ffffffffffffffffffffffffffffffffffffffff1673ffffffffffffffffffffffffffffffffffffffff16815260200190815260200160002060009054906101000a900460ff16151514612286576040517f08c379a00000000000000000000000000000000000000000000000000000000081526004018080602001828103825260098152602001807f21617070726f766564000000000000000000000000000000000000000000000081525060200191505060405180910390fd5b6000600560008473ffffffffffffffffffffffffffffffffffffffff1673ffffffffffffffffffffffffffffffffffffffff16815260200190815260200160002060009054906101000a900473ffffffffffffffffffffffffffffffffffffffff169050600073ffffffffffffffffffffffffffffffffffffffff168173ffffffffffffffffffffffffffffffffffffffff16146123a3578073ffffffffffffffffffffffffffffffffffffffff1663853828b66040518163ffffffff1660e01b8152600401602060405180830381600087803b15801561236657600080fd5b505af115801561237a573d6000803e3d6000fd5b505050506040513d602081101561239057600080fd5b8101908080519060200190929190505050505b81600560008573ffffffffffffffffffffffffffffffffffffffff1673ffffffffffffffffffffffffffffffffffffffff16815260200190815260200160002060006101000a81548173ffffffffffffffffffffffffffffffffffffffff021916908373ffffffffffffffffffffffffffffffffffffffff160217905550505050565b6000809054906101000a900473ffffffffffffffffffffffffffffffffffffffff1673ffffffffffffffffffffffffffffffffffffffff163373ffffffffffffffffffffffffffffffffffffffff16146124e8576040517f08c379a000000000000000000000000000000000000000000000000000000000815260040180806020018281038252600b8152602001807f21676f7665726e616e636500000000000000000000000000000000000000000081525060200191505060405180910390fd5b80600260006101000a81548173ffffffffffffffffffffffffffffffffffffffff021916908373ffffffffffffffffffffffffffffffffffffffff16021790555050565b600360009054906101000a900473ffffffffffffffffffffffffffffffffffffffff1681565b60076020528160005260406000206020528060005260406000206000915091509054906101000a900460ff1681565b60046020528060005260406000206000915054906101000a900473ffffffffffffffffffffffffffffffffffffffff1681565b6000809054906101000a900473ffffffffffffffffffffffffffffffffffffffff1673ffffffffffffffffffffffffffffffffffffffff163373ffffffffffffffffffffffffffffffffffffffff1614612676576040517f08c379a000000000000000000000000000000000000000000000000000000000815260040180806020018281038252600b8152602001807f21676f7665726e616e636500000000000000000000000000000000000000000081525060200191505060405180910390fd5b806000806101000a81548173ffffffffffffffffffffffffffffffffffffffff021916908373ffffffffffffffffffffffffffffffffffffffff16021790555050565b6000600560008473ffffffffffffffffffffffffffffffffffffffff1673ffffffffffffffffffffffffffffffffffffffff16815260200190815260200160002060009054906101000a900473ffffffffffffffffffffffffffffffffffffffff16905060008173ffffffffffffffffffffffffffffffffffffffff16631f1fcd516040518163ffffffff1660e01b815260040160206040518083038186803b15801561276557600080fd5b505afa158015612779573d6000803e3d6000fd5b505050506040513d602081101561278f57600080fd5b810190808051906020019092919050505090508373ffffffffffffffffffffffffffffffffffffffff168173ffffffffffffffffffffffffffffffffffffffff161461298e576000600660008673ffffffffffffffffffffffffffffffffffffffff1673ffffffffffffffffffffffffffffffffffffffff16815260200190815260200160002060008373ffffffffffffffffffffffffffffffffffffffff1673ffffffffffffffffffffffffffffffffffffffff16815260200190815260200160002060009054906101000a900473ffffffffffffffffffffffffffffffffffffffff1690506128a181858773ffffffffffffffffffffffffffffffffffffffff166138209092919063ffffffff16565b8073ffffffffffffffffffffffffffffffffffffffff1663def2489b846040518263ffffffff1660e01b8152600401808273ffffffffffffffffffffffffffffffffffffffff1673ffffffffffffffffffffffffffffffffffffffff168152602001915050602060405180830381600087803b15801561292057600080fd5b505af1158015612934573d6000803e3d6000fd5b505050506040513d602081101561294a57600080fd5b8101908080519060200190929190505050935061298883858473ffffffffffffffffffffffffffffffffffffffff166138209092919063ffffffff16565b506129ba565b6129b982848673ffffffffffffffffffffffffffffffffffffffff166138209092919063ffffffff16565b5b8173ffffffffffffffffffffffffffffffffffffffff1663d0e30db06040518163ffffffff1660e01b8152600401600060405180830381600087803b158015612a0257600080fd5b505af1158015612a16573d6000803e3d6000fd5b5050505050505050565b6000809054906101000a900473ffffffffffffffffffffffffffffffffffffffff1673ffffffffffffffffffffffffffffffffffffffff163373ffffffffffffffffffffffffffffffffffffffff1614612ae2576040517f08c379a000000000000000000000000000000000000000000000000000000000815260040180806020018281038252600b8152602001807f21676f7665726e616e636500000000000000000000000000000000000000000081525060200191505060405180910390fd5b6001600760008473ffffffffffffffffffffffffffffffffffffffff1673ffffffffffffffffffffffffffffffffffffffff16815260200190815260200160002060008373ffffffffffffffffffffffffffffffffffffffff1673ffffffffffffffffffffffffffffffffffffffff16815260200190815260200160002060006101000a81548160ff0219169083151502179055505050565b600160009054906101000a900473ffffffffffffffffffffffffffffffffffffffff1673ffffffffffffffffffffffffffffffffffffffff163373ffffffffffffffffffffffffffffffffffffffff161480612c2357506000809054906101000a900473ffffffffffffffffffffffffffffffffffffffff1673ffffffffffffffffffffffffffffffffffffffff163373ffffffffffffffffffffffffffffffffffffffff16145b612c95576040517f08c379a000000000000000000000000000000000000000000000000000000000815260040180806020018281038252600b8152602001807f21676f7665726e616e636500000000000000000000000000000000000000000081525060200191505060405180910390fd5b612cc033828473ffffffffffffffffffffffffffffffffffffffff166138209092919063ffffffff16565b5050565b6000809054906101000a900473ffffffffffffffffffffffffffffffffffffffff1673ffffffffffffffffffffffffffffffffffffffff163373ffffffffffffffffffffffffffffffffffffffff1614612d86576040517f08c379a000000000000000000000000000000000000000000000000000000000815260040180806020018281038252600b8152602001807f21676f7665726e616e636500000000000000000000000000000000000000000081525060200191505060405180910390fd5b80600160006101000a81548173ffffffffffffffffffffffffffffffffffffffff021916908373ffffffffffffffffffffffffffffffffffffffff16021790555050565b600160009054906101000a900473ffffffffffffffffffffffffffffffffffffffff1673ffffffffffffffffffffffffffffffffffffffff163373ffffffffffffffffffffffffffffffffffffffff161480612e7257506000809054906101000a900473ffffffffffffffffffffffffffffffffffffffff1673ffffffffffffffffffffffffffffffffffffffff163373ffffffffffffffffffffffffffffffffffffffff16145b612ee4576040517f08c379a000000000000000000000000000000000000000000000000000000000815260040180806020018281038252600b8152602001807f217374726174656769737400000000000000000000000000000000000000000081525060200191505060405180910390fd5b80600660008573ffffffffffffffffffffffffffffffffffffffff1673ffffffffffffffffffffffffffffffffffffffff16815260200190815260200160002060008473ffffffffffffffffffffffffffffffffffffffff1673ffffffffffffffffffffffffffffffffffffffff16815260200190815260200160002060006101000a81548173ffffffffffffffffffffffffffffffffffffffff021916908373ffffffffffffffffffffffffffffffffffffffff160217905550505050565b60066020528160005260406000206020528060005260406000206000915091509054906101000a900473ffffffffffffffffffffffffffffffffffffffff1681565b6000809054906101000a900473ffffffffffffffffffffffffffffffffffffffff1673ffffffffffffffffffffffffffffffffffffffff163373ffffffffffffffffffffffffffffffffffffffff16146130a8576040517f08c379a000000000000000000000000000000000000000000000000000000000815260040180806020018281038252600b8152602001807f21676f7665726e616e636500000000000000000000000000000000000000000081525060200191505060405180910390fd5b80600360006101000a81548173ffffffffffffffffffffffffffffffffffffffff021916908373ffffffffffffffffffffffffffffffffffffffff16021790555050565b600460008373ffffffffffffffffffffffffffffffffffffffff1673ffffffffffffffffffffffffffffffffffffffff16815260200190815260200160002060009054906101000a900473ffffffffffffffffffffffffffffffffffffffff1673ffffffffffffffffffffffffffffffffffffffff163373ffffffffffffffffffffffffffffffffffffffff16146131ec576040517f08c379a00000000000000000000000000000000000000000000000000000000081526004018080602001828103825260068152602001807f217661756c74000000000000000000000000000000000000000000000000000081525060200191505060405180910390fd5b600560008373ffffffffffffffffffffffffffffffffffffffff1673ffffffffffffffffffffffffffffffffffffffff16815260200190815260200160002060009054906101000a900473ffffffffffffffffffffffffffffffffffffffff1673ffffffffffffffffffffffffffffffffffffffff16632e1a7d4d826040518263ffffffff1660e01b815260040180828152602001915050600060405180830381600087803b15801561329e57600080fd5b505af11580156132b2573d6000803e3d6000fd5b505050505050565b600260009054906101000a900473ffffffffffffffffffffffffffffffffffffffff1681565b60085481565b600160009054906101000a900473ffffffffffffffffffffffffffffffffffffffff1673ffffffffffffffffffffffffffffffffffffffff163373ffffffffffffffffffffffffffffffffffffffff16148061338e57506000809054906101000a900473ffffffffffffffffffffffffffffffffffffffff1673ffffffffffffffffffffffffffffffffffffffff163373ffffffffffffffffffffffffffffffffffffffff16145b613400576040517f08c379a000000000000000000000000000000000000000000000000000000000815260040180806020018281038252600b8152602001807f217374726174656769737400000000000000000000000000000000000000000081525060200191505060405180910390fd5b600560008273ffffffffffffffffffffffffffffffffffffffff1673ffffffffffffffffffffffffffffffffffffffff16815260200190815260200160002060009054906101000a900473ffffffffffffffffffffffffffffffffffffffff1673ffffffffffffffffffffffffffffffffffffffff1663853828b66040518163ffffffff1660e01b8152600401602060405180830381600087803b1580156134a757600080fd5b505af11580156134bb573d6000803e3d6000fd5b505050506040513d60208110156134d157600080fd5b81019080805190602001909291905050505050565b600061352883836040518060400160405280601e81526020017f536166654d6174683a207375627472616374696f6e206f766572666c6f7700008152506138f1565b905092915050565b600081148061362a575060008373ffffffffffffffffffffffffffffffffffffffff1663dd62ed3e30856040518363ffffffff1660e01b8152600401808373ffffffffffffffffffffffffffffffffffffffff1673ffffffffffffffffffffffffffffffffffffffff1681526020018273ffffffffffffffffffffffffffffffffffffffff1673ffffffffffffffffffffffffffffffffffffffff1681526020019250505060206040518083038186803b1580156135ed57600080fd5b505afa158015613601573d6000803e3d6000fd5b505050506040513d602081101561361757600080fd5b8101908080519060200190929190505050145b61367f576040517f08c379a0000000000000000000000000000000000000000000000000000000008152600401808060200182810382526036815260200180613d596036913960400191505060405180910390fd5b61374b838473ffffffffffffffffffffffffffffffffffffffff1663095ea7b3905060e01b8484604051602401808373ffffffffffffffffffffffffffffffffffffffff1673ffffffffffffffffffffffffffffffffffffffff16815260200182815260200192505050604051602081830303815290604052907bffffffffffffffffffffffffffffffffffffffffffffffffffffffff19166020820180517bffffffffffffffffffffffffffffffffffffffffffffffffffffffff83818316178352505050506139b1565b505050565b60008083141561376357600090506137d0565b600082840290508284828161377457fe5b04146137cb576040517f08c379a0000000000000000000000000000000000000000000000000000000008152600401808060200182810382526021815260200180613d0e6021913960400191505060405180910390fd5b809150505b92915050565b600061381883836040518060400160405280601a81526020017f536166654d6174683a206469766973696f6e206279207a65726f000000000000815250613bfc565b905092915050565b6138ec838473ffffffffffffffffffffffffffffffffffffffff1663a9059cbb905060e01b8484604051602401808373ffffffffffffffffffffffffffffffffffffffff1673ffffffffffffffffffffffffffffffffffffffff16815260200182815260200192505050604051602081830303815290604052907bffffffffffffffffffffffffffffffffffffffffffffffffffffffff19166020820180517bffffffffffffffffffffffffffffffffffffffffffffffffffffffff83818316178352505050506139b1565b505050565b600083831115829061399e576040517f08c379a00000000000000000000000000000000000000000000000000000000081526004018080602001828103825283818151815260200191508051906020019080838360005b83811015613963578082015181840152602081019050613948565b50505050905090810190601f1680156139905780820380516001836020036101000a031916815260200191505b509250505060405180910390fd5b5060008385039050809150509392505050565b6139d08273ffffffffffffffffffffffffffffffffffffffff16613cc2565b613a42576040517f08c379a000000000000000000000000000000000000000000000000000000000815260040180806020018281038252601f8152602001807f5361666545524332303a2063616c6c20746f206e6f6e2d636f6e74726163740081525060200191505060405180910390fd5b600060608373ffffffffffffffffffffffffffffffffffffffff16836040518082805190602001908083835b60208310613a915780518252602082019150602081019050602083039250613a6e565b6001836020036101000a0380198251168184511680821785525050505050509050019150506000604051808303816000865af19150503d8060008114613af3576040519150601f19603f3d011682016040523d82523d6000602084013e613af8565b606091505b509150915081613b70576040517f08c379a00000000000000000000000000000000000000000000000000000000081526004018080602001828103825260208152602001807f5361666545524332303a206c6f772d6c6576656c2063616c6c206661696c656481525060200191505060405180910390fd5b600081511115613bf657808060200190516020811015613b8f57600080fd5b8101908080519060200190929190505050613bf5576040517f08c379a000000000000000000000000000000000000000000000000000000000815260040180806020018281038252602a815260200180613d2f602a913960400191505060405180910390fd5b5b50505050565b60008083118290613ca8576040517f08c379a00000000000000000000000000000000000000000000000000000000081526004018080602001828103825283818151815260200191508051906020019080838360005b83811015613c6d578082015181840152602081019050613c52565b50505050905090810190601f168015613c9a5780820380516001836020036101000a031916815260200191505b509250505060405180910390fd5b506000838581613cb457fe5b049050809150509392505050565b60008060007fc5d2460186f7233c927e7db2dcc703c0e500b653ca82273b7bfad8045d85a47060001b9050833f9150808214158015613d0457506000801b8214155b9250505091905056fe536166654d6174683a206d756c7469706c69636174696f6e206f766572666c6f775361666545524332303a204552433230206f7065726174696f6e20646964206e6f7420737563636565645361666545524332303a20617070726f76652066726f6d206e6f6e2d7a65726f20746f206e6f6e2d7a65726f20616c6c6f77616e6365a265627a7a72315820e909c840473bae1c446b470cc2c84eb87fea93dc1db2a607ecb2003762e467ae64736f6c63430005110032",
  "source": "// SPDX-License-Identifier: MIT\n\npragma solidity ^0.5.17;\n\nimport \"@openzeppelin/contracts/token/ERC20/IERC20.sol\";\nimport \"@openzeppelin/contracts/math/SafeMath.sol\";\nimport \"@openzeppelin/contracts/utils/Address.sol\";\nimport \"@openzeppelin/contracts/token/ERC20/SafeERC20.sol\";\n\nimport \"../interfaces/yearn/Converter.sol\";\nimport \"../interfaces/yearn/OneSplitAudit.sol\";\nimport \"../interfaces/yearn/Strategy.sol\";\n\ncontract Controller {\n    using SafeERC20 for IERC20;\n    using Address for address;\n    using SafeMath for uint256;\n\n    address public governance;\n    address public strategist;\n\n    address public onesplit;\n    address public rewards;\n    mapping(address => address) public vaults;\n    mapping(address => address) public strategies;\n    mapping(address => mapping(address => address)) public converters;\n\n    mapping(address => mapping(address => bool)) public approvedStrategies;\n\n    uint256 public split = 500;\n    uint256 public constant max = 10000;\n\n    constructor(address _rewards) public {\n        governance = msg.sender;\n        strategist = msg.sender;\n        onesplit = address(0x50FDA034C0Ce7a8f7EFDAebDA7Aa7cA21CC1267e);\n        rewards = _rewards;\n    }\n\n    function setRewards(address _rewards) public {\n        require(msg.sender == governance, \"!governance\");\n        rewards = _rewards;\n    }\n\n    function setStrategist(address _strategist) public {\n        require(msg.sender == governance, \"!governance\");\n        strategist = _strategist;\n    }\n\n    function setSplit(uint256 _split) public {\n        require(msg.sender == governance, \"!governance\");\n        split = _split;\n    }\n\n    function setOneSplit(address _onesplit) public {\n        require(msg.sender == governance, \"!governance\");\n        onesplit = _onesplit;\n    }\n\n    function setGovernance(address _governance) public {\n        require(msg.sender == governance, \"!governance\");\n        governance = _governance;\n    }\n\n    function setVault(address _token, address _vault) public {\n        require(msg.sender == strategist || msg.sender == governance, \"!strategist\");\n        require(vaults[_token] == address(0), \"vault\");\n        vaults[_token] = _vault;\n    }\n\n    function approveStrategy(address _token, address _strategy) public {\n        require(msg.sender == governance, \"!governance\");\n        approvedStrategies[_token][_strategy] = true;\n    }\n\n    function revokeStrategy(address _token, address _strategy) public {\n        require(msg.sender == governance, \"!governance\");\n        approvedStrategies[_token][_strategy] = false;\n    }\n\n    function setConverter(\n        address _input,\n        address _output,\n        address _converter\n    ) public {\n        require(msg.sender == strategist || msg.sender == governance, \"!strategist\");\n        converters[_input][_output] = _converter;\n    }\n\n    function setStrategy(address _token, address _strategy) public {\n        require(msg.sender == strategist || msg.sender == governance, \"!strategist\");\n        require(approvedStrategies[_token][_strategy] == true, \"!approved\");\n\n        address _current = strategies[_token];\n        if (_current != address(0)) {\n            Strategy(_current).withdrawAll();\n        }\n        strategies[_token] = _strategy;\n    }\n\n    function earn(address _token, uint256 _amount) public {\n        address _strategy = strategies[_token];\n        address _want = Strategy(_strategy).want();\n        if (_want != _token) {\n            address converter = converters[_token][_want];\n            IERC20(_token).safeTransfer(converter, _amount);\n            _amount = Converter(converter).convert(_strategy);\n            IERC20(_want).safeTransfer(_strategy, _amount);\n        } else {\n            IERC20(_token).safeTransfer(_strategy, _amount);\n        }\n        Strategy(_strategy).deposit();\n    }\n\n    function balanceOf(address _token) external view returns (uint256) {\n        return Strategy(strategies[_token]).balanceOf();\n    }\n\n    function withdrawAll(address _token) public {\n        require(msg.sender == strategist || msg.sender == governance, \"!strategist\");\n        Strategy(strategies[_token]).withdrawAll();\n    }\n\n    function inCaseTokensGetStuck(address _token, uint256 _amount) public {\n        require(msg.sender == strategist || msg.sender == governance, \"!governance\");\n        IERC20(_token).safeTransfer(msg.sender, _amount);\n    }\n\n    function inCaseStrategyTokenGetStuck(address _strategy, address _token) public {\n        require(msg.sender == strategist || msg.sender == governance, \"!governance\");\n        Strategy(_strategy).withdraw(_token);\n    }\n\n    function getExpectedReturn(\n        address _strategy,\n        address _token,\n        uint256 parts\n    ) public view returns (uint256 expected) {\n        uint256 _balance = IERC20(_token).balanceOf(_strategy);\n        address _want = Strategy(_strategy).want();\n        (expected, ) = OneSplitAudit(onesplit).getExpectedReturn(_token, _want, _balance, parts, 0);\n    }\n\n    // Only allows to withdraw non-core strategy tokens ~ this is over and above normal yield\n    function yearn(\n        address _strategy,\n        address _token,\n        uint256 parts\n    ) public {\n        require(msg.sender == strategist || msg.sender == governance, \"!governance\");\n        // This contract should never have value in it, but just incase since this is a public call\n        uint256 _before = IERC20(_token).balanceOf(address(this));\n        Strategy(_strategy).withdraw(_token);\n        uint256 _after = IERC20(_token).balanceOf(address(this));\n        if (_after > _before) {\n            uint256 _amount = _after.sub(_before);\n            address _want = Strategy(_strategy).want();\n            uint256[] memory _distribution;\n            uint256 _expected;\n            _before = IERC20(_want).balanceOf(address(this));\n            IERC20(_token).safeApprove(onesplit, 0);\n            IERC20(_token).safeApprove(onesplit, _amount);\n            (_expected, _distribution) = OneSplitAudit(onesplit).getExpectedReturn(_token, _want, _amount, parts, 0);\n            OneSplitAudit(onesplit).swap(_token, _want, _amount, _expected, _distribution, 0);\n            _after = IERC20(_want).balanceOf(address(this));\n            if (_after > _before) {\n                _amount = _after.sub(_before);\n                uint256 _reward = _amount.mul(split).div(max);\n                earn(_want, _amount.sub(_reward));\n                IERC20(_want).safeTransfer(rewards, _reward);\n            }\n        }\n    }\n\n    function withdraw(address _token, uint256 _amount) public {\n        require(msg.sender == vaults[_token], \"!vault\");\n        Strategy(strategies[_token]).withdraw(_amount);\n    }\n}\n",
  "sourcePath": "/Users/bruce/work/defi-project/bulldaoV1/bulldao/contracts/controllers/Controller.sol",
  "compiler": {
    "name": "solc",
    "version": "0.5.17+commit.d19bba13.Linux.g++"
  },
  "schemaVersion": "3.3.0",
  "updatedAt": "2020-11-17T04:24:08.555Z",
  "devdoc": {
    "methods": {}
  },
  "userdoc": {
    "methods": {}
  }
}