{
  "contractName": "StrategyTUSDCurve",
  "abi": [
    {
      "inputs": [
        {
          "internalType": "address",
          "name": "_controller",
          "type": "address"
        },
        {
          "internalType": "address",
          "name": "_yycrv",
          "type": "address"
        }
      ],
      "payable": false,
      "stateMutability": "nonpayable",
      "type": "constructor"
    },
    {
      "constant": true,
      "inputs": [],
      "name": "controller",
      "outputs": [
        {
          "internalType": "address",
          "name": "",
          "type": "address"
        }
      ],
      "payable": false,
      "stateMutability": "view",
      "type": "function"
    },
    {
      "constant": true,
      "inputs": [],
      "name": "curve",
      "outputs": [
        {
          "internalType": "address",
          "name": "",
          "type": "address"
        }
      ],
      "payable": false,
      "stateMutability": "view",
      "type": "function"
    },
    {
      "constant": true,
      "inputs": [],
      "name": "dai",
      "outputs": [
        {
          "internalType": "address",
          "name": "",
          "type": "address"
        }
      ],
      "payable": false,
      "stateMutability": "view",
      "type": "function"
    },
    {
      "constant": true,
      "inputs": [],
      "name": "governance",
      "outputs": [
        {
          "internalType": "address",
          "name": "",
          "type": "address"
        }
      ],
      "payable": false,
      "stateMutability": "view",
      "type": "function"
    },
    {
      "constant": true,
      "inputs": [],
      "name": "tusd",
      "outputs": [
        {
          "internalType": "address",
          "name": "",
          "type": "address"
        }
      ],
      "payable": false,
      "stateMutability": "view",
      "type": "function"
    },
    {
      "constant": true,
      "inputs": [],
      "name": "usdc",
      "outputs": [
        {
          "internalType": "address",
          "name": "",
          "type": "address"
        }
      ],
      "payable": false,
      "stateMutability": "view",
      "type": "function"
    },
    {
      "constant": true,
      "inputs": [],
      "name": "usdt",
      "outputs": [
        {
          "internalType": "address",
          "name": "",
          "type": "address"
        }
      ],
      "payable": false,
      "stateMutability": "view",
      "type": "function"
    },
    {
      "constant": true,
      "inputs": [],
      "name": "want",
      "outputs": [
        {
          "internalType": "address",
          "name": "",
          "type": "address"
        }
      ],
      "payable": false,
      "stateMutability": "view",
      "type": "function"
    },
    {
      "constant": true,
      "inputs": [],
      "name": "y",
      "outputs": [
        {
          "internalType": "address",
          "name": "",
          "type": "address"
        }
      ],
      "payable": false,
      "stateMutability": "view",
      "type": "function"
    },
    {
      "constant": true,
      "inputs": [],
      "name": "ycrv",
      "outputs": [
        {
          "internalType": "address",
          "name": "",
          "type": "address"
        }
      ],
      "payable": false,
      "stateMutability": "view",
      "type": "function"
    },
    {
      "constant": true,
      "inputs": [],
      "name": "ydai",
      "outputs": [
        {
          "internalType": "address",
          "name": "",
          "type": "address"
        }
      ],
      "payable": false,
      "stateMutability": "view",
      "type": "function"
    },
    {
      "constant": true,
      "inputs": [],
      "name": "ytusd",
      "outputs": [
        {
          "internalType": "address",
          "name": "",
          "type": "address"
        }
      ],
      "payable": false,
      "stateMutability": "view",
      "type": "function"
    },
    {
      "constant": true,
      "inputs": [],
      "name": "yusdc",
      "outputs": [
        {
          "internalType": "address",
          "name": "",
          "type": "address"
        }
      ],
      "payable": false,
      "stateMutability": "view",
      "type": "function"
    },
    {
      "constant": true,
      "inputs": [],
      "name": "yusdt",
      "outputs": [
        {
          "internalType": "address",
          "name": "",
          "type": "address"
        }
      ],
      "payable": false,
      "stateMutability": "view",
      "type": "function"
    },
    {
      "constant": true,
      "inputs": [],
      "name": "yycrv",
      "outputs": [
        {
          "internalType": "address",
          "name": "",
          "type": "address"
        }
      ],
      "payable": false,
      "stateMutability": "view",
      "type": "function"
    },
    {
      "constant": true,
      "inputs": [],
      "name": "getName",
      "outputs": [
        {
          "internalType": "string",
          "name": "",
          "type": "string"
        }
      ],
      "payable": false,
      "stateMutability": "pure",
      "type": "function"
    },
    {
      "constant": false,
      "inputs": [],
      "name": "deposit",
      "outputs": [],
      "payable": false,
      "stateMutability": "nonpayable",
      "type": "function"
    },
    {
      "constant": false,
      "inputs": [
        {
          "internalType": "contract IERC20",
          "name": "_asset",
          "type": "address"
        }
      ],
      "name": "withdraw",
      "outputs": [
        {
          "internalType": "uint256",
          "name": "balance",
          "type": "uint256"
        }
      ],
      "payable": false,
      "stateMutability": "nonpayable",
      "type": "function"
    },
    {
      "constant": false,
      "inputs": [
        {
          "internalType": "uint256",
          "name": "_amount",
          "type": "uint256"
        }
      ],
      "name": "withdraw",
      "outputs": [],
      "payable": false,
      "stateMutability": "nonpayable",
      "type": "function"
    },
    {
      "constant": false,
      "inputs": [],
      "name": "withdrawAll",
      "outputs": [
        {
          "internalType": "uint256",
          "name": "balance",
          "type": "uint256"
        }
      ],
      "payable": false,
      "stateMutability": "nonpayable",
      "type": "function"
    },
    {
      "constant": true,
      "inputs": [],
      "name": "balanceOfWant",
      "outputs": [
        {
          "internalType": "uint256",
          "name": "",
          "type": "uint256"
        }
      ],
      "payable": false,
      "stateMutability": "view",
      "type": "function"
    },
    {
      "constant": true,
      "inputs": [],
      "name": "balanceOfYYCRV",
      "outputs": [
        {
          "internalType": "uint256",
          "name": "",
          "type": "uint256"
        }
      ],
      "payable": false,
      "stateMutability": "view",
      "type": "function"
    },
    {
      "constant": true,
      "inputs": [],
      "name": "balanceOfYYCRVinYCRV",
      "outputs": [
        {
          "internalType": "uint256",
          "name": "",
          "type": "uint256"
        }
      ],
      "payable": false,
      "stateMutability": "view",
      "type": "function"
    },
    {
      "constant": true,
      "inputs": [],
      "name": "balanceOfYYCRVinyTUSD",
      "outputs": [
        {
          "internalType": "uint256",
          "name": "",
          "type": "uint256"
        }
      ],
      "payable": false,
      "stateMutability": "view",
      "type": "function"
    },
    {
      "constant": true,
      "inputs": [],
      "name": "balanceOfYCRV",
      "outputs": [
        {
          "internalType": "uint256",
          "name": "",
          "type": "uint256"
        }
      ],
      "payable": false,
      "stateMutability": "view",
      "type": "function"
    },
    {
      "constant": true,
      "inputs": [],
      "name": "balanceOfYCRVyTUSD",
      "outputs": [
        {
          "internalType": "uint256",
          "name": "",
          "type": "uint256"
        }
      ],
      "payable": false,
      "stateMutability": "view",
      "type": "function"
    },
    {
      "constant": true,
      "inputs": [],
      "name": "balanceOf",
      "outputs": [
        {
          "internalType": "uint256",
          "name": "",
          "type": "uint256"
        }
      ],
      "payable": false,
      "stateMutability": "view",
      "type": "function"
    },
    {
      "constant": false,
      "inputs": [
        {
          "internalType": "address",
          "name": "_governance",
          "type": "address"
        }
      ],
      "name": "setGovernance",
      "outputs": [],
      "payable": false,
      "stateMutability": "nonpayable",
      "type": "function"
    },
    {
      "constant": false,
      "inputs": [
        {
          "internalType": "address",
          "name": "_controller",
          "type": "address"
        }
      ],
      "name": "setController",
      "outputs": [],
      "payable": false,
      "stateMutability": "nonpayable",
      "type": "function"
    }
  ],
  "bytecode": "0x608060405234801561001057600080fd5b50604051613f61380380613f618339818101604052604081101561003357600080fd5b81019080805190602001909291908051906020019092919050505033600160006101000a81548173ffffffffffffffffffffffffffffffffffffffff021916908373ffffffffffffffffffffffffffffffffffffffff16021790555081600260006101000a81548173ffffffffffffffffffffffffffffffffffffffff021916908373ffffffffffffffffffffffffffffffffffffffff160217905550806000806101000a81548173ffffffffffffffffffffffffffffffffffffffff021916908373ffffffffffffffffffffffffffffffffffffffff1602179055505050613e40806101216000396000f3fe608060405234801561001057600080fd5b50600436106101cf5760003560e01c806375b5be2d11610104578063c1a3d44c116100a2578063dfb84f6511610071578063dfb84f65146107b9578063f3eb5b3114610803578063f4b9fa7514610821578063f77c47911461086b576101cf565b8063c1a3d44c14610755578063ca6cf00114610773578063d0e30db014610791578063d37c04a71461079b576101cf565b806392eefe9b116100de57806392eefe9b146106655780639752b711146106a9578063a56dfe4a146106c7578063ab033ea914610711576101cf565b806375b5be2d146105df578063853828b6146106295780638c53b38d14610647576101cf565b8063366cd4f311610171578063598f2f501161014b578063598f2f50146104e35780635aa6e6751461052d5780637165485d14610577578063722713f7146105c1576101cf565b8063366cd4f3146103f75780633e413bee1461044157806351cff8d91461048b576101cf565b80632aa05b1a116101ad5780632aa05b1a146102eb5780632e1a7d4d146103355780632f48ab7d1461036357806332bd678f146103ad576101cf565b806317d7de7c146101d457806317e3a3d5146102575780631f1fcd51146102a1575b600080fd5b6101dc6108b5565b6040518080602001828103825283818151815260200191508051906020019080838360005b8381101561021c578082015181840152602081019050610201565b50505050905090810190601f1680156102495780820380516001836020036101000a031916815260200191505b509250505060405180910390f35b61025f6108f2565b604051808273ffffffffffffffffffffffffffffffffffffffff1673ffffffffffffffffffffffffffffffffffffffff16815260200191505060405180910390f35b6102a961090a565b604051808273ffffffffffffffffffffffffffffffffffffffff1673ffffffffffffffffffffffffffffffffffffffff16815260200191505060405180910390f35b6102f361091d565b604051808273ffffffffffffffffffffffffffffffffffffffff1673ffffffffffffffffffffffffffffffffffffffff16815260200191505060405180910390f35b6103616004803603602081101561034b57600080fd5b8101908080359060200190929190505050610935565b005b61036b610ccd565b604051808273ffffffffffffffffffffffffffffffffffffffff1673ffffffffffffffffffffffffffffffffffffffff16815260200191505060405180910390f35b6103b5610ce5565b604051808273ffffffffffffffffffffffffffffffffffffffff1673ffffffffffffffffffffffffffffffffffffffff16815260200191505060405180910390f35b6103ff610cfd565b604051808273ffffffffffffffffffffffffffffffffffffffff1673ffffffffffffffffffffffffffffffffffffffff16815260200191505060405180910390f35b610449610d15565b604051808273ffffffffffffffffffffffffffffffffffffffff1673ffffffffffffffffffffffffffffffffffffffff16815260200191505060405180910390f35b6104cd600480360360208110156104a157600080fd5b81019080803573ffffffffffffffffffffffffffffffffffffffff169060200190929190505050610d2d565b6040518082815260200191505060405180910390f35b6104eb6111de565b604051808273ffffffffffffffffffffffffffffffffffffffff1673ffffffffffffffffffffffffffffffffffffffff16815260200191505060405180910390f35b610535611203565b604051808273ffffffffffffffffffffffffffffffffffffffff1673ffffffffffffffffffffffffffffffffffffffff16815260200191505060405180910390f35b61057f611229565b604051808273ffffffffffffffffffffffffffffffffffffffff1673ffffffffffffffffffffffffffffffffffffffff16815260200191505060405180910390f35b6105c9611241565b6040518082815260200191505060405180910390f35b6105e7611269565b604051808273ffffffffffffffffffffffffffffffffffffffff1673ffffffffffffffffffffffffffffffffffffffff16815260200191505060405180910390f35b61063161127c565b6040518082815260200191505060405180910390f35b61064f6115e0565b6040518082815260200191505060405180910390f35b6106a76004803603602081101561067b57600080fd5b81019080803573ffffffffffffffffffffffffffffffffffffffff1690602001909291905050506116af565b005b6106b16117b6565b6040518082815260200191505060405180910390f35b6106cf611892565b604051808273ffffffffffffffffffffffffffffffffffffffff1673ffffffffffffffffffffffffffffffffffffffff16815260200191505060405180910390f35b6107536004803603602081101561072757600080fd5b81019080803573ffffffffffffffffffffffffffffffffffffffff1690602001909291905050506118aa565b005b61075d6119b1565b6040518082815260200191505060405180910390f35b61077b611a7f565b6040518082815260200191505060405180910390f35b610799611b52565b005b6107a36121c3565b6040518082815260200191505060405180910390f35b6107c1612292565b604051808273ffffffffffffffffffffffffffffffffffffffff1673ffffffffffffffffffffffffffffffffffffffff16815260200191505060405180910390f35b61080b6122aa565b6040518082815260200191505060405180910390f35b61082961238a565b604051808273ffffffffffffffffffffffffffffffffffffffff1673ffffffffffffffffffffffffffffffffffffffff16815260200191505060405180910390f35b6108736123a2565b604051808273ffffffffffffffffffffffffffffffffffffffff1673ffffffffffffffffffffffffffffffffffffffff16815260200191505060405180910390f35b60606040518060400160405280601181526020017f5374726174656779545553444375727665000000000000000000000000000000815250905090565b73df5e0e81dff6faf3a7e52ba697820c5e32d806a881565b6e085d4780b73119b644ae5ecd22b37681565b7373a052500105205d34daf004eab301916da8190f81565b600260009054906101000a900473ffffffffffffffffffffffffffffffffffffffff1673ffffffffffffffffffffffffffffffffffffffff163373ffffffffffffffffffffffffffffffffffffffff16146109f8576040517f08c379a000000000000000000000000000000000000000000000000000000000815260040180806020018281038252600b8152602001807f21636f6e74726f6c6c657200000000000000000000000000000000000000000081525060200191505060405180910390fd5b60006e085d4780b73119b644ae5ecd22b37673ffffffffffffffffffffffffffffffffffffffff166370a08231306040518263ffffffff1660e01b8152600401808273ffffffffffffffffffffffffffffffffffffffff1673ffffffffffffffffffffffffffffffffffffffff16815260200191505060206040518083038186803b158015610a8657600080fd5b505afa158015610a9a573d6000803e3d6000fd5b505050506040513d6020811015610ab057600080fd5b8101908080519060200190929190505050905081811015610afe57610ae6610ae182846123c890919063ffffffff16565b612412565b9150610afb81836127fc90919063ffffffff16565b91505b6000600260009054906101000a900473ffffffffffffffffffffffffffffffffffffffff1673ffffffffffffffffffffffffffffffffffffffff1663a622ee7c6e085d4780b73119b644ae5ecd22b3766040518263ffffffff1660e01b8152600401808273ffffffffffffffffffffffffffffffffffffffff1673ffffffffffffffffffffffffffffffffffffffff16815260200191505060206040518083038186803b158015610bae57600080fd5b505afa158015610bc2573d6000803e3d6000fd5b505050506040513d6020811015610bd857600080fd5b81019080805190602001909291905050509050600073ffffffffffffffffffffffffffffffffffffffff168173ffffffffffffffffffffffffffffffffffffffff161415610c8e576040517f08c379a00000000000000000000000000000000000000000000000000000000081526004018080602001828103825260068152602001807f217661756c74000000000000000000000000000000000000000000000000000081525060200191505060405180910390fd5b610cc881846e085d4780b73119b644ae5ecd22b37673ffffffffffffffffffffffffffffffffffffffff166128849092919063ffffffff16565b505050565b73dac17f958d2ee523a2206206994597c13d831ec781565b73d6ad7a6750a7593e092a9b218d66c0a814a3436e81565b7316de59092dae5ccf4a1e6439d611fd0653f0bd0181565b73a0b86991c6218b36c1d19d4a2e9eb0ce3606eb4881565b6000600260009054906101000a900473ffffffffffffffffffffffffffffffffffffffff1673ffffffffffffffffffffffffffffffffffffffff163373ffffffffffffffffffffffffffffffffffffffff1614610df2576040517f08c379a000000000000000000000000000000000000000000000000000000000815260040180806020018281038252600b8152602001807f21636f6e74726f6c6c657200000000000000000000000000000000000000000081525060200191505060405180910390fd5b8173ffffffffffffffffffffffffffffffffffffffff166e085d4780b73119b644ae5ecd22b37673ffffffffffffffffffffffffffffffffffffffff161415610ea3576040517f08c379a00000000000000000000000000000000000000000000000000000000081526004018080602001828103825260048152602001807f77616e740000000000000000000000000000000000000000000000000000000081525060200191505060405180910390fd5b8173ffffffffffffffffffffffffffffffffffffffff167373a052500105205d34daf004eab301916da8190f73ffffffffffffffffffffffffffffffffffffffff161415610f59576040517f08c379a00000000000000000000000000000000000000000000000000000000081526004018080602001828103825260018152602001807f790000000000000000000000000000000000000000000000000000000000000081525060200191505060405180910390fd5b8173ffffffffffffffffffffffffffffffffffffffff1673df5e0e81dff6faf3a7e52ba697820c5e32d806a873ffffffffffffffffffffffffffffffffffffffff16141561100f576040517f08c379a00000000000000000000000000000000000000000000000000000000081526004018080602001828103825260048152602001807f796372760000000000000000000000000000000000000000000000000000000081525060200191505060405180910390fd5b8173ffffffffffffffffffffffffffffffffffffffff166000809054906101000a900473ffffffffffffffffffffffffffffffffffffffff1673ffffffffffffffffffffffffffffffffffffffff1614156110d2576040517f08c379a00000000000000000000000000000000000000000000000000000000081526004018080602001828103825260058152602001807f797963727600000000000000000000000000000000000000000000000000000081525060200191505060405180910390fd5b8173ffffffffffffffffffffffffffffffffffffffff166370a08231306040518263ffffffff1660e01b8152600401808273ffffffffffffffffffffffffffffffffffffffff1673ffffffffffffffffffffffffffffffffffffffff16815260200191505060206040518083038186803b15801561114f57600080fd5b505afa158015611163573d6000803e3d6000fd5b505050506040513d602081101561117957600080fd5b810190808051906020019092919050505090506111d9600260009054906101000a900473ffffffffffffffffffffffffffffffffffffffff16828473ffffffffffffffffffffffffffffffffffffffff166128849092919063ffffffff16565b919050565b6000809054906101000a900473ffffffffffffffffffffffffffffffffffffffff1681565b600160009054906101000a900473ffffffffffffffffffffffffffffffffffffffff1681565b7345f783cce6b7ff23b2ab2d70e416cdb7d6055f5181565b600061126461124e6121c3565b6112566119b1565b6127fc90919063ffffffff16565b905090565b6e085d4780b73119b644ae5ecd22b37681565b6000600260009054906101000a900473ffffffffffffffffffffffffffffffffffffffff1673ffffffffffffffffffffffffffffffffffffffff163373ffffffffffffffffffffffffffffffffffffffff1614611341576040517f08c379a000000000000000000000000000000000000000000000000000000000815260040180806020018281038252600b8152602001807f21636f6e74726f6c6c657200000000000000000000000000000000000000000081525060200191505060405180910390fd5b611349612955565b6e085d4780b73119b644ae5ecd22b37673ffffffffffffffffffffffffffffffffffffffff166370a08231306040518263ffffffff1660e01b8152600401808273ffffffffffffffffffffffffffffffffffffffff1673ffffffffffffffffffffffffffffffffffffffff16815260200191505060206040518083038186803b1580156113d557600080fd5b505afa1580156113e9573d6000803e3d6000fd5b505050506040513d60208110156113ff57600080fd5b810190808051906020019092919050505090506000600260009054906101000a900473ffffffffffffffffffffffffffffffffffffffff1673ffffffffffffffffffffffffffffffffffffffff1663a622ee7c6e085d4780b73119b644ae5ecd22b3766040518263ffffffff1660e01b8152600401808273ffffffffffffffffffffffffffffffffffffffff1673ffffffffffffffffffffffffffffffffffffffff16815260200191505060206040518083038186803b1580156114c257600080fd5b505afa1580156114d6573d6000803e3d6000fd5b505050506040513d60208110156114ec57600080fd5b81019080805190602001909291905050509050600073ffffffffffffffffffffffffffffffffffffffff168173ffffffffffffffffffffffffffffffffffffffff1614156115a2576040517f08c379a00000000000000000000000000000000000000000000000000000000081526004018080602001828103825260068152602001807f217661756c74000000000000000000000000000000000000000000000000000081525060200191505060405180910390fd5b6115dc81836e085d4780b73119b644ae5ecd22b37673ffffffffffffffffffffffffffffffffffffffff166128849092919063ffffffff16565b5090565b60006116aa670de0b6b3a764000061169c7345f783cce6b7ff23b2ab2d70e416cdb7d6055f5173ffffffffffffffffffffffffffffffffffffffff1663bb7b8b806040518163ffffffff1660e01b815260040160206040518083038186803b15801561164b57600080fd5b505afa15801561165f573d6000803e3d6000fd5b505050506040513d602081101561167557600080fd5b810190808051906020019092919050505061168e611a7f565b612ba090919063ffffffff16565b612c2690919063ffffffff16565b905090565b600160009054906101000a900473ffffffffffffffffffffffffffffffffffffffff1673ffffffffffffffffffffffffffffffffffffffff163373ffffffffffffffffffffffffffffffffffffffff1614611772576040517f08c379a000000000000000000000000000000000000000000000000000000000815260040180806020018281038252600b8152602001807f21676f7665726e616e636500000000000000000000000000000000000000000081525060200191505060405180910390fd5b80600260006101000a81548173ffffffffffffffffffffffffffffffffffffffff021916908373ffffffffffffffffffffffffffffffffffffffff16021790555050565b600061188d670de0b6b3a764000061187f6000809054906101000a900473ffffffffffffffffffffffffffffffffffffffff1673ffffffffffffffffffffffffffffffffffffffff166377c7b8fc6040518163ffffffff1660e01b815260040160206040518083038186803b15801561182e57600080fd5b505afa158015611842573d6000803e3d6000fd5b505050506040513d602081101561185857600080fd5b81019080805190602001909291905050506118716122aa565b612ba090919063ffffffff16565b612c2690919063ffffffff16565b905090565b7373a052500105205d34daf004eab301916da8190f81565b600160009054906101000a900473ffffffffffffffffffffffffffffffffffffffff1673ffffffffffffffffffffffffffffffffffffffff163373ffffffffffffffffffffffffffffffffffffffff161461196d576040517f08c379a000000000000000000000000000000000000000000000000000000000815260040180806020018281038252600b8152602001807f21676f7665726e616e636500000000000000000000000000000000000000000081525060200191505060405180910390fd5b80600160006101000a81548173ffffffffffffffffffffffffffffffffffffffff021916908373ffffffffffffffffffffffffffffffffffffffff16021790555050565b60006e085d4780b73119b644ae5ecd22b37673ffffffffffffffffffffffffffffffffffffffff166370a08231306040518263ffffffff1660e01b8152600401808273ffffffffffffffffffffffffffffffffffffffff1673ffffffffffffffffffffffffffffffffffffffff16815260200191505060206040518083038186803b158015611a3f57600080fd5b505afa158015611a53573d6000803e3d6000fd5b505050506040513d6020811015611a6957600080fd5b8101908080519060200190929190505050905090565b600073df5e0e81dff6faf3a7e52ba697820c5e32d806a873ffffffffffffffffffffffffffffffffffffffff166370a08231306040518263ffffffff1660e01b8152600401808273ffffffffffffffffffffffffffffffffffffffff1673ffffffffffffffffffffffffffffffffffffffff16815260200191505060206040518083038186803b158015611b1257600080fd5b505afa158015611b26573d6000803e3d6000fd5b505050506040513d6020811015611b3c57600080fd5b8101908080519060200190929190505050905090565b60006e085d4780b73119b644ae5ecd22b37673ffffffffffffffffffffffffffffffffffffffff166370a08231306040518263ffffffff1660e01b8152600401808273ffffffffffffffffffffffffffffffffffffffff1673ffffffffffffffffffffffffffffffffffffffff16815260200191505060206040518083038186803b158015611be057600080fd5b505afa158015611bf4573d6000803e3d6000fd5b505050506040513d6020811015611c0a57600080fd5b810190808051906020019092919050505090506000811115611d4357611c757373a052500105205d34daf004eab301916da8190f60006e085d4780b73119b644ae5ecd22b37673ffffffffffffffffffffffffffffffffffffffff16612c709092919063ffffffff16565b611cc37373a052500105205d34daf004eab301916da8190f826e085d4780b73119b644ae5ecd22b37673ffffffffffffffffffffffffffffffffffffffff16612c709092919063ffffffff16565b7373a052500105205d34daf004eab301916da8190f73ffffffffffffffffffffffffffffffffffffffff1663b6b55f25826040518263ffffffff1660e01b815260040180828152602001915050600060405180830381600087803b158015611d2a57600080fd5b505af1158015611d3e573d6000803e3d6000fd5b505050505b60007373a052500105205d34daf004eab301916da8190f73ffffffffffffffffffffffffffffffffffffffff166370a08231306040518263ffffffff1660e01b8152600401808273ffffffffffffffffffffffffffffffffffffffff1673ffffffffffffffffffffffffffffffffffffffff16815260200191505060206040518083038186803b158015611dd657600080fd5b505afa158015611dea573d6000803e3d6000fd5b505050506040513d6020811015611e0057600080fd5b810190808051906020019092919050505090506000811115611f9757611e707345f783cce6b7ff23b2ab2d70e416cdb7d6055f5160007373a052500105205d34daf004eab301916da8190f73ffffffffffffffffffffffffffffffffffffffff16612c709092919063ffffffff16565b611ec37345f783cce6b7ff23b2ab2d70e416cdb7d6055f51827373a052500105205d34daf004eab301916da8190f73ffffffffffffffffffffffffffffffffffffffff16612c709092919063ffffffff16565b7345f783cce6b7ff23b2ab2d70e416cdb7d6055f5173ffffffffffffffffffffffffffffffffffffffff1663029b2f3460405180608001604052806000815260200160008152602001600081526020018481525060006040518363ffffffff1660e01b81526004018083600460200280838360005b83811015611f53578082015181840152602081019050611f38565b5050505090500182815260200192505050600060405180830381600087803b158015611f7e57600080fd5b505af1158015611f92573d6000803e3d6000fd5b505050505b600073df5e0e81dff6faf3a7e52ba697820c5e32d806a873ffffffffffffffffffffffffffffffffffffffff166370a08231306040518263ffffffff1660e01b8152600401808273ffffffffffffffffffffffffffffffffffffffff1673ffffffffffffffffffffffffffffffffffffffff16815260200191505060206040518083038186803b15801561202a57600080fd5b505afa15801561203e573d6000803e3d6000fd5b505050506040513d602081101561205457600080fd5b8101908080519060200190929190505050905060008111156121be576120d16000809054906101000a900473ffffffffffffffffffffffffffffffffffffffff16600073df5e0e81dff6faf3a7e52ba697820c5e32d806a873ffffffffffffffffffffffffffffffffffffffff16612c709092919063ffffffff16565b6121316000809054906101000a900473ffffffffffffffffffffffffffffffffffffffff168273df5e0e81dff6faf3a7e52ba697820c5e32d806a873ffffffffffffffffffffffffffffffffffffffff16612c709092919063ffffffff16565b6000809054906101000a900473ffffffffffffffffffffffffffffffffffffffff1673ffffffffffffffffffffffffffffffffffffffff1663b6b55f25826040518263ffffffff1660e01b815260040180828152602001915050600060405180830381600087803b1580156121a557600080fd5b505af11580156121b9573d6000803e3d6000fd5b505050505b505050565b600061228d670de0b6b3a764000061227f7345f783cce6b7ff23b2ab2d70e416cdb7d6055f5173ffffffffffffffffffffffffffffffffffffffff1663bb7b8b806040518163ffffffff1660e01b815260040160206040518083038186803b15801561222e57600080fd5b505afa158015612242573d6000803e3d6000fd5b505050506040513d602081101561225857600080fd5b81019080805190602001909291905050506122716117b6565b612ba090919063ffffffff16565b612c2690919063ffffffff16565b905090565b7383f798e925bcd4017eb265844fddabb448f1707d81565b60008060009054906101000a900473ffffffffffffffffffffffffffffffffffffffff1673ffffffffffffffffffffffffffffffffffffffff166370a08231306040518263ffffffff1660e01b8152600401808273ffffffffffffffffffffffffffffffffffffffff1673ffffffffffffffffffffffffffffffffffffffff16815260200191505060206040518083038186803b15801561234a57600080fd5b505afa15801561235e573d6000803e3d6000fd5b505050506040513d602081101561237457600080fd5b8101908080519060200190929190505050905090565b736b175474e89094c44da98b954eedeac495271d0f81565b600260009054906101000a900473ffffffffffffffffffffffffffffffffffffffff1681565b600061240a83836040518060400160405280601e81526020017f536166654d6174683a207375627472616374696f6e206f766572666c6f770000815250612e90565b905092915050565b6000806124d67345f783cce6b7ff23b2ab2d70e416cdb7d6055f5173ffffffffffffffffffffffffffffffffffffffff1663bb7b8b806040518163ffffffff1660e01b815260040160206040518083038186803b15801561247257600080fd5b505afa158015612486573d6000803e3d6000fd5b505050506040513d602081101561249c57600080fd5b81019080805190602001909291905050506124c8670de0b6b3a764000086612ba090919063ffffffff16565b612c2690919063ffffffff16565b905060006125a86000809054906101000a900473ffffffffffffffffffffffffffffffffffffffff1673ffffffffffffffffffffffffffffffffffffffff166377c7b8fc6040518163ffffffff1660e01b815260040160206040518083038186803b15801561254457600080fd5b505afa158015612558573d6000803e3d6000fd5b505050506040513d602081101561256e57600080fd5b810190808051906020019092919050505061259a670de0b6b3a764000085612ba090919063ffffffff16565b612c2690919063ffffffff16565b9050600073df5e0e81dff6faf3a7e52ba697820c5e32d806a873ffffffffffffffffffffffffffffffffffffffff166370a08231306040518263ffffffff1660e01b8152600401808273ffffffffffffffffffffffffffffffffffffffff1673ffffffffffffffffffffffffffffffffffffffff16815260200191505060206040518083038186803b15801561263d57600080fd5b505afa158015612651573d6000803e3d6000fd5b505050506040513d602081101561266757600080fd5b810190808051906020019092919050505090506000809054906101000a900473ffffffffffffffffffffffffffffffffffffffff1673ffffffffffffffffffffffffffffffffffffffff16632e1a7d4d836040518263ffffffff1660e01b815260040180828152602001915050600060405180830381600087803b1580156126ee57600080fd5b505af1158015612702573d6000803e3d6000fd5b50505050600073df5e0e81dff6faf3a7e52ba697820c5e32d806a873ffffffffffffffffffffffffffffffffffffffff166370a08231306040518263ffffffff1660e01b8152600401808273ffffffffffffffffffffffffffffffffffffffff1673ffffffffffffffffffffffffffffffffffffffff16815260200191505060206040518083038186803b15801561279957600080fd5b505afa1580156127ad573d6000803e3d6000fd5b505050506040513d60208110156127c357600080fd5b810190808051906020019092919050505090506127f16127ec83836123c890919063ffffffff16565b612f50565b945050505050919050565b60008082840190508381101561287a576040517f08c379a000000000000000000000000000000000000000000000000000000000815260040180806020018281038252601b8152602001807f536166654d6174683a206164646974696f6e206f766572666c6f77000000000081525060200191505060405180910390fd5b8091505092915050565b612950838473ffffffffffffffffffffffffffffffffffffffff1663a9059cbb905060e01b8484604051602401808373ffffffffffffffffffffffffffffffffffffffff1673ffffffffffffffffffffffffffffffffffffffff16815260200182815260200192505050604051602081830303815290604052907bffffffffffffffffffffffffffffffffffffffffffffffffffffffff19166020820180517bffffffffffffffffffffffffffffffffffffffffffffffffffffffff8381831617835250505050613a2e565b505050565b60008060009054906101000a900473ffffffffffffffffffffffffffffffffffffffff1673ffffffffffffffffffffffffffffffffffffffff166370a08231306040518263ffffffff1660e01b8152600401808273ffffffffffffffffffffffffffffffffffffffff1673ffffffffffffffffffffffffffffffffffffffff16815260200191505060206040518083038186803b1580156129f557600080fd5b505afa158015612a09573d6000803e3d6000fd5b505050506040513d6020811015612a1f57600080fd5b810190808051906020019092919050505090506000811115612b9d576000809054906101000a900473ffffffffffffffffffffffffffffffffffffffff1673ffffffffffffffffffffffffffffffffffffffff16632e1a7d4d826040518263ffffffff1660e01b815260040180828152602001915050600060405180830381600087803b158015612aaf57600080fd5b505af1158015612ac3573d6000803e3d6000fd5b50505050612b9b73df5e0e81dff6faf3a7e52ba697820c5e32d806a873ffffffffffffffffffffffffffffffffffffffff166370a08231306040518263ffffffff1660e01b8152600401808273ffffffffffffffffffffffffffffffffffffffff1673ffffffffffffffffffffffffffffffffffffffff16815260200191505060206040518083038186803b158015612b5b57600080fd5b505afa158015612b6f573d6000803e3d6000fd5b505050506040513d6020811015612b8557600080fd5b8101908080519060200190929190505050612f50565b505b50565b600080831415612bb35760009050612c20565b6000828402905082848281612bc457fe5b0414612c1b576040517f08c379a0000000000000000000000000000000000000000000000000000000008152600401808060200182810382526021815260200180613d8b6021913960400191505060405180910390fd5b809150505b92915050565b6000612c6883836040518060400160405280601a81526020017f536166654d6174683a206469766973696f6e206279207a65726f000000000000815250613c79565b905092915050565b6000811480612d6a575060008373ffffffffffffffffffffffffffffffffffffffff1663dd62ed3e30856040518363ffffffff1660e01b8152600401808373ffffffffffffffffffffffffffffffffffffffff1673ffffffffffffffffffffffffffffffffffffffff1681526020018273ffffffffffffffffffffffffffffffffffffffff1673ffffffffffffffffffffffffffffffffffffffff1681526020019250505060206040518083038186803b158015612d2d57600080fd5b505afa158015612d41573d6000803e3d6000fd5b505050506040513d6020811015612d5757600080fd5b8101908080519060200190929190505050145b612dbf576040517f08c379a0000000000000000000000000000000000000000000000000000000008152600401808060200182810382526036815260200180613dd66036913960400191505060405180910390fd5b612e8b838473ffffffffffffffffffffffffffffffffffffffff1663095ea7b3905060e01b8484604051602401808373ffffffffffffffffffffffffffffffffffffffff1673ffffffffffffffffffffffffffffffffffffffff16815260200182815260200192505050604051602081830303815290604052907bffffffffffffffffffffffffffffffffffffffffffffffffffffffff19166020820180517bffffffffffffffffffffffffffffffffffffffffffffffffffffffff8381831617835250505050613a2e565b505050565b6000838311158290612f3d576040517f08c379a00000000000000000000000000000000000000000000000000000000081526004018080602001828103825283818151815260200191508051906020019080838360005b83811015612f02578082015181840152602081019050612ee7565b50505050905090810190601f168015612f2f5780820380516001836020036101000a031916815260200191505b509250505060405180910390fd5b5060008385039050809150509392505050565b6000612fa67345f783cce6b7ff23b2ab2d70e416cdb7d6055f51600073df5e0e81dff6faf3a7e52ba697820c5e32d806a873ffffffffffffffffffffffffffffffffffffffff16612c709092919063ffffffff16565b612ff97345f783cce6b7ff23b2ab2d70e416cdb7d6055f518373df5e0e81dff6faf3a7e52ba697820c5e32d806a873ffffffffffffffffffffffffffffffffffffffff16612c709092919063ffffffff16565b7345f783cce6b7ff23b2ab2d70e416cdb7d6055f5173ffffffffffffffffffffffffffffffffffffffff16637d49d87583604051806080016040528060008152602001600081526020016000815260200160008152506040518363ffffffff1660e01b81526004018083815260200182600460200280838360005b8381101561308f578082015181840152602081019050613074565b5050505090500192505050600060405180830381600087803b1580156130b457600080fd5b505af11580156130c8573d6000803e3d6000fd5b5050505060007316de59092dae5ccf4a1e6439d611fd0653f0bd0173ffffffffffffffffffffffffffffffffffffffff166370a08231306040518263ffffffff1660e01b8152600401808273ffffffffffffffffffffffffffffffffffffffff1673ffffffffffffffffffffffffffffffffffffffff16815260200191505060206040518083038186803b15801561315f57600080fd5b505afa158015613173573d6000803e3d6000fd5b505050506040513d602081101561318957600080fd5b81019080805190602001909291905050509050600073d6ad7a6750a7593e092a9b218d66c0a814a3436e73ffffffffffffffffffffffffffffffffffffffff166370a08231306040518263ffffffff1660e01b8152600401808273ffffffffffffffffffffffffffffffffffffffff1673ffffffffffffffffffffffffffffffffffffffff16815260200191505060206040518083038186803b15801561322f57600080fd5b505afa158015613243573d6000803e3d6000fd5b505050506040513d602081101561325957600080fd5b8101908080519060200190929190505050905060007383f798e925bcd4017eb265844fddabb448f1707d73ffffffffffffffffffffffffffffffffffffffff166370a08231306040518263ffffffff1660e01b8152600401808273ffffffffffffffffffffffffffffffffffffffff1673ffffffffffffffffffffffffffffffffffffffff16815260200191505060206040518083038186803b1580156132ff57600080fd5b505afa158015613313573d6000803e3d6000fd5b505050506040513d602081101561332957600080fd5b81019080805190602001909291905050509050600083111561348d576133997345f783cce6b7ff23b2ab2d70e416cdb7d6055f5160007316de59092dae5ccf4a1e6439d611fd0653f0bd0173ffffffffffffffffffffffffffffffffffffffff16612c709092919063ffffffff16565b6133ec7345f783cce6b7ff23b2ab2d70e416cdb7d6055f51847316de59092dae5ccf4a1e6439d611fd0653f0bd0173ffffffffffffffffffffffffffffffffffffffff16612c709092919063ffffffff16565b7345f783cce6b7ff23b2ab2d70e416cdb7d6055f5173ffffffffffffffffffffffffffffffffffffffff16633df02124600060038660006040518563ffffffff1660e01b81526004018085600f0b815260200184600f0b8152602001838152602001828152602001945050505050600060405180830381600087803b15801561347457600080fd5b505af1158015613488573d6000803e3d6000fd5b505050505b60008211156135de576134ea7345f783cce6b7ff23b2ab2d70e416cdb7d6055f51600073d6ad7a6750a7593e092a9b218d66c0a814a3436e73ffffffffffffffffffffffffffffffffffffffff16612c709092919063ffffffff16565b61353d7345f783cce6b7ff23b2ab2d70e416cdb7d6055f518373d6ad7a6750a7593e092a9b218d66c0a814a3436e73ffffffffffffffffffffffffffffffffffffffff16612c709092919063ffffffff16565b7345f783cce6b7ff23b2ab2d70e416cdb7d6055f5173ffffffffffffffffffffffffffffffffffffffff16633df02124600160038560006040518563ffffffff1660e01b81526004018085600f0b815260200184600f0b8152602001838152602001828152602001945050505050600060405180830381600087803b1580156135c557600080fd5b505af11580156135d9573d6000803e3d6000fd5b505050505b600081111561372f5761363b7345f783cce6b7ff23b2ab2d70e416cdb7d6055f5160007383f798e925bcd4017eb265844fddabb448f1707d73ffffffffffffffffffffffffffffffffffffffff16612c709092919063ffffffff16565b61368e7345f783cce6b7ff23b2ab2d70e416cdb7d6055f51827383f798e925bcd4017eb265844fddabb448f1707d73ffffffffffffffffffffffffffffffffffffffff16612c709092919063ffffffff16565b7345f783cce6b7ff23b2ab2d70e416cdb7d6055f5173ffffffffffffffffffffffffffffffffffffffff16633df02124600260038460006040518563ffffffff1660e01b81526004018085600f0b815260200184600f0b8152602001838152602001828152602001945050505050600060405180830381600087803b15801561371657600080fd5b505af115801561372a573d6000803e3d6000fd5b505050505b60006e085d4780b73119b644ae5ecd22b37673ffffffffffffffffffffffffffffffffffffffff166370a08231306040518263ffffffff1660e01b8152600401808273ffffffffffffffffffffffffffffffffffffffff1673ffffffffffffffffffffffffffffffffffffffff16815260200191505060206040518083038186803b1580156137bd57600080fd5b505afa1580156137d1573d6000803e3d6000fd5b505050506040513d60208110156137e757600080fd5b810190808051906020019092919050505090507373a052500105205d34daf004eab301916da8190f73ffffffffffffffffffffffffffffffffffffffff16632e1a7d4d7373a052500105205d34daf004eab301916da8190f73ffffffffffffffffffffffffffffffffffffffff166370a08231306040518263ffffffff1660e01b8152600401808273ffffffffffffffffffffffffffffffffffffffff1673ffffffffffffffffffffffffffffffffffffffff16815260200191505060206040518083038186803b1580156138bb57600080fd5b505afa1580156138cf573d6000803e3d6000fd5b505050506040513d60208110156138e557600080fd5b81019080805190602001909291905050506040518263ffffffff1660e01b815260040180828152602001915050600060405180830381600087803b15801561392c57600080fd5b505af1158015613940573d6000803e3d6000fd5b5050505060006e085d4780b73119b644ae5ecd22b37673ffffffffffffffffffffffffffffffffffffffff166370a08231306040518263ffffffff1660e01b8152600401808273ffffffffffffffffffffffffffffffffffffffff1673ffffffffffffffffffffffffffffffffffffffff16815260200191505060206040518083038186803b1580156139d257600080fd5b505afa1580156139e6573d6000803e3d6000fd5b505050506040513d60208110156139fc57600080fd5b81019080805190602001909291905050509050613a2282826123c890919063ffffffff16565b95505050505050919050565b613a4d8273ffffffffffffffffffffffffffffffffffffffff16613d3f565b613abf576040517f08c379a000000000000000000000000000000000000000000000000000000000815260040180806020018281038252601f8152602001807f5361666545524332303a2063616c6c20746f206e6f6e2d636f6e74726163740081525060200191505060405180910390fd5b600060608373ffffffffffffffffffffffffffffffffffffffff16836040518082805190602001908083835b60208310613b0e5780518252602082019150602081019050602083039250613aeb565b6001836020036101000a0380198251168184511680821785525050505050509050019150506000604051808303816000865af19150503d8060008114613b70576040519150601f19603f3d011682016040523d82523d6000602084013e613b75565b606091505b509150915081613bed576040517f08c379a00000000000000000000000000000000000000000000000000000000081526004018080602001828103825260208152602001807f5361666545524332303a206c6f772d6c6576656c2063616c6c206661696c656481525060200191505060405180910390fd5b600081511115613c7357808060200190516020811015613c0c57600080fd5b8101908080519060200190929190505050613c72576040517f08c379a000000000000000000000000000000000000000000000000000000000815260040180806020018281038252602a815260200180613dac602a913960400191505060405180910390fd5b5b50505050565b60008083118290613d25576040517f08c379a00000000000000000000000000000000000000000000000000000000081526004018080602001828103825283818151815260200191508051906020019080838360005b83811015613cea578082015181840152602081019050613ccf565b50505050905090810190601f168015613d175780820380516001836020036101000a031916815260200191505b509250505060405180910390fd5b506000838581613d3157fe5b049050809150509392505050565b60008060007fc5d2460186f7233c927e7db2dcc703c0e500b653ca82273b7bfad8045d85a47060001b9050833f9150808214158015613d8157506000801b8214155b9250505091905056fe536166654d6174683a206d756c7469706c69636174696f6e206f766572666c6f775361666545524332303a204552433230206f7065726174696f6e20646964206e6f7420737563636565645361666545524332303a20617070726f76652066726f6d206e6f6e2d7a65726f20746f206e6f6e2d7a65726f20616c6c6f77616e6365a265627a7a723158205ba0ad19f6a43d3fefcca255661b477069d770c0f69f58185986bd1117bbfb8d64736f6c63430005110032",
  "source": "// SPDX-License-Identifier: MIT\n\npragma solidity ^0.5.17;\n\nimport \"@openzeppelin/contracts/token/ERC20/IERC20.sol\";\nimport \"@openzeppelin/contracts/math/SafeMath.sol\";\nimport \"@openzeppelin/contracts/utils/Address.sol\";\nimport \"@openzeppelin/contracts/token/ERC20/SafeERC20.sol\";\n\nimport \"../interfaces/curve/Curve.sol\";\nimport \"../interfaces/uniswap/Uni.sol\";\nimport \"../interfaces/curve/Mintr.sol\";\n\nimport \"../interfaces/yearn/IController.sol\";\nimport \"../interfaces/yearn/Token.sol\";\n\ncontract StrategyTUSDCurve {\n    using SafeERC20 for IERC20;\n    using Address for address;\n    using SafeMath for uint256;\n\n    address public constant want = address(0x0000000000085d4780B73119b644AE5ecd22b376);\n    address public constant y = address(0x73a052500105205d34Daf004eAb301916DA8190f);\n    address public constant ycrv = address(0xdF5e0e81Dff6FAF3A7e52BA697820c5e32D806A8);\n    address public yycrv;\n    address public constant curve = address(0x45F783CCE6B7FF23B2ab2D70e416cdb7D6055f51);\n\n    address public constant dai = address(0x6B175474E89094C44Da98b954EedeAC495271d0F);\n    address public constant ydai = address(0x16de59092dAE5CcF4A1E6439D611fd0653f0Bd01);\n\n    address public constant usdc = address(0xA0b86991c6218b36c1d19D4a2e9Eb0cE3606eB48);\n    address public constant yusdc = address(0xd6aD7a6750A7593E092a9B218d66C0A814a3436e);\n\n    address public constant usdt = address(0xdAC17F958D2ee523a2206206994597C13D831ec7);\n    address public constant yusdt = address(0x83f798e925BcD4017Eb265844FDDAbb448f1707D);\n\n    address public constant tusd = address(0x0000000000085d4780B73119b644AE5ecd22b376);\n    address public constant ytusd = address(0x73a052500105205d34Daf004eAb301916DA8190f);\n\n    address public governance;\n    address public controller;\n\n    constructor(address _controller, address _yycrv) public {\n        governance = msg.sender;\n        controller = _controller;\n        yycrv = _yycrv;\n    }\n\n    function getName() external pure returns (string memory) {\n        return \"StrategyTUSDCurve\";\n    }\n\n    function deposit() public {\n        uint256 _want = IERC20(want).balanceOf(address(this));\n        if (_want > 0) {\n            IERC20(want).safeApprove(y, 0);\n            IERC20(want).safeApprove(y, _want);\n            yERC20(y).deposit(_want);\n        }\n        uint256 _y = IERC20(y).balanceOf(address(this));\n        if (_y > 0) {\n            IERC20(y).safeApprove(curve, 0);\n            IERC20(y).safeApprove(curve, _y);\n            ICurveFi(curve).add_liquidity([0, 0, 0, _y], 0);\n        }\n        uint256 _ycrv = IERC20(ycrv).balanceOf(address(this));\n        if (_ycrv > 0) {\n            IERC20(ycrv).safeApprove(yycrv, 0);\n            IERC20(ycrv).safeApprove(yycrv, _ycrv);\n            yERC20(yycrv).deposit(_ycrv);\n        }\n    }\n\n    // Controller only function for creating additional rewards from dust\n    function withdraw(IERC20 _asset) external returns (uint256 balance) {\n        require(msg.sender == controller, \"!controller\");\n        require(want != address(_asset), \"want\");\n        require(y != address(_asset), \"y\");\n        require(ycrv != address(_asset), \"ycrv\");\n        require(yycrv != address(_asset), \"yycrv\");\n        balance = _asset.balanceOf(address(this));\n        _asset.safeTransfer(controller, balance);\n    }\n\n    // Withdraw partial funds, normally used with a vault withdrawal\n    function withdraw(uint256 _amount) external {\n        require(msg.sender == controller, \"!controller\");\n        uint256 _balance = IERC20(want).balanceOf(address(this));\n        if (_balance < _amount) {\n            _amount = _withdrawSome(_amount.sub(_balance));\n            _amount = _amount.add(_balance);\n        }\n\n        address _vault = IController(controller).vaults(address(want));\n        require(_vault != address(0), \"!vault\"); // additional protection so we don't burn the funds\n        IERC20(want).safeTransfer(_vault, _amount);\n    }\n\n    // Withdraw all funds, normally used when migrating strategies\n    function withdrawAll() external returns (uint256 balance) {\n        require(msg.sender == controller, \"!controller\");\n        _withdrawAll();\n\n        balance = IERC20(want).balanceOf(address(this));\n\n        address _vault = IController(controller).vaults(address(want));\n        require(_vault != address(0), \"!vault\"); // additional protection so we don't burn the funds\n        IERC20(want).safeTransfer(_vault, balance);\n    }\n\n    function withdrawTUSD(uint256 _amount) internal returns (uint256) {\n        IERC20(ycrv).safeApprove(curve, 0);\n        IERC20(ycrv).safeApprove(curve, _amount);\n        ICurveFi(curve).remove_liquidity(_amount, [uint256(0), 0, 0, 0]);\n\n        uint256 _ydai = IERC20(ydai).balanceOf(address(this));\n        uint256 _yusdc = IERC20(yusdc).balanceOf(address(this));\n        uint256 _yusdt = IERC20(yusdt).balanceOf(address(this));\n\n        if (_ydai > 0) {\n            IERC20(ydai).safeApprove(curve, 0);\n            IERC20(ydai).safeApprove(curve, _ydai);\n            ICurveFi(curve).exchange(0, 3, _ydai, 0);\n        }\n        if (_yusdc > 0) {\n            IERC20(yusdc).safeApprove(curve, 0);\n            IERC20(yusdc).safeApprove(curve, _yusdc);\n            ICurveFi(curve).exchange(1, 3, _yusdc, 0);\n        }\n        if (_yusdt > 0) {\n            IERC20(yusdt).safeApprove(curve, 0);\n            IERC20(yusdt).safeApprove(curve, _yusdt);\n            ICurveFi(curve).exchange(2, 3, _yusdt, 0);\n        }\n\n        uint256 _before = IERC20(want).balanceOf(address(this));\n        yERC20(ytusd).withdraw(IERC20(ytusd).balanceOf(address(this)));\n        uint256 _after = IERC20(want).balanceOf(address(this));\n\n        return _after.sub(_before);\n    }\n\n    function _withdrawAll() internal {\n        uint256 _yycrv = IERC20(yycrv).balanceOf(address(this));\n        if (_yycrv > 0) {\n            yERC20(yycrv).withdraw(_yycrv);\n            withdrawTUSD(IERC20(ycrv).balanceOf(address(this)));\n        }\n    }\n\n    function _withdrawSome(uint256 _amount) internal returns (uint256) {\n        // calculate amount of ycrv to withdraw for amount of _want_\n        uint256 _ycrv = _amount.mul(1e18).div(ICurveFi(curve).get_virtual_price());\n        // calculate amount of yycrv to withdraw for amount of _ycrv_\n        uint256 _yycrv = _ycrv.mul(1e18).div(yERC20(yycrv).getPricePerFullShare());\n        uint256 _before = IERC20(ycrv).balanceOf(address(this));\n        yERC20(yycrv).withdraw(_yycrv);\n        uint256 _after = IERC20(ycrv).balanceOf(address(this));\n        return withdrawTUSD(_after.sub(_before));\n    }\n\n    function balanceOfWant() public view returns (uint256) {\n        return IERC20(want).balanceOf(address(this));\n    }\n\n    function balanceOfYYCRV() public view returns (uint256) {\n        return IERC20(yycrv).balanceOf(address(this));\n    }\n\n    function balanceOfYYCRVinYCRV() public view returns (uint256) {\n        return balanceOfYYCRV().mul(yERC20(yycrv).getPricePerFullShare()).div(1e18);\n    }\n\n    function balanceOfYYCRVinyTUSD() public view returns (uint256) {\n        return balanceOfYYCRVinYCRV().mul(ICurveFi(curve).get_virtual_price()).div(1e18);\n    }\n\n    function balanceOfYCRV() public view returns (uint256) {\n        return IERC20(ycrv).balanceOf(address(this));\n    }\n\n    function balanceOfYCRVyTUSD() public view returns (uint256) {\n        return balanceOfYCRV().mul(ICurveFi(curve).get_virtual_price()).div(1e18);\n    }\n\n    function balanceOf() public view returns (uint256) {\n        return balanceOfWant().add(balanceOfYYCRVinyTUSD());\n    }\n\n    function setGovernance(address _governance) external {\n        require(msg.sender == governance, \"!governance\");\n        governance = _governance;\n    }\n\n    function setController(address _controller) external {\n        require(msg.sender == governance, \"!governance\");\n        controller = _controller;\n    }\n}\n",
  "sourcePath": "/Users/bruce/work/defi-project/bulldaoV1/bulldao/contracts/strategies/StrategyTUSDCurve.sol",
  "compiler": {
    "name": "solc",
    "version": "0.5.17+commit.d19bba13.Linux.g++"
  },
  "schemaVersion": "3.3.0",
  "updatedAt": "2020-11-17T04:24:08.952Z",
  "devdoc": {
    "methods": {}
  },
  "userdoc": {
    "methods": {}
  }
}