{
  "fileName": "StrategyDAICurve.sol",
  "contractName": "StrategyDAICurve",
  "source": "// SPDX-License-Identifier: MIT\n\npragma solidity ^0.5.17;\n\nimport \"@openzeppelin/contracts/token/ERC20/IERC20.sol\";\nimport \"@openzeppelin/contracts/math/SafeMath.sol\";\nimport \"@openzeppelin/contracts/utils/Address.sol\";\nimport \"@openzeppelin/contracts/token/ERC20/SafeERC20.sol\";\n\nimport \"../interfaces/curve/Curve.sol\";\nimport \"../interfaces/curve/Mintr.sol\";\n\nimport \"../interfaces/yearn/IController.sol\";\nimport \"../interfaces/yearn/Token.sol\";\n\ncontract StrategyDAICurve {\n    using SafeERC20 for IERC20;\n    using Address for address;\n    using SafeMath for uint256;\n\n    address public constant want = address(0x6B175474E89094C44Da98b954EedeAC495271d0F);\n    address public constant y = address(0x16de59092dAE5CcF4A1E6439D611fd0653f0Bd01);\n    address public constant ycrv = address(0xdF5e0e81Dff6FAF3A7e52BA697820c5e32D806A8);\n    address public yycrv;\n    address public constant curve = address(0x45F783CCE6B7FF23B2ab2D70e416cdb7D6055f51);\n\n    address public constant dai = address(0x6B175474E89094C44Da98b954EedeAC495271d0F);\n    address public constant ydai = address(0x16de59092dAE5CcF4A1E6439D611fd0653f0Bd01);\n\n    address public constant usdc = address(0xA0b86991c6218b36c1d19D4a2e9Eb0cE3606eB48);\n    address public constant yusdc = address(0xd6aD7a6750A7593E092a9B218d66C0A814a3436e);\n\n    address public constant usdt = address(0xdAC17F958D2ee523a2206206994597C13D831ec7);\n    address public constant yusdt = address(0x83f798e925BcD4017Eb265844FDDAbb448f1707D);\n\n    address public constant tusd = address(0x0000000000085d4780B73119b644AE5ecd22b376);\n    address public constant ytusd = address(0x73a052500105205d34Daf004eAb301916DA8190f);\n\n    address public governance;\n    address public controller;\n\n    constructor(address _controller, address _yycrv) public {\n        governance = msg.sender;\n        controller = _controller;\n        yycrv = _yycrv;\n    }\n\n    function getName() external pure returns (string memory) {\n        return \"StrategyDAICurve\";\n    }\n\n    function deposit() public {\n        uint256 _want = IERC20(want).balanceOf(address(this));\n        if (_want > 0) {\n            IERC20(want).safeApprove(y, 0);\n            IERC20(want).safeApprove(y, _want);\n            yERC20(y).deposit(_want);\n        }\n        uint256 _y = IERC20(y).balanceOf(address(this));\n        if (_y > 0) {\n            IERC20(y).safeApprove(curve, 0);\n            IERC20(y).safeApprove(curve, _y);\n            ICurveFi(curve).add_liquidity([_y, 0, 0, 0], 0);\n        }\n        uint256 _ycrv = IERC20(ycrv).balanceOf(address(this));\n        if (_ycrv > 0) {\n            IERC20(ycrv).safeApprove(yycrv, 0);\n            IERC20(ycrv).safeApprove(yycrv, _ycrv);\n            yERC20(yycrv).deposit(_ycrv);\n        }\n    }\n\n    // Controller only function for creating additional rewards from dust\n    function withdraw(IERC20 _asset) external returns (uint256 balance) {\n        require(msg.sender == controller, \"!controller\");\n        require(want != address(_asset), \"want\");\n        require(y != address(_asset), \"y\");\n        require(ycrv != address(_asset), \"ycrv\");\n        require(yycrv != address(_asset), \"yycrv\");\n        balance = _asset.balanceOf(address(this));\n        _asset.safeTransfer(controller, balance);\n    }\n\n    // Withdraw partial funds, normally used with a vault withdrawal\n    function withdraw(uint256 _amount) external {\n        require(msg.sender == controller, \"!controller\");\n        uint256 _balance = IERC20(want).balanceOf(address(this));\n        if (_balance < _amount) {\n            _amount = _withdrawSome(_amount.sub(_balance));\n            _amount = _amount.add(_balance);\n        }\n\n        address _vault = IController(controller).vaults(address(want));\n        require(_vault != address(0), \"!vault\"); // additional protection so we don't burn the funds\n        IERC20(want).safeTransfer(_vault, _amount);\n    }\n\n    // Withdraw all funds, normally used when migrating strategies\n    function withdrawAll() external returns (uint256 balance) {\n        require(msg.sender == controller, \"!controller\");\n        _withdrawAll();\n\n        balance = IERC20(want).balanceOf(address(this));\n\n        address _vault = IController(controller).vaults(address(want));\n        require(_vault != address(0), \"!vault\"); // additional protection so we don't burn the funds\n        IERC20(want).safeTransfer(_vault, balance);\n    }\n\n    function withdrawUnderlying(uint256 _amount) internal returns (uint256) {\n        IERC20(ycrv).safeApprove(curve, 0);\n        IERC20(ycrv).safeApprove(curve, _amount);\n        ICurveFi(curve).remove_liquidity(_amount, [uint256(0), 0, 0, 0]);\n\n        uint256 _yusdc = IERC20(yusdc).balanceOf(address(this));\n        uint256 _yusdt = IERC20(yusdt).balanceOf(address(this));\n        uint256 _ytusd = IERC20(ytusd).balanceOf(address(this));\n\n        if (_yusdc > 0) {\n            IERC20(yusdc).safeApprove(curve, 0);\n            IERC20(yusdc).safeApprove(curve, _yusdc);\n            ICurveFi(curve).exchange(1, 0, _yusdc, 0);\n        }\n        if (_yusdt > 0) {\n            IERC20(yusdt).safeApprove(curve, 0);\n            IERC20(yusdt).safeApprove(curve, _yusdt);\n            ICurveFi(curve).exchange(2, 0, _yusdt, 0);\n        }\n        if (_ytusd > 0) {\n            IERC20(ytusd).safeApprove(curve, 0);\n            IERC20(ytusd).safeApprove(curve, _ytusd);\n            ICurveFi(curve).exchange(3, 0, _ytusd, 0);\n        }\n\n        uint256 _before = IERC20(want).balanceOf(address(this));\n        yERC20(ydai).withdraw(IERC20(ydai).balanceOf(address(this)));\n        uint256 _after = IERC20(want).balanceOf(address(this));\n\n        return _after.sub(_before);\n    }\n\n    function _withdrawAll() internal {\n        uint256 _yycrv = IERC20(yycrv).balanceOf(address(this));\n        if (_yycrv > 0) {\n            yERC20(yycrv).withdraw(_yycrv);\n            withdrawUnderlying(IERC20(ycrv).balanceOf(address(this)));\n        }\n    }\n\n    function _withdrawSome(uint256 _amount) internal returns (uint256) {\n        // calculate amount of ycrv to withdraw for amount of _want_\n        uint256 _ycrv = _amount.mul(1e18).div(ICurveFi(curve).get_virtual_price());\n        // calculate amount of yycrv to withdraw for amount of _ycrv_\n        uint256 _yycrv = _ycrv.mul(1e18).div(yERC20(yycrv).getPricePerFullShare());\n        uint256 _before = IERC20(ycrv).balanceOf(address(this));\n        yERC20(yycrv).withdraw(_yycrv);\n        uint256 _after = IERC20(ycrv).balanceOf(address(this));\n        return withdrawUnderlying(_after.sub(_before));\n    }\n\n    function balanceOfWant() public view returns (uint256) {\n        return IERC20(want).balanceOf(address(this));\n    }\n\n    function balanceOfYYCRV() public view returns (uint256) {\n        return IERC20(yycrv).balanceOf(address(this));\n    }\n\n    function balanceOfYYCRVinYCRV() public view returns (uint256) {\n        return balanceOfYYCRV().mul(yERC20(yycrv).getPricePerFullShare()).div(1e18);\n    }\n\n    function balanceOfYYCRVinyTUSD() public view returns (uint256) {\n        return balanceOfYYCRVinYCRV().mul(ICurveFi(curve).get_virtual_price()).div(1e18);\n    }\n\n    function balanceOfYCRV() public view returns (uint256) {\n        return IERC20(ycrv).balanceOf(address(this));\n    }\n\n    function balanceOfYCRVyTUSD() public view returns (uint256) {\n        return balanceOfYCRV().mul(ICurveFi(curve).get_virtual_price()).div(1e18);\n    }\n\n    function balanceOf() public view returns (uint256) {\n        return balanceOfWant().add(balanceOfYYCRVinyTUSD());\n    }\n\n    function setGovernance(address _governance) external {\n        require(msg.sender == governance, \"!governance\");\n        governance = _governance;\n    }\n\n    function setController(address _controller) external {\n        require(msg.sender == governance, \"!governance\");\n        controller = _controller;\n    }\n}\n",
  "sourcePath": "contracts/strategies/StrategyDAICurve.sol",
  "abi": [
    {
      "inputs": [
        {
          "internalType": "address",
          "name": "_controller",
          "type": "address"
        },
        {
          "internalType": "address",
          "name": "_yycrv",
          "type": "address"
        }
      ],
      "payable": false,
      "stateMutability": "nonpayable",
      "type": "constructor"
    },
    {
      "constant": true,
      "inputs": [],
      "name": "balanceOf",
      "outputs": [
        {
          "internalType": "uint256",
          "name": "",
          "type": "uint256"
        }
      ],
      "payable": false,
      "stateMutability": "view",
      "type": "function"
    },
    {
      "constant": true,
      "inputs": [],
      "name": "balanceOfWant",
      "outputs": [
        {
          "internalType": "uint256",
          "name": "",
          "type": "uint256"
        }
      ],
      "payable": false,
      "stateMutability": "view",
      "type": "function"
    },
    {
      "constant": true,
      "inputs": [],
      "name": "balanceOfYCRV",
      "outputs": [
        {
          "internalType": "uint256",
          "name": "",
          "type": "uint256"
        }
      ],
      "payable": false,
      "stateMutability": "view",
      "type": "function"
    },
    {
      "constant": true,
      "inputs": [],
      "name": "balanceOfYCRVyTUSD",
      "outputs": [
        {
          "internalType": "uint256",
          "name": "",
          "type": "uint256"
        }
      ],
      "payable": false,
      "stateMutability": "view",
      "type": "function"
    },
    {
      "constant": true,
      "inputs": [],
      "name": "balanceOfYYCRV",
      "outputs": [
        {
          "internalType": "uint256",
          "name": "",
          "type": "uint256"
        }
      ],
      "payable": false,
      "stateMutability": "view",
      "type": "function"
    },
    {
      "constant": true,
      "inputs": [],
      "name": "balanceOfYYCRVinYCRV",
      "outputs": [
        {
          "internalType": "uint256",
          "name": "",
          "type": "uint256"
        }
      ],
      "payable": false,
      "stateMutability": "view",
      "type": "function"
    },
    {
      "constant": true,
      "inputs": [],
      "name": "balanceOfYYCRVinyTUSD",
      "outputs": [
        {
          "internalType": "uint256",
          "name": "",
          "type": "uint256"
        }
      ],
      "payable": false,
      "stateMutability": "view",
      "type": "function"
    },
    {
      "constant": true,
      "inputs": [],
      "name": "controller",
      "outputs": [
        {
          "internalType": "address",
          "name": "",
          "type": "address"
        }
      ],
      "payable": false,
      "stateMutability": "view",
      "type": "function"
    },
    {
      "constant": true,
      "inputs": [],
      "name": "curve",
      "outputs": [
        {
          "internalType": "address",
          "name": "",
          "type": "address"
        }
      ],
      "payable": false,
      "stateMutability": "view",
      "type": "function"
    },
    {
      "constant": true,
      "inputs": [],
      "name": "dai",
      "outputs": [
        {
          "internalType": "address",
          "name": "",
          "type": "address"
        }
      ],
      "payable": false,
      "stateMutability": "view",
      "type": "function"
    },
    {
      "constant": false,
      "inputs": [],
      "name": "deposit",
      "outputs": [],
      "payable": false,
      "stateMutability": "nonpayable",
      "type": "function"
    },
    {
      "constant": true,
      "inputs": [],
      "name": "getName",
      "outputs": [
        {
          "internalType": "string",
          "name": "",
          "type": "string"
        }
      ],
      "payable": false,
      "stateMutability": "pure",
      "type": "function"
    },
    {
      "constant": true,
      "inputs": [],
      "name": "governance",
      "outputs": [
        {
          "internalType": "address",
          "name": "",
          "type": "address"
        }
      ],
      "payable": false,
      "stateMutability": "view",
      "type": "function"
    },
    {
      "constant": false,
      "inputs": [
        {
          "internalType": "address",
          "name": "_controller",
          "type": "address"
        }
      ],
      "name": "setController",
      "outputs": [],
      "payable": false,
      "stateMutability": "nonpayable",
      "type": "function"
    },
    {
      "constant": false,
      "inputs": [
        {
          "internalType": "address",
          "name": "_governance",
          "type": "address"
        }
      ],
      "name": "setGovernance",
      "outputs": [],
      "payable": false,
      "stateMutability": "nonpayable",
      "type": "function"
    },
    {
      "constant": true,
      "inputs": [],
      "name": "tusd",
      "outputs": [
        {
          "internalType": "address",
          "name": "",
          "type": "address"
        }
      ],
      "payable": false,
      "stateMutability": "view",
      "type": "function"
    },
    {
      "constant": true,
      "inputs": [],
      "name": "usdc",
      "outputs": [
        {
          "internalType": "address",
          "name": "",
          "type": "address"
        }
      ],
      "payable": false,
      "stateMutability": "view",
      "type": "function"
    },
    {
      "constant": true,
      "inputs": [],
      "name": "usdt",
      "outputs": [
        {
          "internalType": "address",
          "name": "",
          "type": "address"
        }
      ],
      "payable": false,
      "stateMutability": "view",
      "type": "function"
    },
    {
      "constant": true,
      "inputs": [],
      "name": "want",
      "outputs": [
        {
          "internalType": "address",
          "name": "",
          "type": "address"
        }
      ],
      "payable": false,
      "stateMutability": "view",
      "type": "function"
    },
    {
      "constant": false,
      "inputs": [
        {
          "internalType": "uint256",
          "name": "_amount",
          "type": "uint256"
        }
      ],
      "name": "withdraw",
      "outputs": [],
      "payable": false,
      "stateMutability": "nonpayable",
      "type": "function"
    },
    {
      "constant": false,
      "inputs": [
        {
          "internalType": "contract IERC20",
          "name": "_asset",
          "type": "address"
        }
      ],
      "name": "withdraw",
      "outputs": [
        {
          "internalType": "uint256",
          "name": "balance",
          "type": "uint256"
        }
      ],
      "payable": false,
      "stateMutability": "nonpayable",
      "type": "function"
    },
    {
      "constant": false,
      "inputs": [],
      "name": "withdrawAll",
      "outputs": [
        {
          "internalType": "uint256",
          "name": "balance",
          "type": "uint256"
        }
      ],
      "payable": false,
      "stateMutability": "nonpayable",
      "type": "function"
    },
    {
      "constant": true,
      "inputs": [],
      "name": "y",
      "outputs": [
        {
          "internalType": "address",
          "name": "",
          "type": "address"
        }
      ],
      "payable": false,
      "stateMutability": "view",
      "type": "function"
    },
    {
      "constant": true,
      "inputs": [],
      "name": "ycrv",
      "outputs": [
        {
          "internalType": "address",
          "name": "",
          "type": "address"
        }
      ],
      "payable": false,
      "stateMutability": "view",
      "type": "function"
    },
    {
      "constant": true,
      "inputs": [],
      "name": "ydai",
      "outputs": [
        {
          "internalType": "address",
          "name": "",
          "type": "address"
        }
      ],
      "payable": false,
      "stateMutability": "view",
      "type": "function"
    },
    {
      "constant": true,
      "inputs": [],
      "name": "ytusd",
      "outputs": [
        {
          "internalType": "address",
          "name": "",
          "type": "address"
        }
      ],
      "payable": false,
      "stateMutability": "view",
      "type": "function"
    },
    {
      "constant": true,
      "inputs": [],
      "name": "yusdc",
      "outputs": [
        {
          "internalType": "address",
          "name": "",
          "type": "address"
        }
      ],
      "payable": false,
      "stateMutability": "view",
      "type": "function"
    },
    {
      "constant": true,
      "inputs": [],
      "name": "yusdt",
      "outputs": [
        {
          "internalType": "address",
          "name": "",
          "type": "address"
        }
      ],
      "payable": false,
      "stateMutability": "view",
      "type": "function"
    },
    {
      "constant": true,
      "inputs": [],
      "name": "yycrv",
      "outputs": [
        {
          "internalType": "address",
          "name": "",
          "type": "address"
        }
      ],
      "payable": false,
      "stateMutability": "view",
      "type": "function"
    }
  ],
  "bytecode": "0x608060405234801561001057600080fd5b50604051613fa7380380613fa78339818101604052604081101561003357600080fd5b81019080805190602001909291908051906020019092919050505033600160006101000a81548173ffffffffffffffffffffffffffffffffffffffff021916908373ffffffffffffffffffffffffffffffffffffffff16021790555081600260006101000a81548173ffffffffffffffffffffffffffffffffffffffff021916908373ffffffffffffffffffffffffffffffffffffffff160217905550806000806101000a81548173ffffffffffffffffffffffffffffffffffffffff021916908373ffffffffffffffffffffffffffffffffffffffff1602179055505050613e86806101216000396000f3fe608060405234801561001057600080fd5b50600436106101cf5760003560e01c806375b5be2d11610104578063c1a3d44c116100a2578063dfb84f6511610071578063dfb84f65146107b9578063f3eb5b3114610803578063f4b9fa7514610821578063f77c47911461086b576101cf565b8063c1a3d44c14610755578063ca6cf00114610773578063d0e30db014610791578063d37c04a71461079b576101cf565b806392eefe9b116100de57806392eefe9b146106655780639752b711146106a9578063a56dfe4a146106c7578063ab033ea914610711576101cf565b806375b5be2d146105df578063853828b6146106295780638c53b38d14610647576101cf565b8063366cd4f311610171578063598f2f501161014b578063598f2f50146104e35780635aa6e6751461052d5780637165485d14610577578063722713f7146105c1576101cf565b8063366cd4f3146103f75780633e413bee1461044157806351cff8d91461048b576101cf565b80632aa05b1a116101ad5780632aa05b1a146102eb5780632e1a7d4d146103355780632f48ab7d1461036357806332bd678f146103ad576101cf565b806317d7de7c146101d457806317e3a3d5146102575780631f1fcd51146102a1575b600080fd5b6101dc6108b5565b6040518080602001828103825283818151815260200191508051906020019080838360005b8381101561021c578082015181840152602081019050610201565b50505050905090810190601f1680156102495780820380516001836020036101000a031916815260200191505b509250505060405180910390f35b61025f6108f2565b604051808273ffffffffffffffffffffffffffffffffffffffff1673ffffffffffffffffffffffffffffffffffffffff16815260200191505060405180910390f35b6102a961090a565b604051808273ffffffffffffffffffffffffffffffffffffffff1673ffffffffffffffffffffffffffffffffffffffff16815260200191505060405180910390f35b6102f3610922565b604051808273ffffffffffffffffffffffffffffffffffffffff1673ffffffffffffffffffffffffffffffffffffffff16815260200191505060405180910390f35b6103616004803603602081101561034b57600080fd5b810190808035906020019092919050505061093a565b005b61036b610ce1565b604051808273ffffffffffffffffffffffffffffffffffffffff1673ffffffffffffffffffffffffffffffffffffffff16815260200191505060405180910390f35b6103b5610cf9565b604051808273ffffffffffffffffffffffffffffffffffffffff1673ffffffffffffffffffffffffffffffffffffffff16815260200191505060405180910390f35b6103ff610d11565b604051808273ffffffffffffffffffffffffffffffffffffffff1673ffffffffffffffffffffffffffffffffffffffff16815260200191505060405180910390f35b610449610d29565b604051808273ffffffffffffffffffffffffffffffffffffffff1673ffffffffffffffffffffffffffffffffffffffff16815260200191505060405180910390f35b6104cd600480360360208110156104a157600080fd5b81019080803573ffffffffffffffffffffffffffffffffffffffff169060200190929190505050610d41565b6040518082815260200191505060405180910390f35b6104eb6111f7565b604051808273ffffffffffffffffffffffffffffffffffffffff1673ffffffffffffffffffffffffffffffffffffffff16815260200191505060405180910390f35b61053561121c565b604051808273ffffffffffffffffffffffffffffffffffffffff1673ffffffffffffffffffffffffffffffffffffffff16815260200191505060405180910390f35b61057f611242565b604051808273ffffffffffffffffffffffffffffffffffffffff1673ffffffffffffffffffffffffffffffffffffffff16815260200191505060405180910390f35b6105c961125a565b6040518082815260200191505060405180910390f35b6105e7611282565b604051808273ffffffffffffffffffffffffffffffffffffffff1673ffffffffffffffffffffffffffffffffffffffff16815260200191505060405180910390f35b610631611295565b6040518082815260200191505060405180910390f35b61064f611608565b6040518082815260200191505060405180910390f35b6106a76004803603602081101561067b57600080fd5b81019080803573ffffffffffffffffffffffffffffffffffffffff1690602001909291905050506116d7565b005b6106b16117de565b6040518082815260200191505060405180910390f35b6106cf6118ba565b604051808273ffffffffffffffffffffffffffffffffffffffff1673ffffffffffffffffffffffffffffffffffffffff16815260200191505060405180910390f35b6107536004803603602081101561072757600080fd5b81019080803573ffffffffffffffffffffffffffffffffffffffff1690602001909291905050506118d2565b005b61075d6119d9565b6040518082815260200191505060405180910390f35b61077b611aac565b6040518082815260200191505060405180910390f35b610799611b7f565b005b6107a36121ff565b6040518082815260200191505060405180910390f35b6107c16122ce565b604051808273ffffffffffffffffffffffffffffffffffffffff1673ffffffffffffffffffffffffffffffffffffffff16815260200191505060405180910390f35b61080b6122e6565b6040518082815260200191505060405180910390f35b6108296123c6565b604051808273ffffffffffffffffffffffffffffffffffffffff1673ffffffffffffffffffffffffffffffffffffffff16815260200191505060405180910390f35b6108736123de565b604051808273ffffffffffffffffffffffffffffffffffffffff1673ffffffffffffffffffffffffffffffffffffffff16815260200191505060405180910390f35b60606040518060400160405280601081526020017f5374726174656779444149437572766500000000000000000000000000000000815250905090565b73df5e0e81dff6faf3a7e52ba697820c5e32d806a881565b736b175474e89094c44da98b954eedeac495271d0f81565b7373a052500105205d34daf004eab301916da8190f81565b600260009054906101000a900473ffffffffffffffffffffffffffffffffffffffff1673ffffffffffffffffffffffffffffffffffffffff163373ffffffffffffffffffffffffffffffffffffffff16146109fd576040517f08c379a000000000000000000000000000000000000000000000000000000000815260040180806020018281038252600b8152602001807f21636f6e74726f6c6c657200000000000000000000000000000000000000000081525060200191505060405180910390fd5b6000736b175474e89094c44da98b954eedeac495271d0f73ffffffffffffffffffffffffffffffffffffffff166370a08231306040518263ffffffff1660e01b8152600401808273ffffffffffffffffffffffffffffffffffffffff1673ffffffffffffffffffffffffffffffffffffffff16815260200191505060206040518083038186803b158015610a9057600080fd5b505afa158015610aa4573d6000803e3d6000fd5b505050506040513d6020811015610aba57600080fd5b8101908080519060200190929190505050905081811015610b0857610af0610aeb828461240490919063ffffffff16565b61244e565b9150610b05818361283890919063ffffffff16565b91505b6000600260009054906101000a900473ffffffffffffffffffffffffffffffffffffffff1673ffffffffffffffffffffffffffffffffffffffff1663a622ee7c736b175474e89094c44da98b954eedeac495271d0f6040518263ffffffff1660e01b8152600401808273ffffffffffffffffffffffffffffffffffffffff1673ffffffffffffffffffffffffffffffffffffffff16815260200191505060206040518083038186803b158015610bbd57600080fd5b505afa158015610bd1573d6000803e3d6000fd5b505050506040513d6020811015610be757600080fd5b81019080805190602001909291905050509050600073ffffffffffffffffffffffffffffffffffffffff168173ffffffffffffffffffffffffffffffffffffffff161415610c9d576040517f08c379a00000000000000000000000000000000000000000000000000000000081526004018080602001828103825260068152602001807f217661756c74000000000000000000000000000000000000000000000000000081525060200191505060405180910390fd5b610cdc8184736b175474e89094c44da98b954eedeac495271d0f73ffffffffffffffffffffffffffffffffffffffff166128c09092919063ffffffff16565b505050565b73dac17f958d2ee523a2206206994597c13d831ec781565b73d6ad7a6750a7593e092a9b218d66c0a814a3436e81565b7316de59092dae5ccf4a1e6439d611fd0653f0bd0181565b73a0b86991c6218b36c1d19d4a2e9eb0ce3606eb4881565b6000600260009054906101000a900473ffffffffffffffffffffffffffffffffffffffff1673ffffffffffffffffffffffffffffffffffffffff163373ffffffffffffffffffffffffffffffffffffffff1614610e06576040517f08c379a000000000000000000000000000000000000000000000000000000000815260040180806020018281038252600b8152602001807f21636f6e74726f6c6c657200000000000000000000000000000000000000000081525060200191505060405180910390fd5b8173ffffffffffffffffffffffffffffffffffffffff16736b175474e89094c44da98b954eedeac495271d0f73ffffffffffffffffffffffffffffffffffffffff161415610ebc576040517f08c379a00000000000000000000000000000000000000000000000000000000081526004018080602001828103825260048152602001807f77616e740000000000000000000000000000000000000000000000000000000081525060200191505060405180910390fd5b8173ffffffffffffffffffffffffffffffffffffffff167316de59092dae5ccf4a1e6439d611fd0653f0bd0173ffffffffffffffffffffffffffffffffffffffff161415610f72576040517f08c379a00000000000000000000000000000000000000000000000000000000081526004018080602001828103825260018152602001807f790000000000000000000000000000000000000000000000000000000000000081525060200191505060405180910390fd5b8173ffffffffffffffffffffffffffffffffffffffff1673df5e0e81dff6faf3a7e52ba697820c5e32d806a873ffffffffffffffffffffffffffffffffffffffff161415611028576040517f08c379a00000000000000000000000000000000000000000000000000000000081526004018080602001828103825260048152602001807f796372760000000000000000000000000000000000000000000000000000000081525060200191505060405180910390fd5b8173ffffffffffffffffffffffffffffffffffffffff166000809054906101000a900473ffffffffffffffffffffffffffffffffffffffff1673ffffffffffffffffffffffffffffffffffffffff1614156110eb576040517f08c379a00000000000000000000000000000000000000000000000000000000081526004018080602001828103825260058152602001807f797963727600000000000000000000000000000000000000000000000000000081525060200191505060405180910390fd5b8173ffffffffffffffffffffffffffffffffffffffff166370a08231306040518263ffffffff1660e01b8152600401808273ffffffffffffffffffffffffffffffffffffffff1673ffffffffffffffffffffffffffffffffffffffff16815260200191505060206040518083038186803b15801561116857600080fd5b505afa15801561117c573d6000803e3d6000fd5b505050506040513d602081101561119257600080fd5b810190808051906020019092919050505090506111f2600260009054906101000a900473ffffffffffffffffffffffffffffffffffffffff16828473ffffffffffffffffffffffffffffffffffffffff166128c09092919063ffffffff16565b919050565b6000809054906101000a900473ffffffffffffffffffffffffffffffffffffffff1681565b600160009054906101000a900473ffffffffffffffffffffffffffffffffffffffff1681565b7345f783cce6b7ff23b2ab2d70e416cdb7d6055f5181565b600061127d6112676121ff565b61126f6119d9565b61283890919063ffffffff16565b905090565b6e085d4780b73119b644ae5ecd22b37681565b6000600260009054906101000a900473ffffffffffffffffffffffffffffffffffffffff1673ffffffffffffffffffffffffffffffffffffffff163373ffffffffffffffffffffffffffffffffffffffff161461135a576040517f08c379a000000000000000000000000000000000000000000000000000000000815260040180806020018281038252600b8152602001807f21636f6e74726f6c6c657200000000000000000000000000000000000000000081525060200191505060405180910390fd5b611362612991565b736b175474e89094c44da98b954eedeac495271d0f73ffffffffffffffffffffffffffffffffffffffff166370a08231306040518263ffffffff1660e01b8152600401808273ffffffffffffffffffffffffffffffffffffffff1673ffffffffffffffffffffffffffffffffffffffff16815260200191505060206040518083038186803b1580156113f357600080fd5b505afa158015611407573d6000803e3d6000fd5b505050506040513d602081101561141d57600080fd5b810190808051906020019092919050505090506000600260009054906101000a900473ffffffffffffffffffffffffffffffffffffffff1673ffffffffffffffffffffffffffffffffffffffff1663a622ee7c736b175474e89094c44da98b954eedeac495271d0f6040518263ffffffff1660e01b8152600401808273ffffffffffffffffffffffffffffffffffffffff1673ffffffffffffffffffffffffffffffffffffffff16815260200191505060206040518083038186803b1580156114e557600080fd5b505afa1580156114f9573d6000803e3d6000fd5b505050506040513d602081101561150f57600080fd5b81019080805190602001909291905050509050600073ffffffffffffffffffffffffffffffffffffffff168173ffffffffffffffffffffffffffffffffffffffff1614156115c5576040517f08c379a00000000000000000000000000000000000000000000000000000000081526004018080602001828103825260068152602001807f217661756c74000000000000000000000000000000000000000000000000000081525060200191505060405180910390fd5b6116048183736b175474e89094c44da98b954eedeac495271d0f73ffffffffffffffffffffffffffffffffffffffff166128c09092919063ffffffff16565b5090565b60006116d2670de0b6b3a76400006116c47345f783cce6b7ff23b2ab2d70e416cdb7d6055f5173ffffffffffffffffffffffffffffffffffffffff1663bb7b8b806040518163ffffffff1660e01b815260040160206040518083038186803b15801561167357600080fd5b505afa158015611687573d6000803e3d6000fd5b505050506040513d602081101561169d57600080fd5b81019080805190602001909291905050506116b6611aac565b612bdc90919063ffffffff16565b612c6290919063ffffffff16565b905090565b600160009054906101000a900473ffffffffffffffffffffffffffffffffffffffff1673ffffffffffffffffffffffffffffffffffffffff163373ffffffffffffffffffffffffffffffffffffffff161461179a576040517f08c379a000000000000000000000000000000000000000000000000000000000815260040180806020018281038252600b8152602001807f21676f7665726e616e636500000000000000000000000000000000000000000081525060200191505060405180910390fd5b80600260006101000a81548173ffffffffffffffffffffffffffffffffffffffff021916908373ffffffffffffffffffffffffffffffffffffffff16021790555050565b60006118b5670de0b6b3a76400006118a76000809054906101000a900473ffffffffffffffffffffffffffffffffffffffff1673ffffffffffffffffffffffffffffffffffffffff166377c7b8fc6040518163ffffffff1660e01b815260040160206040518083038186803b15801561185657600080fd5b505afa15801561186a573d6000803e3d6000fd5b505050506040513d602081101561188057600080fd5b81019080805190602001909291905050506118996122e6565b612bdc90919063ffffffff16565b612c6290919063ffffffff16565b905090565b7316de59092dae5ccf4a1e6439d611fd0653f0bd0181565b600160009054906101000a900473ffffffffffffffffffffffffffffffffffffffff1673ffffffffffffffffffffffffffffffffffffffff163373ffffffffffffffffffffffffffffffffffffffff1614611995576040517f08c379a000000000000000000000000000000000000000000000000000000000815260040180806020018281038252600b8152602001807f21676f7665726e616e636500000000000000000000000000000000000000000081525060200191505060405180910390fd5b80600160006101000a81548173ffffffffffffffffffffffffffffffffffffffff021916908373ffffffffffffffffffffffffffffffffffffffff16021790555050565b6000736b175474e89094c44da98b954eedeac495271d0f73ffffffffffffffffffffffffffffffffffffffff166370a08231306040518263ffffffff1660e01b8152600401808273ffffffffffffffffffffffffffffffffffffffff1673ffffffffffffffffffffffffffffffffffffffff16815260200191505060206040518083038186803b158015611a6c57600080fd5b505afa158015611a80573d6000803e3d6000fd5b505050506040513d6020811015611a9657600080fd5b8101908080519060200190929190505050905090565b600073df5e0e81dff6faf3a7e52ba697820c5e32d806a873ffffffffffffffffffffffffffffffffffffffff166370a08231306040518263ffffffff1660e01b8152600401808273ffffffffffffffffffffffffffffffffffffffff1673ffffffffffffffffffffffffffffffffffffffff16815260200191505060206040518083038186803b158015611b3f57600080fd5b505afa158015611b53573d6000803e3d6000fd5b505050506040513d6020811015611b6957600080fd5b8101908080519060200190929190505050905090565b6000736b175474e89094c44da98b954eedeac495271d0f73ffffffffffffffffffffffffffffffffffffffff166370a08231306040518263ffffffff1660e01b8152600401808273ffffffffffffffffffffffffffffffffffffffff1673ffffffffffffffffffffffffffffffffffffffff16815260200191505060206040518083038186803b158015611c1257600080fd5b505afa158015611c26573d6000803e3d6000fd5b505050506040513d6020811015611c3c57600080fd5b810190808051906020019092919050505090506000811115611d7f57611cac7316de59092dae5ccf4a1e6439d611fd0653f0bd016000736b175474e89094c44da98b954eedeac495271d0f73ffffffffffffffffffffffffffffffffffffffff16612cac9092919063ffffffff16565b611cff7316de59092dae5ccf4a1e6439d611fd0653f0bd0182736b175474e89094c44da98b954eedeac495271d0f73ffffffffffffffffffffffffffffffffffffffff16612cac9092919063ffffffff16565b7316de59092dae5ccf4a1e6439d611fd0653f0bd0173ffffffffffffffffffffffffffffffffffffffff1663b6b55f25826040518263ffffffff1660e01b815260040180828152602001915050600060405180830381600087803b158015611d6657600080fd5b505af1158015611d7a573d6000803e3d6000fd5b505050505b60007316de59092dae5ccf4a1e6439d611fd0653f0bd0173ffffffffffffffffffffffffffffffffffffffff166370a08231306040518263ffffffff1660e01b8152600401808273ffffffffffffffffffffffffffffffffffffffff1673ffffffffffffffffffffffffffffffffffffffff16815260200191505060206040518083038186803b158015611e1257600080fd5b505afa158015611e26573d6000803e3d6000fd5b505050506040513d6020811015611e3c57600080fd5b810190808051906020019092919050505090506000811115611fd357611eac7345f783cce6b7ff23b2ab2d70e416cdb7d6055f5160007316de59092dae5ccf4a1e6439d611fd0653f0bd0173ffffffffffffffffffffffffffffffffffffffff16612cac9092919063ffffffff16565b611eff7345f783cce6b7ff23b2ab2d70e416cdb7d6055f51827316de59092dae5ccf4a1e6439d611fd0653f0bd0173ffffffffffffffffffffffffffffffffffffffff16612cac9092919063ffffffff16565b7345f783cce6b7ff23b2ab2d70e416cdb7d6055f5173ffffffffffffffffffffffffffffffffffffffff1663029b2f3460405180608001604052808481526020016000815260200160008152602001600081525060006040518363ffffffff1660e01b81526004018083600460200280838360005b83811015611f8f578082015181840152602081019050611f74565b5050505090500182815260200192505050600060405180830381600087803b158015611fba57600080fd5b505af1158015611fce573d6000803e3d6000fd5b505050505b600073df5e0e81dff6faf3a7e52ba697820c5e32d806a873ffffffffffffffffffffffffffffffffffffffff166370a08231306040518263ffffffff1660e01b8152600401808273ffffffffffffffffffffffffffffffffffffffff1673ffffffffffffffffffffffffffffffffffffffff16815260200191505060206040518083038186803b15801561206657600080fd5b505afa15801561207a573d6000803e3d6000fd5b505050506040513d602081101561209057600080fd5b8101908080519060200190929190505050905060008111156121fa5761210d6000809054906101000a900473ffffffffffffffffffffffffffffffffffffffff16600073df5e0e81dff6faf3a7e52ba697820c5e32d806a873ffffffffffffffffffffffffffffffffffffffff16612cac9092919063ffffffff16565b61216d6000809054906101000a900473ffffffffffffffffffffffffffffffffffffffff168273df5e0e81dff6faf3a7e52ba697820c5e32d806a873ffffffffffffffffffffffffffffffffffffffff16612cac9092919063ffffffff16565b6000809054906101000a900473ffffffffffffffffffffffffffffffffffffffff1673ffffffffffffffffffffffffffffffffffffffff1663b6b55f25826040518263ffffffff1660e01b815260040180828152602001915050600060405180830381600087803b1580156121e157600080fd5b505af11580156121f5573d6000803e3d6000fd5b505050505b505050565b60006122c9670de0b6b3a76400006122bb7345f783cce6b7ff23b2ab2d70e416cdb7d6055f5173ffffffffffffffffffffffffffffffffffffffff1663bb7b8b806040518163ffffffff1660e01b815260040160206040518083038186803b15801561226a57600080fd5b505afa15801561227e573d6000803e3d6000fd5b505050506040513d602081101561229457600080fd5b81019080805190602001909291905050506122ad6117de565b612bdc90919063ffffffff16565b612c6290919063ffffffff16565b905090565b7383f798e925bcd4017eb265844fddabb448f1707d81565b60008060009054906101000a900473ffffffffffffffffffffffffffffffffffffffff1673ffffffffffffffffffffffffffffffffffffffff166370a08231306040518263ffffffff1660e01b8152600401808273ffffffffffffffffffffffffffffffffffffffff1673ffffffffffffffffffffffffffffffffffffffff16815260200191505060206040518083038186803b15801561238657600080fd5b505afa15801561239a573d6000803e3d6000fd5b505050506040513d60208110156123b057600080fd5b8101908080519060200190929190505050905090565b736b175474e89094c44da98b954eedeac495271d0f81565b600260009054906101000a900473ffffffffffffffffffffffffffffffffffffffff1681565b600061244683836040518060400160405280601e81526020017f536166654d6174683a207375627472616374696f6e206f766572666c6f770000815250612ecc565b905092915050565b6000806125127345f783cce6b7ff23b2ab2d70e416cdb7d6055f5173ffffffffffffffffffffffffffffffffffffffff1663bb7b8b806040518163ffffffff1660e01b815260040160206040518083038186803b1580156124ae57600080fd5b505afa1580156124c2573d6000803e3d6000fd5b505050506040513d60208110156124d857600080fd5b8101908080519060200190929190505050612504670de0b6b3a764000086612bdc90919063ffffffff16565b612c6290919063ffffffff16565b905060006125e46000809054906101000a900473ffffffffffffffffffffffffffffffffffffffff1673ffffffffffffffffffffffffffffffffffffffff166377c7b8fc6040518163ffffffff1660e01b815260040160206040518083038186803b15801561258057600080fd5b505afa158015612594573d6000803e3d6000fd5b505050506040513d60208110156125aa57600080fd5b81019080805190602001909291905050506125d6670de0b6b3a764000085612bdc90919063ffffffff16565b612c6290919063ffffffff16565b9050600073df5e0e81dff6faf3a7e52ba697820c5e32d806a873ffffffffffffffffffffffffffffffffffffffff166370a08231306040518263ffffffff1660e01b8152600401808273ffffffffffffffffffffffffffffffffffffffff1673ffffffffffffffffffffffffffffffffffffffff16815260200191505060206040518083038186803b15801561267957600080fd5b505afa15801561268d573d6000803e3d6000fd5b505050506040513d60208110156126a357600080fd5b810190808051906020019092919050505090506000809054906101000a900473ffffffffffffffffffffffffffffffffffffffff1673ffffffffffffffffffffffffffffffffffffffff16632e1a7d4d836040518263ffffffff1660e01b815260040180828152602001915050600060405180830381600087803b15801561272a57600080fd5b505af115801561273e573d6000803e3d6000fd5b50505050600073df5e0e81dff6faf3a7e52ba697820c5e32d806a873ffffffffffffffffffffffffffffffffffffffff166370a08231306040518263ffffffff1660e01b8152600401808273ffffffffffffffffffffffffffffffffffffffff1673ffffffffffffffffffffffffffffffffffffffff16815260200191505060206040518083038186803b1580156127d557600080fd5b505afa1580156127e9573d6000803e3d6000fd5b505050506040513d60208110156127ff57600080fd5b8101908080519060200190929190505050905061282d612828838361240490919063ffffffff16565b612f8c565b945050505050919050565b6000808284019050838110156128b6576040517f08c379a000000000000000000000000000000000000000000000000000000000815260040180806020018281038252601b8152602001807f536166654d6174683a206164646974696f6e206f766572666c6f77000000000081525060200191505060405180910390fd5b8091505092915050565b61298c838473ffffffffffffffffffffffffffffffffffffffff1663a9059cbb905060e01b8484604051602401808373ffffffffffffffffffffffffffffffffffffffff1673ffffffffffffffffffffffffffffffffffffffff16815260200182815260200192505050604051602081830303815290604052907bffffffffffffffffffffffffffffffffffffffffffffffffffffffff19166020820180517bffffffffffffffffffffffffffffffffffffffffffffffffffffffff8381831617835250505050613a74565b505050565b60008060009054906101000a900473ffffffffffffffffffffffffffffffffffffffff1673ffffffffffffffffffffffffffffffffffffffff166370a08231306040518263ffffffff1660e01b8152600401808273ffffffffffffffffffffffffffffffffffffffff1673ffffffffffffffffffffffffffffffffffffffff16815260200191505060206040518083038186803b158015612a3157600080fd5b505afa158015612a45573d6000803e3d6000fd5b505050506040513d6020811015612a5b57600080fd5b810190808051906020019092919050505090506000811115612bd9576000809054906101000a900473ffffffffffffffffffffffffffffffffffffffff1673ffffffffffffffffffffffffffffffffffffffff16632e1a7d4d826040518263ffffffff1660e01b815260040180828152602001915050600060405180830381600087803b158015612aeb57600080fd5b505af1158015612aff573d6000803e3d6000fd5b50505050612bd773df5e0e81dff6faf3a7e52ba697820c5e32d806a873ffffffffffffffffffffffffffffffffffffffff166370a08231306040518263ffffffff1660e01b8152600401808273ffffffffffffffffffffffffffffffffffffffff1673ffffffffffffffffffffffffffffffffffffffff16815260200191505060206040518083038186803b158015612b9757600080fd5b505afa158015612bab573d6000803e3d6000fd5b505050506040513d6020811015612bc157600080fd5b8101908080519060200190929190505050612f8c565b505b50565b600080831415612bef5760009050612c5c565b6000828402905082848281612c0057fe5b0414612c57576040517f08c379a0000000000000000000000000000000000000000000000000000000008152600401808060200182810382526021815260200180613dd16021913960400191505060405180910390fd5b809150505b92915050565b6000612ca483836040518060400160405280601a81526020017f536166654d6174683a206469766973696f6e206279207a65726f000000000000815250613cbf565b905092915050565b6000811480612da6575060008373ffffffffffffffffffffffffffffffffffffffff1663dd62ed3e30856040518363ffffffff1660e01b8152600401808373ffffffffffffffffffffffffffffffffffffffff1673ffffffffffffffffffffffffffffffffffffffff1681526020018273ffffffffffffffffffffffffffffffffffffffff1673ffffffffffffffffffffffffffffffffffffffff1681526020019250505060206040518083038186803b158015612d6957600080fd5b505afa158015612d7d573d6000803e3d6000fd5b505050506040513d6020811015612d9357600080fd5b8101908080519060200190929190505050145b612dfb576040517f08c379a0000000000000000000000000000000000000000000000000000000008152600401808060200182810382526036815260200180613e1c6036913960400191505060405180910390fd5b612ec7838473ffffffffffffffffffffffffffffffffffffffff1663095ea7b3905060e01b8484604051602401808373ffffffffffffffffffffffffffffffffffffffff1673ffffffffffffffffffffffffffffffffffffffff16815260200182815260200192505050604051602081830303815290604052907bffffffffffffffffffffffffffffffffffffffffffffffffffffffff19166020820180517bffffffffffffffffffffffffffffffffffffffffffffffffffffffff8381831617835250505050613a74565b505050565b6000838311158290612f79576040517f08c379a00000000000000000000000000000000000000000000000000000000081526004018080602001828103825283818151815260200191508051906020019080838360005b83811015612f3e578082015181840152602081019050612f23565b50505050905090810190601f168015612f6b5780820380516001836020036101000a031916815260200191505b509250505060405180910390fd5b5060008385039050809150509392505050565b6000612fe27345f783cce6b7ff23b2ab2d70e416cdb7d6055f51600073df5e0e81dff6faf3a7e52ba697820c5e32d806a873ffffffffffffffffffffffffffffffffffffffff16612cac9092919063ffffffff16565b6130357345f783cce6b7ff23b2ab2d70e416cdb7d6055f518373df5e0e81dff6faf3a7e52ba697820c5e32d806a873ffffffffffffffffffffffffffffffffffffffff16612cac9092919063ffffffff16565b7345f783cce6b7ff23b2ab2d70e416cdb7d6055f5173ffffffffffffffffffffffffffffffffffffffff16637d49d87583604051806080016040528060008152602001600081526020016000815260200160008152506040518363ffffffff1660e01b81526004018083815260200182600460200280838360005b838110156130cb5780820151818401526020810190506130b0565b5050505090500192505050600060405180830381600087803b1580156130f057600080fd5b505af1158015613104573d6000803e3d6000fd5b50505050600073d6ad7a6750a7593e092a9b218d66c0a814a3436e73ffffffffffffffffffffffffffffffffffffffff166370a08231306040518263ffffffff1660e01b8152600401808273ffffffffffffffffffffffffffffffffffffffff1673ffffffffffffffffffffffffffffffffffffffff16815260200191505060206040518083038186803b15801561319b57600080fd5b505afa1580156131af573d6000803e3d6000fd5b505050506040513d60208110156131c557600080fd5b8101908080519060200190929190505050905060007383f798e925bcd4017eb265844fddabb448f1707d73ffffffffffffffffffffffffffffffffffffffff166370a08231306040518263ffffffff1660e01b8152600401808273ffffffffffffffffffffffffffffffffffffffff1673ffffffffffffffffffffffffffffffffffffffff16815260200191505060206040518083038186803b15801561326b57600080fd5b505afa15801561327f573d6000803e3d6000fd5b505050506040513d602081101561329557600080fd5b8101908080519060200190929190505050905060007373a052500105205d34daf004eab301916da8190f73ffffffffffffffffffffffffffffffffffffffff166370a08231306040518263ffffffff1660e01b8152600401808273ffffffffffffffffffffffffffffffffffffffff1673ffffffffffffffffffffffffffffffffffffffff16815260200191505060206040518083038186803b15801561333b57600080fd5b505afa15801561334f573d6000803e3d6000fd5b505050506040513d602081101561336557600080fd5b8101908080519060200190929190505050905060008311156134c9576133d57345f783cce6b7ff23b2ab2d70e416cdb7d6055f51600073d6ad7a6750a7593e092a9b218d66c0a814a3436e73ffffffffffffffffffffffffffffffffffffffff16612cac9092919063ffffffff16565b6134287345f783cce6b7ff23b2ab2d70e416cdb7d6055f518473d6ad7a6750a7593e092a9b218d66c0a814a3436e73ffffffffffffffffffffffffffffffffffffffff16612cac9092919063ffffffff16565b7345f783cce6b7ff23b2ab2d70e416cdb7d6055f5173ffffffffffffffffffffffffffffffffffffffff16633df02124600160008660006040518563ffffffff1660e01b81526004018085600f0b815260200184600f0b8152602001838152602001828152602001945050505050600060405180830381600087803b1580156134b057600080fd5b505af11580156134c4573d6000803e3d6000fd5b505050505b600082111561361a576135267345f783cce6b7ff23b2ab2d70e416cdb7d6055f5160007383f798e925bcd4017eb265844fddabb448f1707d73ffffffffffffffffffffffffffffffffffffffff16612cac9092919063ffffffff16565b6135797345f783cce6b7ff23b2ab2d70e416cdb7d6055f51837383f798e925bcd4017eb265844fddabb448f1707d73ffffffffffffffffffffffffffffffffffffffff16612cac9092919063ffffffff16565b7345f783cce6b7ff23b2ab2d70e416cdb7d6055f5173ffffffffffffffffffffffffffffffffffffffff16633df02124600260008560006040518563ffffffff1660e01b81526004018085600f0b815260200184600f0b8152602001838152602001828152602001945050505050600060405180830381600087803b15801561360157600080fd5b505af1158015613615573d6000803e3d6000fd5b505050505b600081111561376b576136777345f783cce6b7ff23b2ab2d70e416cdb7d6055f5160007373a052500105205d34daf004eab301916da8190f73ffffffffffffffffffffffffffffffffffffffff16612cac9092919063ffffffff16565b6136ca7345f783cce6b7ff23b2ab2d70e416cdb7d6055f51827373a052500105205d34daf004eab301916da8190f73ffffffffffffffffffffffffffffffffffffffff16612cac9092919063ffffffff16565b7345f783cce6b7ff23b2ab2d70e416cdb7d6055f5173ffffffffffffffffffffffffffffffffffffffff16633df02124600360008460006040518563ffffffff1660e01b81526004018085600f0b815260200184600f0b8152602001838152602001828152602001945050505050600060405180830381600087803b15801561375257600080fd5b505af1158015613766573d6000803e3d6000fd5b505050505b6000736b175474e89094c44da98b954eedeac495271d0f73ffffffffffffffffffffffffffffffffffffffff166370a08231306040518263ffffffff1660e01b8152600401808273ffffffffffffffffffffffffffffffffffffffff1673ffffffffffffffffffffffffffffffffffffffff16815260200191505060206040518083038186803b1580156137fe57600080fd5b505afa158015613812573d6000803e3d6000fd5b505050506040513d602081101561382857600080fd5b810190808051906020019092919050505090507316de59092dae5ccf4a1e6439d611fd0653f0bd0173ffffffffffffffffffffffffffffffffffffffff16632e1a7d4d7316de59092dae5ccf4a1e6439d611fd0653f0bd0173ffffffffffffffffffffffffffffffffffffffff166370a08231306040518263ffffffff1660e01b8152600401808273ffffffffffffffffffffffffffffffffffffffff1673ffffffffffffffffffffffffffffffffffffffff16815260200191505060206040518083038186803b1580156138fc57600080fd5b505afa158015613910573d6000803e3d6000fd5b505050506040513d602081101561392657600080fd5b81019080805190602001909291905050506040518263ffffffff1660e01b815260040180828152602001915050600060405180830381600087803b15801561396d57600080fd5b505af1158015613981573d6000803e3d6000fd5b505050506000736b175474e89094c44da98b954eedeac495271d0f73ffffffffffffffffffffffffffffffffffffffff166370a08231306040518263ffffffff1660e01b8152600401808273ffffffffffffffffffffffffffffffffffffffff1673ffffffffffffffffffffffffffffffffffffffff16815260200191505060206040518083038186803b158015613a1857600080fd5b505afa158015613a2c573d6000803e3d6000fd5b505050506040513d6020811015613a4257600080fd5b81019080805190602001909291905050509050613a68828261240490919063ffffffff16565b95505050505050919050565b613a938273ffffffffffffffffffffffffffffffffffffffff16613d85565b613b05576040517f08c379a000000000000000000000000000000000000000000000000000000000815260040180806020018281038252601f8152602001807f5361666545524332303a2063616c6c20746f206e6f6e2d636f6e74726163740081525060200191505060405180910390fd5b600060608373ffffffffffffffffffffffffffffffffffffffff16836040518082805190602001908083835b60208310613b545780518252602082019150602081019050602083039250613b31565b6001836020036101000a0380198251168184511680821785525050505050509050019150506000604051808303816000865af19150503d8060008114613bb6576040519150601f19603f3d011682016040523d82523d6000602084013e613bbb565b606091505b509150915081613c33576040517f08c379a00000000000000000000000000000000000000000000000000000000081526004018080602001828103825260208152602001807f5361666545524332303a206c6f772d6c6576656c2063616c6c206661696c656481525060200191505060405180910390fd5b600081511115613cb957808060200190516020811015613c5257600080fd5b8101908080519060200190929190505050613cb8576040517f08c379a000000000000000000000000000000000000000000000000000000000815260040180806020018281038252602a815260200180613df2602a913960400191505060405180910390fd5b5b50505050565b60008083118290613d6b576040517f08c379a00000000000000000000000000000000000000000000000000000000081526004018080602001828103825283818151815260200191508051906020019080838360005b83811015613d30578082015181840152602081019050613d15565b50505050905090810190601f168015613d5d5780820380516001836020036101000a031916815260200191505b509250505060405180910390fd5b506000838581613d7757fe5b049050809150509392505050565b60008060007fc5d2460186f7233c927e7db2dcc703c0e500b653ca82273b7bfad8045d85a47060001b9050833f9150808214158015613dc757506000801b8214155b9250505091905056fe536166654d6174683a206d756c7469706c69636174696f6e206f766572666c6f775361666545524332303a204552433230206f7065726174696f6e20646964206e6f7420737563636565645361666545524332303a20617070726f76652066726f6d206e6f6e2d7a65726f20746f206e6f6e2d7a65726f20616c6c6f77616e6365a265627a7a723158200bea3a2793058c807ab1300c75a7961040ef0c38a3d9f016432beb00f923416f64736f6c63430005110032",
  "compiler": {
    "name": "solc",
    "version": "0.5.17+commit.d19bba13.Emscripten.clang",
    "optimizer": {
      "enabled": false,
      "runs": 200
    },
    "evmVersion": "istanbul"
  }
}