{
  "contractName": "StrategyProxy",
  "abi": [
    {
      "inputs": [
        {
          "internalType": "address",
          "name": "_proxy",
          "type": "address"
        }
      ],
      "payable": false,
      "stateMutability": "nonpayable",
      "type": "constructor"
    },
    {
      "constant": true,
      "inputs": [],
      "name": "crv",
      "outputs": [
        {
          "internalType": "address",
          "name": "",
          "type": "address"
        }
      ],
      "payable": false,
      "stateMutability": "view",
      "type": "function"
    },
    {
      "constant": true,
      "inputs": [],
      "name": "gauge",
      "outputs": [
        {
          "internalType": "address",
          "name": "",
          "type": "address"
        }
      ],
      "payable": false,
      "stateMutability": "view",
      "type": "function"
    },
    {
      "constant": true,
      "inputs": [],
      "name": "governance",
      "outputs": [
        {
          "internalType": "address",
          "name": "",
          "type": "address"
        }
      ],
      "payable": false,
      "stateMutability": "view",
      "type": "function"
    },
    {
      "constant": true,
      "inputs": [],
      "name": "mintr",
      "outputs": [
        {
          "internalType": "address",
          "name": "",
          "type": "address"
        }
      ],
      "payable": false,
      "stateMutability": "view",
      "type": "function"
    },
    {
      "constant": true,
      "inputs": [],
      "name": "proxy",
      "outputs": [
        {
          "internalType": "contract Proxy",
          "name": "",
          "type": "address"
        }
      ],
      "payable": false,
      "stateMutability": "view",
      "type": "function"
    },
    {
      "constant": true,
      "inputs": [
        {
          "internalType": "address",
          "name": "",
          "type": "address"
        }
      ],
      "name": "strategies",
      "outputs": [
        {
          "internalType": "bool",
          "name": "",
          "type": "bool"
        }
      ],
      "payable": false,
      "stateMutability": "view",
      "type": "function"
    },
    {
      "constant": true,
      "inputs": [],
      "name": "y",
      "outputs": [
        {
          "internalType": "address",
          "name": "",
          "type": "address"
        }
      ],
      "payable": false,
      "stateMutability": "view",
      "type": "function"
    },
    {
      "constant": false,
      "inputs": [
        {
          "internalType": "address",
          "name": "_governance",
          "type": "address"
        }
      ],
      "name": "setGovernance",
      "outputs": [],
      "payable": false,
      "stateMutability": "nonpayable",
      "type": "function"
    },
    {
      "constant": false,
      "inputs": [
        {
          "internalType": "address",
          "name": "_strategy",
          "type": "address"
        }
      ],
      "name": "approveStrategy",
      "outputs": [],
      "payable": false,
      "stateMutability": "nonpayable",
      "type": "function"
    },
    {
      "constant": false,
      "inputs": [
        {
          "internalType": "address",
          "name": "_strategy",
          "type": "address"
        }
      ],
      "name": "revokeStrategy",
      "outputs": [],
      "payable": false,
      "stateMutability": "nonpayable",
      "type": "function"
    },
    {
      "constant": false,
      "inputs": [],
      "name": "lock",
      "outputs": [],
      "payable": false,
      "stateMutability": "nonpayable",
      "type": "function"
    },
    {
      "constant": false,
      "inputs": [
        {
          "internalType": "address",
          "name": "_gauge",
          "type": "address"
        },
        {
          "internalType": "uint256",
          "name": "_amount",
          "type": "uint256"
        }
      ],
      "name": "vote",
      "outputs": [],
      "payable": false,
      "stateMutability": "nonpayable",
      "type": "function"
    },
    {
      "constant": false,
      "inputs": [
        {
          "internalType": "address",
          "name": "_gauge",
          "type": "address"
        },
        {
          "internalType": "address",
          "name": "_token",
          "type": "address"
        },
        {
          "internalType": "uint256",
          "name": "_amount",
          "type": "uint256"
        }
      ],
      "name": "withdraw",
      "outputs": [
        {
          "internalType": "uint256",
          "name": "",
          "type": "uint256"
        }
      ],
      "payable": false,
      "stateMutability": "nonpayable",
      "type": "function"
    },
    {
      "constant": true,
      "inputs": [
        {
          "internalType": "address",
          "name": "_gauge",
          "type": "address"
        }
      ],
      "name": "balanceOf",
      "outputs": [
        {
          "internalType": "uint256",
          "name": "",
          "type": "uint256"
        }
      ],
      "payable": false,
      "stateMutability": "view",
      "type": "function"
    },
    {
      "constant": false,
      "inputs": [
        {
          "internalType": "address",
          "name": "_gauge",
          "type": "address"
        },
        {
          "internalType": "address",
          "name": "_token",
          "type": "address"
        }
      ],
      "name": "withdrawAll",
      "outputs": [
        {
          "internalType": "uint256",
          "name": "",
          "type": "uint256"
        }
      ],
      "payable": false,
      "stateMutability": "nonpayable",
      "type": "function"
    },
    {
      "constant": false,
      "inputs": [
        {
          "internalType": "address",
          "name": "_gauge",
          "type": "address"
        },
        {
          "internalType": "address",
          "name": "_token",
          "type": "address"
        }
      ],
      "name": "deposit",
      "outputs": [],
      "payable": false,
      "stateMutability": "nonpayable",
      "type": "function"
    },
    {
      "constant": false,
      "inputs": [
        {
          "internalType": "address",
          "name": "_gauge",
          "type": "address"
        }
      ],
      "name": "harvest",
      "outputs": [],
      "payable": false,
      "stateMutability": "nonpayable",
      "type": "function"
    }
  ],
  "bytecode": "0x608060405234801561001057600080fd5b506040516132c93803806132c98339818101604052602081101561003357600080fd5b810190808051906020019092919050505033600260006101000a81548173ffffffffffffffffffffffffffffffffffffffff021916908373ffffffffffffffffffffffffffffffffffffffff160217905550806000806101000a81548173ffffffffffffffffffffffffffffffffffffffff021916908373ffffffffffffffffffffffffffffffffffffffff160217905550506131f4806100d56000396000f3fe608060405234801561001057600080fd5b506004361061010b5760003560e01c8063a56dfe4a116100a2578063d1e61dcb11610071578063d1e61dcb146104c2578063d9caed121461050c578063ec5568891461058e578063f83d08ba146105d8578063f9609f08146105e25761010b565b8063a56dfe4a146103a6578063a6f19c84146103f0578063ab033ea91461043a578063bb994d481461047e5761010b565b80635aa6e675116100de5780635aa6e6751461026c5780635f74bbde146102b65780636a4874a11461030457806370a082311461034e5761010b565b806309cae2c8146101105780630e5c011e1461018857806339ebf823146101cc5780633b8ae39714610228575b600080fd5b6101726004803603604081101561012657600080fd5b81019080803573ffffffffffffffffffffffffffffffffffffffff169060200190929190803573ffffffffffffffffffffffffffffffffffffffff169060200190929190505050610646565b6040518082815260200191505060405180910390f35b6101ca6004803603602081101561019e57600080fd5b81019080803573ffffffffffffffffffffffffffffffffffffffff169060200190929190505050610722565b005b61020e600480360360208110156101e257600080fd5b81019080803573ffffffffffffffffffffffffffffffffffffffff169060200190929190505050610fb8565b604051808215151515815260200191505060405180910390f35b61026a6004803603602081101561023e57600080fd5b81019080803573ffffffffffffffffffffffffffffffffffffffff169060200190929190505050610fd8565b005b6102746110f5565b604051808273ffffffffffffffffffffffffffffffffffffffff1673ffffffffffffffffffffffffffffffffffffffff16815260200191505060405180910390f35b610302600480360360408110156102cc57600080fd5b81019080803573ffffffffffffffffffffffffffffffffffffffff1690602001909291908035906020019092919050505061111b565b005b61030c6114ce565b604051808273ffffffffffffffffffffffffffffffffffffffff1673ffffffffffffffffffffffffffffffffffffffff16815260200191505060405180910390f35b6103906004803603602081101561036457600080fd5b81019080803573ffffffffffffffffffffffffffffffffffffffff1690602001909291905050506114e6565b6040518082815260200191505060405180910390f35b6103ae6115c8565b604051808273ffffffffffffffffffffffffffffffffffffffff1673ffffffffffffffffffffffffffffffffffffffff16815260200191505060405180910390f35b6103f86115e0565b604051808273ffffffffffffffffffffffffffffffffffffffff1673ffffffffffffffffffffffffffffffffffffffff16815260200191505060405180910390f35b61047c6004803603602081101561045057600080fd5b81019080803573ffffffffffffffffffffffffffffffffffffffff1690602001909291905050506115f8565b005b6104c06004803603602081101561049457600080fd5b81019080803573ffffffffffffffffffffffffffffffffffffffff1690602001909291905050506116ff565b005b6104ca61181d565b604051808273ffffffffffffffffffffffffffffffffffffffff1673ffffffffffffffffffffffffffffffffffffffff16815260200191505060405180910390f35b6105786004803603606081101561052257600080fd5b81019080803573ffffffffffffffffffffffffffffffffffffffff169060200190929190803573ffffffffffffffffffffffffffffffffffffffff16906020019092919080359060200190929190505050611835565b6040518082815260200191505060405180910390f35b610596612058565b604051808273ffffffffffffffffffffffffffffffffffffffff1673ffffffffffffffffffffffffffffffffffffffff16815260200191505060405180910390f35b6105e061207d565b005b610644600480360360408110156105f857600080fd5b81019080803573ffffffffffffffffffffffffffffffffffffffff169060200190929190803573ffffffffffffffffffffffffffffffffffffffff169060200190929190505050612207565b005b6000600160003373ffffffffffffffffffffffffffffffffffffffff1673ffffffffffffffffffffffffffffffffffffffff16815260200190815260200160002060009054906101000a900460ff16610707576040517f08c379a00000000000000000000000000000000000000000000000000000000081526004018080602001828103825260098152602001807f217374726174656779000000000000000000000000000000000000000000000081525060200191505060405180910390fd5b61071a8383610715866114e6565b611835565b905092915050565b600160003373ffffffffffffffffffffffffffffffffffffffff1673ffffffffffffffffffffffffffffffffffffffff16815260200190815260200160002060009054906101000a900460ff166107e1576040517f08c379a00000000000000000000000000000000000000000000000000000000081526004018080602001828103825260098152602001807f217374726174656779000000000000000000000000000000000000000000000081525060200191505060405180910390fd5b600073d533a949740bb3306d119cc777fa900ba034cd5273ffffffffffffffffffffffffffffffffffffffff166370a082316000809054906101000a900473ffffffffffffffffffffffffffffffffffffffff166040518263ffffffff1660e01b8152600401808273ffffffffffffffffffffffffffffffffffffffff1673ffffffffffffffffffffffffffffffffffffffff16815260200191505060206040518083038186803b15801561089557600080fd5b505afa1580156108a9573d6000803e3d6000fd5b505050506040513d60208110156108bf57600080fd5b810190808051906020019092919050505090506000809054906101000a900473ffffffffffffffffffffffffffffffffffffffff1673ffffffffffffffffffffffffffffffffffffffff1663b61d27f673d061d61a4d941c39e5453435b6345dc261c2fce0600085604051602401808273ffffffffffffffffffffffffffffffffffffffff1673ffffffffffffffffffffffffffffffffffffffff1681526020019150506040516020818303038152906040527f6a627842000000000000000000000000000000000000000000000000000000007bffffffffffffffffffffffffffffffffffffffffffffffffffffffff19166020820180517bffffffffffffffffffffffffffffffffffffffffffffffffffffffff83818316178352505050506040518463ffffffff1660e01b8152600401808473ffffffffffffffffffffffffffffffffffffffff1673ffffffffffffffffffffffffffffffffffffffff16815260200183815260200180602001828103825283818151815260200191508051906020019080838360005b83811015610a67578082015181840152602081019050610a4c565b50505050905090810190601f168015610a945780820380516001836020036101000a031916815260200191505b50945050505050600060405180830381600087803b158015610ab557600080fd5b505af1158015610ac9573d6000803e3d6000fd5b505050506040513d6000823e3d601f19601f820116820180604052506040811015610af357600080fd5b810190808051906020019092919080516040519392919084640100000000821115610b1d57600080fd5b83820191506020820185811115610b3357600080fd5b8251866001820283011164010000000082111715610b5057600080fd5b8083526020830192505050908051906020019080838360005b83811015610b84578082015181840152602081019050610b69565b50505050905090810190601f168015610bb15780820380516001836020036101000a031916815260200191505b506040525050505050600073d533a949740bb3306d119cc777fa900ba034cd5273ffffffffffffffffffffffffffffffffffffffff166370a082316000809054906101000a900473ffffffffffffffffffffffffffffffffffffffff166040518263ffffffff1660e01b8152600401808273ffffffffffffffffffffffffffffffffffffffff1673ffffffffffffffffffffffffffffffffffffffff16815260200191505060206040518083038186803b158015610c6e57600080fd5b505afa158015610c82573d6000803e3d6000fd5b505050506040513d6020811015610c9857600080fd5b810190808051906020019092919050505090506000610cc08383612d2490919063ffffffff16565b90506000809054906101000a900473ffffffffffffffffffffffffffffffffffffffff1673ffffffffffffffffffffffffffffffffffffffff1663b61d27f673d533a949740bb3306d119cc777fa900ba034cd5260003385604051602401808373ffffffffffffffffffffffffffffffffffffffff1673ffffffffffffffffffffffffffffffffffffffff168152602001828152602001925050506040516020818303038152906040527fa9059cbb000000000000000000000000000000000000000000000000000000007bffffffffffffffffffffffffffffffffffffffffffffffffffffffff19166020820180517bffffffffffffffffffffffffffffffffffffffffffffffffffffffff83818316178352505050506040518463ffffffff1660e01b8152600401808473ffffffffffffffffffffffffffffffffffffffff1673ffffffffffffffffffffffffffffffffffffffff16815260200183815260200180602001828103825283818151815260200191508051906020019080838360005b83811015610e5f578082015181840152602081019050610e44565b50505050905090810190601f168015610e8c5780820380516001836020036101000a031916815260200191505b50945050505050600060405180830381600087803b158015610ead57600080fd5b505af1158015610ec1573d6000803e3d6000fd5b505050506040513d6000823e3d601f19601f820116820180604052506040811015610eeb57600080fd5b810190808051906020019092919080516040519392919084640100000000821115610f1557600080fd5b83820191506020820185811115610f2b57600080fd5b8251866001820283011164010000000082111715610f4857600080fd5b8083526020830192505050908051906020019080838360005b83811015610f7c578082015181840152602081019050610f61565b50505050905090810190601f168015610fa95780820380516001836020036101000a031916815260200191505b50604052505050505050505050565b60016020528060005260406000206000915054906101000a900460ff1681565b600260009054906101000a900473ffffffffffffffffffffffffffffffffffffffff1673ffffffffffffffffffffffffffffffffffffffff163373ffffffffffffffffffffffffffffffffffffffff161461109b576040517f08c379a000000000000000000000000000000000000000000000000000000000815260040180806020018281038252600b8152602001807f21676f7665726e616e636500000000000000000000000000000000000000000081525060200191505060405180910390fd5b60018060008373ffffffffffffffffffffffffffffffffffffffff1673ffffffffffffffffffffffffffffffffffffffff16815260200190815260200160002060006101000a81548160ff02191690831515021790555050565b600260009054906101000a900473ffffffffffffffffffffffffffffffffffffffff1681565b600160003373ffffffffffffffffffffffffffffffffffffffff1673ffffffffffffffffffffffffffffffffffffffff16815260200190815260200160002060009054906101000a900460ff166111da576040517f08c379a00000000000000000000000000000000000000000000000000000000081526004018080602001828103825260098152602001807f217374726174656779000000000000000000000000000000000000000000000081525060200191505060405180910390fd5b6000809054906101000a900473ffffffffffffffffffffffffffffffffffffffff1673ffffffffffffffffffffffffffffffffffffffff1663b61d27f6732f50d538606fa9edd2b11e2446beb18c9d5846bb60008585604051602401808373ffffffffffffffffffffffffffffffffffffffff1673ffffffffffffffffffffffffffffffffffffffff168152602001828152602001925050506040516020818303038152906040527fd7136328000000000000000000000000000000000000000000000000000000007bffffffffffffffffffffffffffffffffffffffffffffffffffffffff19166020820180517bffffffffffffffffffffffffffffffffffffffffffffffffffffffff83818316178352505050506040518463ffffffff1660e01b8152600401808473ffffffffffffffffffffffffffffffffffffffff1673ffffffffffffffffffffffffffffffffffffffff16815260200183815260200180602001828103825283818151815260200191508051906020019080838360005b8381101561137757808201518184015260208101905061135c565b50505050905090810190601f1680156113a45780820380516001836020036101000a031916815260200191505b50945050505050600060405180830381600087803b1580156113c557600080fd5b505af11580156113d9573d6000803e3d6000fd5b505050506040513d6000823e3d601f19601f82011682018060405250604081101561140357600080fd5b81019080805190602001909291908051604051939291908464010000000082111561142d57600080fd5b8382019150602082018581111561144357600080fd5b825186600182028301116401000000008211171561146057600080fd5b8083526020830192505050908051906020019080838360005b83811015611494578082015181840152602081019050611479565b50505050905090810190601f1680156114c15780820380516001836020036101000a031916815260200191505b5060405250505050505050565b73d533a949740bb3306d119cc777fa900ba034cd5281565b60008173ffffffffffffffffffffffffffffffffffffffff166370a082316000809054906101000a900473ffffffffffffffffffffffffffffffffffffffff166040518263ffffffff1660e01b8152600401808273ffffffffffffffffffffffffffffffffffffffff1673ffffffffffffffffffffffffffffffffffffffff16815260200191505060206040518083038186803b15801561158657600080fd5b505afa15801561159a573d6000803e3d6000fd5b505050506040513d60208110156115b057600080fd5b81019080805190602001909291905050509050919050565b73fa712ee4788c042e2b7bb55e6cb8ec569c4530c181565b732f50d538606fa9edd2b11e2446beb18c9d5846bb81565b600260009054906101000a900473ffffffffffffffffffffffffffffffffffffffff1673ffffffffffffffffffffffffffffffffffffffff163373ffffffffffffffffffffffffffffffffffffffff16146116bb576040517f08c379a000000000000000000000000000000000000000000000000000000000815260040180806020018281038252600b8152602001807f21676f7665726e616e636500000000000000000000000000000000000000000081525060200191505060405180910390fd5b80600260006101000a81548173ffffffffffffffffffffffffffffffffffffffff021916908373ffffffffffffffffffffffffffffffffffffffff16021790555050565b600260009054906101000a900473ffffffffffffffffffffffffffffffffffffffff1673ffffffffffffffffffffffffffffffffffffffff163373ffffffffffffffffffffffffffffffffffffffff16146117c2576040517f08c379a000000000000000000000000000000000000000000000000000000000815260040180806020018281038252600b8152602001807f21676f7665726e616e636500000000000000000000000000000000000000000081525060200191505060405180910390fd5b6000600160008373ffffffffffffffffffffffffffffffffffffffff1673ffffffffffffffffffffffffffffffffffffffff16815260200190815260200160002060006101000a81548160ff02191690831515021790555050565b73d061d61a4d941c39e5453435b6345dc261c2fce081565b6000600160003373ffffffffffffffffffffffffffffffffffffffff1673ffffffffffffffffffffffffffffffffffffffff16815260200190815260200160002060009054906101000a900460ff166118f6576040517f08c379a00000000000000000000000000000000000000000000000000000000081526004018080602001828103825260098152602001807f217374726174656779000000000000000000000000000000000000000000000081525060200191505060405180910390fd5b60008373ffffffffffffffffffffffffffffffffffffffff166370a082316000809054906101000a900473ffffffffffffffffffffffffffffffffffffffff166040518263ffffffff1660e01b8152600401808273ffffffffffffffffffffffffffffffffffffffff1673ffffffffffffffffffffffffffffffffffffffff16815260200191505060206040518083038186803b15801561199657600080fd5b505afa1580156119aa573d6000803e3d6000fd5b505050506040513d60208110156119c057600080fd5b810190808051906020019092919050505090506000809054906101000a900473ffffffffffffffffffffffffffffffffffffffff1673ffffffffffffffffffffffffffffffffffffffff1663b61d27f686600086604051602401808281526020019150506040516020818303038152906040527f2e1a7d4d000000000000000000000000000000000000000000000000000000007bffffffffffffffffffffffffffffffffffffffffffffffffffffffff19166020820180517bffffffffffffffffffffffffffffffffffffffffffffffffffffffff83818316178352505050506040518463ffffffff1660e01b8152600401808473ffffffffffffffffffffffffffffffffffffffff1673ffffffffffffffffffffffffffffffffffffffff16815260200183815260200180602001828103825283818151815260200191508051906020019080838360005b83811015611b28578082015181840152602081019050611b0d565b50505050905090810190601f168015611b555780820380516001836020036101000a031916815260200191505b50945050505050600060405180830381600087803b158015611b7657600080fd5b505af1158015611b8a573d6000803e3d6000fd5b505050506040513d6000823e3d601f19601f820116820180604052506040811015611bb457600080fd5b810190808051906020019092919080516040519392919084640100000000821115611bde57600080fd5b83820191506020820185811115611bf457600080fd5b8251866001820283011164010000000082111715611c1157600080fd5b8083526020830192505050908051906020019080838360005b83811015611c45578082015181840152602081019050611c2a565b50505050905090810190601f168015611c725780820380516001836020036101000a031916815260200191505b50604052505050505060008473ffffffffffffffffffffffffffffffffffffffff166370a082316000809054906101000a900473ffffffffffffffffffffffffffffffffffffffff166040518263ffffffff1660e01b8152600401808273ffffffffffffffffffffffffffffffffffffffff1673ffffffffffffffffffffffffffffffffffffffff16815260200191505060206040518083038186803b158015611d1b57600080fd5b505afa158015611d2f573d6000803e3d6000fd5b505050506040513d6020811015611d4557600080fd5b810190808051906020019092919050505090506000611d6d8383612d2490919063ffffffff16565b90506000809054906101000a900473ffffffffffffffffffffffffffffffffffffffff1673ffffffffffffffffffffffffffffffffffffffff1663b61d27f68760003385604051602401808373ffffffffffffffffffffffffffffffffffffffff1673ffffffffffffffffffffffffffffffffffffffff168152602001828152602001925050506040516020818303038152906040527fa9059cbb000000000000000000000000000000000000000000000000000000007bffffffffffffffffffffffffffffffffffffffffffffffffffffffff19166020820180517bffffffffffffffffffffffffffffffffffffffffffffffffffffffff83818316178352505050506040518463ffffffff1660e01b8152600401808473ffffffffffffffffffffffffffffffffffffffff1673ffffffffffffffffffffffffffffffffffffffff16815260200183815260200180602001828103825283818151815260200191508051906020019080838360005b83811015611ef8578082015181840152602081019050611edd565b50505050905090810190601f168015611f255780820380516001836020036101000a031916815260200191505b50945050505050600060405180830381600087803b158015611f4657600080fd5b505af1158015611f5a573d6000803e3d6000fd5b505050506040513d6000823e3d601f19601f820116820180604052506040811015611f8457600080fd5b810190808051906020019092919080516040519392919084640100000000821115611fae57600080fd5b83820191506020820185811115611fc457600080fd5b8251866001820283011164010000000082111715611fe157600080fd5b8083526020830192505050908051906020019080838360005b83811015612015578082015181840152602081019050611ffa565b50505050905090810190601f1680156120425780820380516001836020036101000a031916815260200191505b5060405250505050508093505050509392505050565b6000809054906101000a900473ffffffffffffffffffffffffffffffffffffffff1681565b600073d533a949740bb3306d119cc777fa900ba034cd5273ffffffffffffffffffffffffffffffffffffffff166370a082316000809054906101000a900473ffffffffffffffffffffffffffffffffffffffff166040518263ffffffff1660e01b8152600401808273ffffffffffffffffffffffffffffffffffffffff1673ffffffffffffffffffffffffffffffffffffffff16815260200191505060206040518083038186803b15801561213157600080fd5b505afa158015612145573d6000803e3d6000fd5b505050506040513d602081101561215b57600080fd5b810190808051906020019092919050505090506000811115612204576000809054906101000a900473ffffffffffffffffffffffffffffffffffffffff1673ffffffffffffffffffffffffffffffffffffffff166315456eba826040518263ffffffff1660e01b815260040180828152602001915050600060405180830381600087803b1580156121eb57600080fd5b505af11580156121ff573d6000803e3d6000fd5b505050505b50565b600160003373ffffffffffffffffffffffffffffffffffffffff1673ffffffffffffffffffffffffffffffffffffffff16815260200190815260200160002060009054906101000a900460ff166122c6576040517f08c379a00000000000000000000000000000000000000000000000000000000081526004018080602001828103825260098152602001807f217374726174656779000000000000000000000000000000000000000000000081525060200191505060405180910390fd5b60008173ffffffffffffffffffffffffffffffffffffffff166370a08231306040518263ffffffff1660e01b8152600401808273ffffffffffffffffffffffffffffffffffffffff1673ffffffffffffffffffffffffffffffffffffffff16815260200191505060206040518083038186803b15801561234557600080fd5b505afa158015612359573d6000803e3d6000fd5b505050506040513d602081101561236f57600080fd5b810190808051906020019092919050505090506123ce6000809054906101000a900473ffffffffffffffffffffffffffffffffffffffff16828473ffffffffffffffffffffffffffffffffffffffff16612d6e9092919063ffffffff16565b8173ffffffffffffffffffffffffffffffffffffffff166370a082316000809054906101000a900473ffffffffffffffffffffffffffffffffffffffff166040518263ffffffff1660e01b8152600401808273ffffffffffffffffffffffffffffffffffffffff1673ffffffffffffffffffffffffffffffffffffffff16815260200191505060206040518083038186803b15801561246c57600080fd5b505afa158015612480573d6000803e3d6000fd5b505050506040513d602081101561249657600080fd5b810190808051906020019092919050505090506000809054906101000a900473ffffffffffffffffffffffffffffffffffffffff1673ffffffffffffffffffffffffffffffffffffffff1663b61d27f6836000866000604051602401808373ffffffffffffffffffffffffffffffffffffffff1673ffffffffffffffffffffffffffffffffffffffff1681526020018260ff168152602001925050506040516020818303038152906040527f095ea7b3000000000000000000000000000000000000000000000000000000007bffffffffffffffffffffffffffffffffffffffffffffffffffffffff19166020820180517bffffffffffffffffffffffffffffffffffffffffffffffffffffffff83818316178352505050506040518463ffffffff1660e01b8152600401808473ffffffffffffffffffffffffffffffffffffffff1673ffffffffffffffffffffffffffffffffffffffff16815260200183815260200180602001828103825283818151815260200191508051906020019080838360005b8381101561263657808201518184015260208101905061261b565b50505050905090810190601f1680156126635780820380516001836020036101000a031916815260200191505b50945050505050600060405180830381600087803b15801561268457600080fd5b505af1158015612698573d6000803e3d6000fd5b505050506040513d6000823e3d601f19601f8201168201806040525060408110156126c257600080fd5b8101908080519060200190929190805160405193929190846401000000008211156126ec57600080fd5b8382019150602082018581111561270257600080fd5b825186600182028301116401000000008211171561271f57600080fd5b8083526020830192505050908051906020019080838360005b83811015612753578082015181840152602081019050612738565b50505050905090810190601f1680156127805780820380516001836020036101000a031916815260200191505b5060405250505050506000809054906101000a900473ffffffffffffffffffffffffffffffffffffffff1673ffffffffffffffffffffffffffffffffffffffff1663b61d27f68360008685604051602401808373ffffffffffffffffffffffffffffffffffffffff1673ffffffffffffffffffffffffffffffffffffffff168152602001828152602001925050506040516020818303038152906040527f095ea7b3000000000000000000000000000000000000000000000000000000007bffffffffffffffffffffffffffffffffffffffffffffffffffffffff19166020820180517bffffffffffffffffffffffffffffffffffffffffffffffffffffffff83818316178352505050506040518463ffffffff1660e01b8152600401808473ffffffffffffffffffffffffffffffffffffffff1673ffffffffffffffffffffffffffffffffffffffff16815260200183815260200180602001828103825283818151815260200191508051906020019080838360005b838110156129125780820151818401526020810190506128f7565b50505050905090810190601f16801561293f5780820380516001836020036101000a031916815260200191505b50945050505050600060405180830381600087803b15801561296057600080fd5b505af1158015612974573d6000803e3d6000fd5b505050506040513d6000823e3d601f19601f82011682018060405250604081101561299e57600080fd5b8101908080519060200190929190805160405193929190846401000000008211156129c857600080fd5b838201915060208201858111156129de57600080fd5b82518660018202830111640100000000821117156129fb57600080fd5b8083526020830192505050908051906020019080838360005b83811015612a2f578082015181840152602081019050612a14565b50505050905090810190601f168015612a5c5780820380516001836020036101000a031916815260200191505b50604052505050505060008060009054906101000a900473ffffffffffffffffffffffffffffffffffffffff1673ffffffffffffffffffffffffffffffffffffffff1663b61d27f685600085604051602401808281526020019150506040516020818303038152906040527fb6b55f25000000000000000000000000000000000000000000000000000000007bffffffffffffffffffffffffffffffffffffffffffffffffffffffff19166020820180517bffffffffffffffffffffffffffffffffffffffffffffffffffffffff83818316178352505050506040518463ffffffff1660e01b8152600401808473ffffffffffffffffffffffffffffffffffffffff1673ffffffffffffffffffffffffffffffffffffffff16815260200183815260200180602001828103825283818151815260200191508051906020019080838360005b83811015612bbc578082015181840152602081019050612ba1565b50505050905090810190601f168015612be95780820380516001836020036101000a031916815260200191505b50945050505050600060405180830381600087803b158015612c0a57600080fd5b505af1158015612c1e573d6000803e3d6000fd5b505050506040513d6000823e3d601f19601f820116820180604052506040811015612c4857600080fd5b810190808051906020019092919080516040519392919084640100000000821115612c7257600080fd5b83820191506020820185811115612c8857600080fd5b8251866001820283011164010000000082111715612ca557600080fd5b8083526020830192505050908051906020019080838360005b83811015612cd9578082015181840152602081019050612cbe565b50505050905090810190601f168015612d065780820380516001836020036101000a031916815260200191505b5060405250505050905080612d1e576000612d1d57fe5b5b50505050565b6000612d6683836040518060400160405280601e81526020017f536166654d6174683a207375627472616374696f6e206f766572666c6f770000815250612e3f565b905092915050565b612e3a838473ffffffffffffffffffffffffffffffffffffffff1663a9059cbb905060e01b8484604051602401808373ffffffffffffffffffffffffffffffffffffffff1673ffffffffffffffffffffffffffffffffffffffff16815260200182815260200192505050604051602081830303815290604052907bffffffffffffffffffffffffffffffffffffffffffffffffffffffff19166020820180517bffffffffffffffffffffffffffffffffffffffffffffffffffffffff8381831617835250505050612eff565b505050565b6000838311158290612eec576040517f08c379a00000000000000000000000000000000000000000000000000000000081526004018080602001828103825283818151815260200191508051906020019080838360005b83811015612eb1578082015181840152602081019050612e96565b50505050905090810190601f168015612ede5780820380516001836020036101000a031916815260200191505b509250505060405180910390fd5b5060008385039050809150509392505050565b612f1e8273ffffffffffffffffffffffffffffffffffffffff1661314a565b612f90576040517f08c379a000000000000000000000000000000000000000000000000000000000815260040180806020018281038252601f8152602001807f5361666545524332303a2063616c6c20746f206e6f6e2d636f6e74726163740081525060200191505060405180910390fd5b600060608373ffffffffffffffffffffffffffffffffffffffff16836040518082805190602001908083835b60208310612fdf5780518252602082019150602081019050602083039250612fbc565b6001836020036101000a0380198251168184511680821785525050505050509050019150506000604051808303816000865af19150503d8060008114613041576040519150601f19603f3d011682016040523d82523d6000602084013e613046565b606091505b5091509150816130be576040517f08c379a00000000000000000000000000000000000000000000000000000000081526004018080602001828103825260208152602001807f5361666545524332303a206c6f772d6c6576656c2063616c6c206661696c656481525060200191505060405180910390fd5b600081511115613144578080602001905160208110156130dd57600080fd5b8101908080519060200190929190505050613143576040517f08c379a000000000000000000000000000000000000000000000000000000000815260040180806020018281038252602a815260200180613196602a913960400191505060405180910390fd5b5b50505050565b60008060007fc5d2460186f7233c927e7db2dcc703c0e500b653ca82273b7bfad8045d85a47060001b9050833f915080821415801561318c57506000801b8214155b9250505091905056fe5361666545524332303a204552433230206f7065726174696f6e20646964206e6f742073756363656564a265627a7a72315820b9264b7a19389f101eb621059e0e77706981de29d89a46a93f477996000b296664736f6c63430005110032",
  "source": "// SPDX-License-Identifier: MIT\n\npragma solidity ^0.5.17;\n\nimport \"@openzeppelin/contracts/token/ERC20/IERC20.sol\";\nimport \"@openzeppelin/contracts/math/SafeMath.sol\";\nimport \"@openzeppelin/contracts/utils/Address.sol\";\nimport \"@openzeppelin/contracts/token/ERC20/SafeERC20.sol\";\n\nimport \"../interfaces/yearn/Proxy.sol\";\nimport \"../interfaces/curve/Mintr.sol\";\n\ncontract StrategyProxy {\n    using SafeERC20 for IERC20;\n    using Address for address;\n    using SafeMath for uint256;\n\n    Proxy public proxy;\n    address public constant mintr = address(0xd061D61a4d941c39E5453435B6345Dc261C2fcE0);\n    address public constant crv = address(0xD533a949740bb3306d119CC777fa900bA034cd52);\n    address public constant gauge = address(0x2F50D538606Fa9EDD2B11E2446BEb18C9D5846bB);\n    address public constant y = address(0xFA712EE4788C042e2B7BB55E6cb8ec569C4530c1);\n\n    mapping(address => bool) public strategies;\n    address public governance;\n\n    constructor(address _proxy) public {\n        governance = msg.sender;\n        proxy = Proxy(_proxy);\n    }\n\n    function setGovernance(address _governance) external {\n        require(msg.sender == governance, \"!governance\");\n        governance = _governance;\n    }\n\n    function approveStrategy(address _strategy) external {\n        require(msg.sender == governance, \"!governance\");\n        strategies[_strategy] = true;\n    }\n\n    function revokeStrategy(address _strategy) external {\n        require(msg.sender == governance, \"!governance\");\n        strategies[_strategy] = false;\n    }\n\n    function lock() external {\n        uint256 amount = IERC20(crv).balanceOf(address(proxy));\n        if (amount > 0) proxy.increaseAmount(amount);\n    }\n\n    function vote(address _gauge, uint256 _amount) public {\n        require(strategies[msg.sender], \"!strategy\");\n        proxy.execute(gauge, 0, abi.encodeWithSignature(\"vote_for_gauge_weights(address,uint256)\", _gauge, _amount));\n    }\n\n    function withdraw(\n        address _gauge,\n        address _token,\n        uint256 _amount\n    ) public returns (uint256) {\n        require(strategies[msg.sender], \"!strategy\");\n        uint256 _before = IERC20(_token).balanceOf(address(proxy));\n        proxy.execute(_gauge, 0, abi.encodeWithSignature(\"withdraw(uint256)\", _amount));\n        uint256 _after = IERC20(_token).balanceOf(address(proxy));\n        uint256 _net = _after.sub(_before);\n        proxy.execute(_token, 0, abi.encodeWithSignature(\"transfer(address,uint256)\", msg.sender, _net));\n        return _net;\n    }\n\n    function balanceOf(address _gauge) public view returns (uint256) {\n        return IERC20(_gauge).balanceOf(address(proxy));\n    }\n\n    function withdrawAll(address _gauge, address _token) external returns (uint256) {\n        require(strategies[msg.sender], \"!strategy\");\n        return withdraw(_gauge, _token, balanceOf(_gauge));\n    }\n\n    function deposit(address _gauge, address _token) external {\n        require(strategies[msg.sender], \"!strategy\");\n        uint256 _balance = IERC20(_token).balanceOf(address(this));\n        IERC20(_token).safeTransfer(address(proxy), _balance);\n        _balance = IERC20(_token).balanceOf(address(proxy));\n\n        proxy.execute(_token, 0, abi.encodeWithSignature(\"approve(address,uint256)\", _gauge, 0));\n        proxy.execute(_token, 0, abi.encodeWithSignature(\"approve(address,uint256)\", _gauge, _balance));\n        (bool success, ) = proxy.execute(_gauge, 0, abi.encodeWithSignature(\"deposit(uint256)\", _balance));\n        if (!success) assert(false);\n    }\n\n    function harvest(address _gauge) external {\n        require(strategies[msg.sender], \"!strategy\");\n        uint256 _before = IERC20(crv).balanceOf(address(proxy));\n        proxy.execute(mintr, 0, abi.encodeWithSignature(\"mint(address)\", _gauge));\n        uint256 _after = IERC20(crv).balanceOf(address(proxy));\n        uint256 _balance = _after.sub(_before);\n        proxy.execute(crv, 0, abi.encodeWithSignature(\"transfer(address,uint256)\", msg.sender, _balance));\n    }\n}\n",
  "sourcePath": "/Users/bruce/work/defi-project/bulldaoV1/bulldao/contracts/strategies/StrategyProxy.sol",
  "compiler": {
    "name": "solc",
    "version": "0.5.17+commit.d19bba13.Linux.g++"
  },
  "schemaVersion": "3.2.3",
  "updatedAt": "2020-10-30T06:53:29.075Z",
  "networkType": "ethereum",
  "devdoc": {
    "methods": {}
  },
  "userdoc": {
    "methods": {}
  }
}