{
  "contractName": "StrategyDForceDAI",
  "abi": [
    {
      "inputs": [
        {
          "internalType": "address",
          "name": "_controller",
          "type": "address"
        }
      ],
      "payable": false,
      "stateMutability": "nonpayable",
      "type": "constructor"
    },
    {
      "constant": true,
      "inputs": [],
      "name": "controller",
      "outputs": [
        {
          "internalType": "address",
          "name": "",
          "type": "address"
        }
      ],
      "payable": false,
      "stateMutability": "view",
      "type": "function"
    },
    {
      "constant": true,
      "inputs": [],
      "name": "ddai",
      "outputs": [
        {
          "internalType": "address",
          "name": "",
          "type": "address"
        }
      ],
      "payable": false,
      "stateMutability": "view",
      "type": "function"
    },
    {
      "constant": true,
      "inputs": [],
      "name": "df",
      "outputs": [
        {
          "internalType": "address",
          "name": "",
          "type": "address"
        }
      ],
      "payable": false,
      "stateMutability": "view",
      "type": "function"
    },
    {
      "constant": true,
      "inputs": [],
      "name": "governance",
      "outputs": [
        {
          "internalType": "address",
          "name": "",
          "type": "address"
        }
      ],
      "payable": false,
      "stateMutability": "view",
      "type": "function"
    },
    {
      "constant": true,
      "inputs": [],
      "name": "performanceFee",
      "outputs": [
        {
          "internalType": "uint256",
          "name": "",
          "type": "uint256"
        }
      ],
      "payable": false,
      "stateMutability": "view",
      "type": "function"
    },
    {
      "constant": true,
      "inputs": [],
      "name": "performanceMax",
      "outputs": [
        {
          "internalType": "uint256",
          "name": "",
          "type": "uint256"
        }
      ],
      "payable": false,
      "stateMutability": "view",
      "type": "function"
    },
    {
      "constant": true,
      "inputs": [],
      "name": "pool",
      "outputs": [
        {
          "internalType": "address",
          "name": "",
          "type": "address"
        }
      ],
      "payable": false,
      "stateMutability": "view",
      "type": "function"
    },
    {
      "constant": true,
      "inputs": [],
      "name": "strategist",
      "outputs": [
        {
          "internalType": "address",
          "name": "",
          "type": "address"
        }
      ],
      "payable": false,
      "stateMutability": "view",
      "type": "function"
    },
    {
      "constant": true,
      "inputs": [],
      "name": "uni",
      "outputs": [
        {
          "internalType": "address",
          "name": "",
          "type": "address"
        }
      ],
      "payable": false,
      "stateMutability": "view",
      "type": "function"
    },
    {
      "constant": true,
      "inputs": [],
      "name": "want",
      "outputs": [
        {
          "internalType": "address",
          "name": "",
          "type": "address"
        }
      ],
      "payable": false,
      "stateMutability": "view",
      "type": "function"
    },
    {
      "constant": true,
      "inputs": [],
      "name": "weth",
      "outputs": [
        {
          "internalType": "address",
          "name": "",
          "type": "address"
        }
      ],
      "payable": false,
      "stateMutability": "view",
      "type": "function"
    },
    {
      "constant": true,
      "inputs": [],
      "name": "withdrawalFee",
      "outputs": [
        {
          "internalType": "uint256",
          "name": "",
          "type": "uint256"
        }
      ],
      "payable": false,
      "stateMutability": "view",
      "type": "function"
    },
    {
      "constant": true,
      "inputs": [],
      "name": "withdrawalMax",
      "outputs": [
        {
          "internalType": "uint256",
          "name": "",
          "type": "uint256"
        }
      ],
      "payable": false,
      "stateMutability": "view",
      "type": "function"
    },
    {
      "constant": true,
      "inputs": [],
      "name": "getName",
      "outputs": [
        {
          "internalType": "string",
          "name": "",
          "type": "string"
        }
      ],
      "payable": false,
      "stateMutability": "pure",
      "type": "function"
    },
    {
      "constant": false,
      "inputs": [
        {
          "internalType": "address",
          "name": "_strategist",
          "type": "address"
        }
      ],
      "name": "setStrategist",
      "outputs": [],
      "payable": false,
      "stateMutability": "nonpayable",
      "type": "function"
    },
    {
      "constant": false,
      "inputs": [
        {
          "internalType": "uint256",
          "name": "_withdrawalFee",
          "type": "uint256"
        }
      ],
      "name": "setWithdrawalFee",
      "outputs": [],
      "payable": false,
      "stateMutability": "nonpayable",
      "type": "function"
    },
    {
      "constant": false,
      "inputs": [
        {
          "internalType": "uint256",
          "name": "_performanceFee",
          "type": "uint256"
        }
      ],
      "name": "setPerformanceFee",
      "outputs": [],
      "payable": false,
      "stateMutability": "nonpayable",
      "type": "function"
    },
    {
      "constant": false,
      "inputs": [],
      "name": "deposit",
      "outputs": [],
      "payable": false,
      "stateMutability": "nonpayable",
      "type": "function"
    },
    {
      "constant": false,
      "inputs": [
        {
          "internalType": "uint256",
          "name": "_amount",
          "type": "uint256"
        }
      ],
      "name": "withdraw",
      "outputs": [],
      "payable": false,
      "stateMutability": "nonpayable",
      "type": "function"
    },
    {
      "constant": false,
      "inputs": [
        {
          "internalType": "contract IERC20",
          "name": "_asset",
          "type": "address"
        }
      ],
      "name": "withdraw",
      "outputs": [
        {
          "internalType": "uint256",
          "name": "balance",
          "type": "uint256"
        }
      ],
      "payable": false,
      "stateMutability": "nonpayable",
      "type": "function"
    },
    {
      "constant": false,
      "inputs": [],
      "name": "withdrawAll",
      "outputs": [
        {
          "internalType": "uint256",
          "name": "balance",
          "type": "uint256"
        }
      ],
      "payable": false,
      "stateMutability": "nonpayable",
      "type": "function"
    },
    {
      "constant": false,
      "inputs": [],
      "name": "harvest",
      "outputs": [],
      "payable": false,
      "stateMutability": "nonpayable",
      "type": "function"
    },
    {
      "constant": true,
      "inputs": [],
      "name": "balanceOfWant",
      "outputs": [
        {
          "internalType": "uint256",
          "name": "",
          "type": "uint256"
        }
      ],
      "payable": false,
      "stateMutability": "view",
      "type": "function"
    },
    {
      "constant": true,
      "inputs": [],
      "name": "balanceOfPool",
      "outputs": [
        {
          "internalType": "uint256",
          "name": "",
          "type": "uint256"
        }
      ],
      "payable": false,
      "stateMutability": "view",
      "type": "function"
    },
    {
      "constant": true,
      "inputs": [],
      "name": "getExchangeRate",
      "outputs": [
        {
          "internalType": "uint256",
          "name": "",
          "type": "uint256"
        }
      ],
      "payable": false,
      "stateMutability": "view",
      "type": "function"
    },
    {
      "constant": true,
      "inputs": [],
      "name": "balanceOfDDai",
      "outputs": [
        {
          "internalType": "uint256",
          "name": "",
          "type": "uint256"
        }
      ],
      "payable": false,
      "stateMutability": "view",
      "type": "function"
    },
    {
      "constant": true,
      "inputs": [],
      "name": "balanceOf",
      "outputs": [
        {
          "internalType": "uint256",
          "name": "",
          "type": "uint256"
        }
      ],
      "payable": false,
      "stateMutability": "view",
      "type": "function"
    },
    {
      "constant": false,
      "inputs": [
        {
          "internalType": "address",
          "name": "_governance",
          "type": "address"
        }
      ],
      "name": "setGovernance",
      "outputs": [],
      "payable": false,
      "stateMutability": "nonpayable",
      "type": "function"
    },
    {
      "constant": false,
      "inputs": [
        {
          "internalType": "address",
          "name": "_controller",
          "type": "address"
        }
      ],
      "name": "setController",
      "outputs": [],
      "payable": false,
      "stateMutability": "nonpayable",
      "type": "function"
    }
  ],
  "bytecode": "0x60806040526101f4600055603260015534801561001b57600080fd5b50604051613b12380380613b128339818101604052602081101561003e57600080fd5b810190808051906020019092919050505033600260006101000a81548173ffffffffffffffffffffffffffffffffffffffff021916908373ffffffffffffffffffffffffffffffffffffffff16021790555033600460006101000a81548173ffffffffffffffffffffffffffffffffffffffff021916908373ffffffffffffffffffffffffffffffffffffffff16021790555080600360006101000a81548173ffffffffffffffffffffffffffffffffffffffff021916908373ffffffffffffffffffffffffffffffffffffffff160217905550506139f0806101226000396000f3fe608060405234801561001057600080fd5b50600436106101cf5760003560e01c8063853828b611610104578063ac1e5025116100a2578063d5c1ff7311610071578063d5c1ff731461070f578063e6aa216c1461072d578063edc9af951461074b578063f77c479114610795576101cf565b8063ac1e502514610675578063c1a3d44c146106a3578063c7b9d530146106c1578063d0e30db014610705576101cf565b806392eefe9b116100de57806392eefe9b146105595780639be991821461059d5780639d35f594146105e7578063ab033ea914610631576101cf565b8063853828b6146104ff578063877887821461051d5780638bc7e8c41461053b576101cf565b80634641257d1161017157806370897b231161014b57806370897b2314610477578063722713f7146104a55780637cc79113146104c35780638012598e146104e1576101cf565b80634641257d146103cb57806351cff8d9146103d55780635aa6e6751461042d576101cf565b80631f1fcd51116101ad5780631f1fcd51146102bf5780631fe4a686146103095780632e1a7d4d146103535780633fc8cef314610381576101cf565b806311588086146101d457806316f0115b146101f257806317d7de7c1461023c575b600080fd5b6101dc6107df565b6040518082815260200191505060405180910390f35b6101fa610972565b604051808273ffffffffffffffffffffffffffffffffffffffff1673ffffffffffffffffffffffffffffffffffffffff16815260200191505060405180910390f35b61024461098a565b6040518080602001828103825283818151815260200191508051906020019080838360005b83811015610284578082015181840152602081019050610269565b50505050905090810190601f1680156102b15780820380516001836020036101000a031916815260200191505b509250505060405180910390f35b6102c76109c7565b604051808273ffffffffffffffffffffffffffffffffffffffff1673ffffffffffffffffffffffffffffffffffffffff16815260200191505060405180910390f35b6103116109df565b604051808273ffffffffffffffffffffffffffffffffffffffff1673ffffffffffffffffffffffffffffffffffffffff16815260200191505060405180910390f35b61037f6004803603602081101561036957600080fd5b8101908080359060200190929190505050610a05565b005b610389610ecd565b604051808273ffffffffffffffffffffffffffffffffffffffff1673ffffffffffffffffffffffffffffffffffffffff16815260200191505060405180910390f35b6103d3610ee5565b005b610417600480360360208110156103eb57600080fd5b81019080803573ffffffffffffffffffffffffffffffffffffffff169060200190929190505050611655565b6040518082815260200191505060405180910390f35b610435611992565b604051808273ffffffffffffffffffffffffffffffffffffffff1673ffffffffffffffffffffffffffffffffffffffff16815260200191505060405180910390f35b6104a36004803603602081101561048d57600080fd5b81019080803590602001909291905050506119b8565b005b6104ad611a85565b6040518082815260200191505060405180910390f35b6104cb611ac6565b6040518082815260200191505060405180910390f35b6104e9611acc565b6040518082815260200191505060405180910390f35b610507611b9f565b6040518082815260200191505060405180910390f35b610525611f12565b6040518082815260200191505060405180910390f35b610543611f18565b6040518082815260200191505060405180910390f35b61059b6004803603602081101561056f57600080fd5b81019080803573ffffffffffffffffffffffffffffffffffffffff169060200190929190505050611f1e565b005b6105a5612025565b604051808273ffffffffffffffffffffffffffffffffffffffff1673ffffffffffffffffffffffffffffffffffffffff16815260200191505060405180910390f35b6105ef61203d565b604051808273ffffffffffffffffffffffffffffffffffffffff1673ffffffffffffffffffffffffffffffffffffffff16815260200191505060405180910390f35b6106736004803603602081101561064757600080fd5b81019080803573ffffffffffffffffffffffffffffffffffffffff169060200190929190505050612055565b005b6106a16004803603602081101561068b57600080fd5b810190808035906020019092919050505061215c565b005b6106ab612229565b6040518082815260200191505060405180910390f35b610703600480360360208110156106d757600080fd5b81019080803573ffffffffffffffffffffffffffffffffffffffff1690602001909291905050506122fc565b005b61070d612403565b005b61071761283b565b6040518082815260200191505060405180910390f35b610735612841565b6040518082815260200191505060405180910390f35b6107536128dd565b604051808273ffffffffffffffffffffffffffffffffffffffff1673ffffffffffffffffffffffffffffffffffffffff16815260200191505060405180910390f35b61079d6128f5565b604051808273ffffffffffffffffffffffffffffffffffffffff1673ffffffffffffffffffffffffffffffffffffffff16815260200191505060405180910390f35b600061096d670de0b6b3a764000061095f7302285acaafeb533e03a7306c55ec031297df922473ffffffffffffffffffffffffffffffffffffffff1663e6aa216c6040518163ffffffff1660e01b815260040160206040518083038186803b15801561084a57600080fd5b505afa15801561085e573d6000803e3d6000fd5b505050506040513d602081101561087457600080fd5b810190808051906020019092919050505073d2fa07cd6cd4a5a96aa86bacfa6e50bb3aadba8b73ffffffffffffffffffffffffffffffffffffffff166370a08231306040518263ffffffff1660e01b8152600401808273ffffffffffffffffffffffffffffffffffffffff1673ffffffffffffffffffffffffffffffffffffffff16815260200191505060206040518083038186803b15801561091657600080fd5b505afa15801561092a573d6000803e3d6000fd5b505050506040513d602081101561094057600080fd5b810190808051906020019092919050505061291b90919063ffffffff16565b6129a190919063ffffffff16565b905090565b73d2fa07cd6cd4a5a96aa86bacfa6e50bb3aadba8b81565b60606040518060400160405280601181526020017f537472617465677944466f726365444149000000000000000000000000000000815250905090565b736b175474e89094c44da98b954eedeac495271d0f81565b600460009054906101000a900473ffffffffffffffffffffffffffffffffffffffff1681565b600360009054906101000a900473ffffffffffffffffffffffffffffffffffffffff1673ffffffffffffffffffffffffffffffffffffffff163373ffffffffffffffffffffffffffffffffffffffff1614610ac8576040517f08c379a000000000000000000000000000000000000000000000000000000000815260040180806020018281038252600b8152602001807f21636f6e74726f6c6c657200000000000000000000000000000000000000000081525060200191505060405180910390fd5b6000736b175474e89094c44da98b954eedeac495271d0f73ffffffffffffffffffffffffffffffffffffffff166370a08231306040518263ffffffff1660e01b8152600401808273ffffffffffffffffffffffffffffffffffffffff1673ffffffffffffffffffffffffffffffffffffffff16815260200191505060206040518083038186803b158015610b5b57600080fd5b505afa158015610b6f573d6000803e3d6000fd5b505050506040513d6020811015610b8557600080fd5b8101908080519060200190929190505050905081811015610bd357610bbb610bb682846129eb90919063ffffffff16565b612a35565b9150610bd08183612fa190919063ffffffff16565b91505b6000610bfe612710610bf06001548661291b90919063ffffffff16565b6129a190919063ffffffff16565b9050610ce1600360009054906101000a900473ffffffffffffffffffffffffffffffffffffffff1673ffffffffffffffffffffffffffffffffffffffff16639ec5a8946040518163ffffffff1660e01b815260040160206040518083038186803b158015610c6b57600080fd5b505afa158015610c7f573d6000803e3d6000fd5b505050506040513d6020811015610c9557600080fd5b810190808051906020019092919050505082736b175474e89094c44da98b954eedeac495271d0f73ffffffffffffffffffffffffffffffffffffffff166130299092919063ffffffff16565b6000600360009054906101000a900473ffffffffffffffffffffffffffffffffffffffff1673ffffffffffffffffffffffffffffffffffffffff1663a622ee7c736b175474e89094c44da98b954eedeac495271d0f6040518263ffffffff1660e01b8152600401808273ffffffffffffffffffffffffffffffffffffffff1673ffffffffffffffffffffffffffffffffffffffff16815260200191505060206040518083038186803b158015610d9657600080fd5b505afa158015610daa573d6000803e3d6000fd5b505050506040513d6020811015610dc057600080fd5b81019080805190602001909291905050509050600073ffffffffffffffffffffffffffffffffffffffff168173ffffffffffffffffffffffffffffffffffffffff161415610e76576040517f08c379a00000000000000000000000000000000000000000000000000000000081526004018080602001828103825260068152602001807f217661756c74000000000000000000000000000000000000000000000000000081525060200191505060405180910390fd5b610ec781610e8d84876129eb90919063ffffffff16565b736b175474e89094c44da98b954eedeac495271d0f73ffffffffffffffffffffffffffffffffffffffff166130299092919063ffffffff16565b50505050565b73c02aaa39b223fe8d0a0e5c4f27ead9083c756cc281565b600460009054906101000a900473ffffffffffffffffffffffffffffffffffffffff1673ffffffffffffffffffffffffffffffffffffffff163373ffffffffffffffffffffffffffffffffffffffff161480610f8e5750600260009054906101000a900473ffffffffffffffffffffffffffffffffffffffff1673ffffffffffffffffffffffffffffffffffffffff163373ffffffffffffffffffffffffffffffffffffffff16145b611000576040517f08c379a000000000000000000000000000000000000000000000000000000000815260040180806020018281038252600b8152602001807f21617574686f72697a656400000000000000000000000000000000000000000081525060200191505060405180910390fd5b73d2fa07cd6cd4a5a96aa86bacfa6e50bb3aadba8b73ffffffffffffffffffffffffffffffffffffffff16633d18b9126040518163ffffffff1660e01b8152600401600060405180830381600087803b15801561105c57600080fd5b505af1158015611070573d6000803e3d6000fd5b50505050600073431ad2ff6a9c365805ebad47ee021148d6f7dbe073ffffffffffffffffffffffffffffffffffffffff166370a08231306040518263ffffffff1660e01b8152600401808273ffffffffffffffffffffffffffffffffffffffff1673ffffffffffffffffffffffffffffffffffffffff16815260200191505060206040518083038186803b15801561110757600080fd5b505afa15801561111b573d6000803e3d6000fd5b505050506040513d602081101561113157600080fd5b810190808051906020019092919050505090506000811115611460576111a1737a250d5630b4cf539739df2c5dacb4c659f2488d600073431ad2ff6a9c365805ebad47ee021148d6f7dbe073ffffffffffffffffffffffffffffffffffffffff166130fa9092919063ffffffff16565b6111f4737a250d5630b4cf539739df2c5dacb4c659f2488d8273431ad2ff6a9c365805ebad47ee021148d6f7dbe073ffffffffffffffffffffffffffffffffffffffff166130fa9092919063ffffffff16565b606060036040519080825280602002602001820160405280156112265781602001602082028038833980820191505090505b50905073431ad2ff6a9c365805ebad47ee021148d6f7dbe08160008151811061124b57fe5b602002602001019073ffffffffffffffffffffffffffffffffffffffff16908173ffffffffffffffffffffffffffffffffffffffff168152505073c02aaa39b223fe8d0a0e5c4f27ead9083c756cc2816001815181106112a757fe5b602002602001019073ffffffffffffffffffffffffffffffffffffffff16908173ffffffffffffffffffffffffffffffffffffffff1681525050736b175474e89094c44da98b954eedeac495271d0f8160028151811061130357fe5b602002602001019073ffffffffffffffffffffffffffffffffffffffff16908173ffffffffffffffffffffffffffffffffffffffff1681525050737a250d5630b4cf539739df2c5dacb4c659f2488d73ffffffffffffffffffffffffffffffffffffffff166338ed1739836000843061138761070842612fa190919063ffffffff16565b6040518663ffffffff1660e01b815260040180868152602001858152602001806020018473ffffffffffffffffffffffffffffffffffffffff1673ffffffffffffffffffffffffffffffffffffffff168152602001838152602001828103825285818151815260200191508051906020019060200280838360005b8381101561141d578082015181840152602081019050611402565b505050509050019650505050505050600060405180830381600087803b15801561144657600080fd5b505af115801561145a573d6000803e3d6000fd5b50505050505b6000736b175474e89094c44da98b954eedeac495271d0f73ffffffffffffffffffffffffffffffffffffffff166370a08231306040518263ffffffff1660e01b8152600401808273ffffffffffffffffffffffffffffffffffffffff1673ffffffffffffffffffffffffffffffffffffffff16815260200191505060206040518083038186803b1580156114f357600080fd5b505afa158015611507573d6000803e3d6000fd5b505050506040513d602081101561151d57600080fd5b8101908080519060200190929190505050905060008111156116515760006115646127106115566000548561291b90919063ffffffff16565b6129a190919063ffffffff16565b9050611647600360009054906101000a900473ffffffffffffffffffffffffffffffffffffffff1673ffffffffffffffffffffffffffffffffffffffff16639ec5a8946040518163ffffffff1660e01b815260040160206040518083038186803b1580156115d157600080fd5b505afa1580156115e5573d6000803e3d6000fd5b505050506040513d60208110156115fb57600080fd5b810190808051906020019092919050505082736b175474e89094c44da98b954eedeac495271d0f73ffffffffffffffffffffffffffffffffffffffff166130299092919063ffffffff16565b61164f612403565b505b5050565b6000600360009054906101000a900473ffffffffffffffffffffffffffffffffffffffff1673ffffffffffffffffffffffffffffffffffffffff163373ffffffffffffffffffffffffffffffffffffffff161461171a576040517f08c379a000000000000000000000000000000000000000000000000000000000815260040180806020018281038252600b8152602001807f21636f6e74726f6c6c657200000000000000000000000000000000000000000081525060200191505060405180910390fd5b8173ffffffffffffffffffffffffffffffffffffffff16736b175474e89094c44da98b954eedeac495271d0f73ffffffffffffffffffffffffffffffffffffffff1614156117d0576040517f08c379a00000000000000000000000000000000000000000000000000000000081526004018080602001828103825260048152602001807f77616e740000000000000000000000000000000000000000000000000000000081525060200191505060405180910390fd5b8173ffffffffffffffffffffffffffffffffffffffff167302285acaafeb533e03a7306c55ec031297df922473ffffffffffffffffffffffffffffffffffffffff161415611886576040517f08c379a00000000000000000000000000000000000000000000000000000000081526004018080602001828103825260048152602001807f646461690000000000000000000000000000000000000000000000000000000081525060200191505060405180910390fd5b8173ffffffffffffffffffffffffffffffffffffffff166370a08231306040518263ffffffff1660e01b8152600401808273ffffffffffffffffffffffffffffffffffffffff1673ffffffffffffffffffffffffffffffffffffffff16815260200191505060206040518083038186803b15801561190357600080fd5b505afa158015611917573d6000803e3d6000fd5b505050506040513d602081101561192d57600080fd5b8101908080519060200190929190505050905061198d600360009054906101000a900473ffffffffffffffffffffffffffffffffffffffff16828473ffffffffffffffffffffffffffffffffffffffff166130299092919063ffffffff16565b919050565b600260009054906101000a900473ffffffffffffffffffffffffffffffffffffffff1681565b600260009054906101000a900473ffffffffffffffffffffffffffffffffffffffff1673ffffffffffffffffffffffffffffffffffffffff163373ffffffffffffffffffffffffffffffffffffffff1614611a7b576040517f08c379a000000000000000000000000000000000000000000000000000000000815260040180806020018281038252600b8152602001807f21676f7665726e616e636500000000000000000000000000000000000000000081525060200191505060405180910390fd5b8060008190555050565b6000611ac1611a926107df565b611ab3611a9d611acc565b611aa5612229565b612fa190919063ffffffff16565b612fa190919063ffffffff16565b905090565b61271081565b60007302285acaafeb533e03a7306c55ec031297df922473ffffffffffffffffffffffffffffffffffffffff16633aecd0e3306040518263ffffffff1660e01b8152600401808273ffffffffffffffffffffffffffffffffffffffff1673ffffffffffffffffffffffffffffffffffffffff16815260200191505060206040518083038186803b158015611b5f57600080fd5b505afa158015611b73573d6000803e3d6000fd5b505050506040513d6020811015611b8957600080fd5b8101908080519060200190929190505050905090565b6000600360009054906101000a900473ffffffffffffffffffffffffffffffffffffffff1673ffffffffffffffffffffffffffffffffffffffff163373ffffffffffffffffffffffffffffffffffffffff1614611c64576040517f08c379a000000000000000000000000000000000000000000000000000000000815260040180806020018281038252600b8152602001807f21636f6e74726f6c6c657200000000000000000000000000000000000000000081525060200191505060405180910390fd5b611c6c61331a565b736b175474e89094c44da98b954eedeac495271d0f73ffffffffffffffffffffffffffffffffffffffff166370a08231306040518263ffffffff1660e01b8152600401808273ffffffffffffffffffffffffffffffffffffffff1673ffffffffffffffffffffffffffffffffffffffff16815260200191505060206040518083038186803b158015611cfd57600080fd5b505afa158015611d11573d6000803e3d6000fd5b505050506040513d6020811015611d2757600080fd5b810190808051906020019092919050505090506000600360009054906101000a900473ffffffffffffffffffffffffffffffffffffffff1673ffffffffffffffffffffffffffffffffffffffff1663a622ee7c736b175474e89094c44da98b954eedeac495271d0f6040518263ffffffff1660e01b8152600401808273ffffffffffffffffffffffffffffffffffffffff1673ffffffffffffffffffffffffffffffffffffffff16815260200191505060206040518083038186803b158015611def57600080fd5b505afa158015611e03573d6000803e3d6000fd5b505050506040513d6020811015611e1957600080fd5b81019080805190602001909291905050509050600073ffffffffffffffffffffffffffffffffffffffff168173ffffffffffffffffffffffffffffffffffffffff161415611ecf576040517f08c379a00000000000000000000000000000000000000000000000000000000081526004018080602001828103825260068152602001807f217661756c74000000000000000000000000000000000000000000000000000081525060200191505060405180910390fd5b611f0e8183736b175474e89094c44da98b954eedeac495271d0f73ffffffffffffffffffffffffffffffffffffffff166130299092919063ffffffff16565b5090565b60005481565b60015481565b600260009054906101000a900473ffffffffffffffffffffffffffffffffffffffff1673ffffffffffffffffffffffffffffffffffffffff163373ffffffffffffffffffffffffffffffffffffffff1614611fe1576040517f08c379a000000000000000000000000000000000000000000000000000000000815260040180806020018281038252600b8152602001807f21676f7665726e616e636500000000000000000000000000000000000000000081525060200191505060405180910390fd5b80600360006101000a81548173ffffffffffffffffffffffffffffffffffffffff021916908373ffffffffffffffffffffffffffffffffffffffff16021790555050565b7302285acaafeb533e03a7306c55ec031297df922481565b73431ad2ff6a9c365805ebad47ee021148d6f7dbe081565b600260009054906101000a900473ffffffffffffffffffffffffffffffffffffffff1673ffffffffffffffffffffffffffffffffffffffff163373ffffffffffffffffffffffffffffffffffffffff1614612118576040517f08c379a000000000000000000000000000000000000000000000000000000000815260040180806020018281038252600b8152602001807f21676f7665726e616e636500000000000000000000000000000000000000000081525060200191505060405180910390fd5b80600260006101000a81548173ffffffffffffffffffffffffffffffffffffffff021916908373ffffffffffffffffffffffffffffffffffffffff16021790555050565b600260009054906101000a900473ffffffffffffffffffffffffffffffffffffffff1673ffffffffffffffffffffffffffffffffffffffff163373ffffffffffffffffffffffffffffffffffffffff161461221f576040517f08c379a000000000000000000000000000000000000000000000000000000000815260040180806020018281038252600b8152602001807f21676f7665726e616e636500000000000000000000000000000000000000000081525060200191505060405180910390fd5b8060018190555050565b6000736b175474e89094c44da98b954eedeac495271d0f73ffffffffffffffffffffffffffffffffffffffff166370a08231306040518263ffffffff1660e01b8152600401808273ffffffffffffffffffffffffffffffffffffffff1673ffffffffffffffffffffffffffffffffffffffff16815260200191505060206040518083038186803b1580156122bc57600080fd5b505afa1580156122d0573d6000803e3d6000fd5b505050506040513d60208110156122e657600080fd5b8101908080519060200190929190505050905090565b600260009054906101000a900473ffffffffffffffffffffffffffffffffffffffff1673ffffffffffffffffffffffffffffffffffffffff163373ffffffffffffffffffffffffffffffffffffffff16146123bf576040517f08c379a000000000000000000000000000000000000000000000000000000000815260040180806020018281038252600b8152602001807f21676f7665726e616e636500000000000000000000000000000000000000000081525060200191505060405180910390fd5b80600460006101000a81548173ffffffffffffffffffffffffffffffffffffffff021916908373ffffffffffffffffffffffffffffffffffffffff16021790555050565b6000736b175474e89094c44da98b954eedeac495271d0f73ffffffffffffffffffffffffffffffffffffffff166370a08231306040518263ffffffff1660e01b8152600401808273ffffffffffffffffffffffffffffffffffffffff1673ffffffffffffffffffffffffffffffffffffffff16815260200191505060206040518083038186803b15801561249657600080fd5b505afa1580156124aa573d6000803e3d6000fd5b505050506040513d60208110156124c057600080fd5b810190808051906020019092919050505090506000811115612637576125307302285acaafeb533e03a7306c55ec031297df92246000736b175474e89094c44da98b954eedeac495271d0f73ffffffffffffffffffffffffffffffffffffffff166130fa9092919063ffffffff16565b6125837302285acaafeb533e03a7306c55ec031297df922482736b175474e89094c44da98b954eedeac495271d0f73ffffffffffffffffffffffffffffffffffffffff166130fa9092919063ffffffff16565b7302285acaafeb533e03a7306c55ec031297df922473ffffffffffffffffffffffffffffffffffffffff166340c10f1930836040518363ffffffff1660e01b8152600401808373ffffffffffffffffffffffffffffffffffffffff1673ffffffffffffffffffffffffffffffffffffffff16815260200182815260200192505050600060405180830381600087803b15801561261e57600080fd5b505af1158015612632573d6000803e3d6000fd5b505050505b60007302285acaafeb533e03a7306c55ec031297df922473ffffffffffffffffffffffffffffffffffffffff166370a08231306040518263ffffffff1660e01b8152600401808273ffffffffffffffffffffffffffffffffffffffff1673ffffffffffffffffffffffffffffffffffffffff16815260200191505060206040518083038186803b1580156126ca57600080fd5b505afa1580156126de573d6000803e3d6000fd5b505050506040513d60208110156126f457600080fd5b8101908080519060200190929190505050905060008111156128375761276473d2fa07cd6cd4a5a96aa86bacfa6e50bb3aadba8b60007302285acaafeb533e03a7306c55ec031297df922473ffffffffffffffffffffffffffffffffffffffff166130fa9092919063ffffffff16565b6127b773d2fa07cd6cd4a5a96aa86bacfa6e50bb3aadba8b827302285acaafeb533e03a7306c55ec031297df922473ffffffffffffffffffffffffffffffffffffffff166130fa9092919063ffffffff16565b73d2fa07cd6cd4a5a96aa86bacfa6e50bb3aadba8b73ffffffffffffffffffffffffffffffffffffffff1663a694fc3a826040518263ffffffff1660e01b815260040180828152602001915050600060405180830381600087803b15801561281e57600080fd5b505af1158015612832573d6000803e3d6000fd5b505050505b5050565b61271081565b60007302285acaafeb533e03a7306c55ec031297df922473ffffffffffffffffffffffffffffffffffffffff1663e6aa216c6040518163ffffffff1660e01b815260040160206040518083038186803b15801561289d57600080fd5b505afa1580156128b1573d6000803e3d6000fd5b505050506040513d60208110156128c757600080fd5b8101908080519060200190929190505050905090565b737a250d5630b4cf539739df2c5dacb4c659f2488d81565b600360009054906101000a900473ffffffffffffffffffffffffffffffffffffffff1681565b60008083141561292e576000905061299b565b600082840290508284828161293f57fe5b0414612996576040517f08c379a000000000000000000000000000000000000000000000000000000000815260040180806020018281038252602181526020018061393b6021913960400191505060405180910390fd5b809150505b92915050565b60006129e383836040518060400160405280601a81526020017f536166654d6174683a206469766973696f6e206279207a65726f00000000000081525061351e565b905092915050565b6000612a2d83836040518060400160405280601e81526020017f536166654d6174683a207375627472616374696f6e206f766572666c6f7700008152506135e4565b905092915050565b600080612af97302285acaafeb533e03a7306c55ec031297df922473ffffffffffffffffffffffffffffffffffffffff1663e6aa216c6040518163ffffffff1660e01b815260040160206040518083038186803b158015612a9557600080fd5b505afa158015612aa9573d6000803e3d6000fd5b505050506040513d6020811015612abf57600080fd5b8101908080519060200190929190505050612aeb670de0b6b3a76400008661291b90919063ffffffff16565b6129a190919063ffffffff16565b905060007302285acaafeb533e03a7306c55ec031297df922473ffffffffffffffffffffffffffffffffffffffff166370a08231306040518263ffffffff1660e01b8152600401808273ffffffffffffffffffffffffffffffffffffffff1673ffffffffffffffffffffffffffffffffffffffff16815260200191505060206040518083038186803b158015612b8e57600080fd5b505afa158015612ba2573d6000803e3d6000fd5b505050506040513d6020811015612bb857600080fd5b8101908080519060200190929190505050905073d2fa07cd6cd4a5a96aa86bacfa6e50bb3aadba8b73ffffffffffffffffffffffffffffffffffffffff16632e1a7d4d836040518263ffffffff1660e01b815260040180828152602001915050600060405180830381600087803b158015612c3257600080fd5b505af1158015612c46573d6000803e3d6000fd5b5050505060007302285acaafeb533e03a7306c55ec031297df922473ffffffffffffffffffffffffffffffffffffffff166370a08231306040518263ffffffff1660e01b8152600401808273ffffffffffffffffffffffffffffffffffffffff1673ffffffffffffffffffffffffffffffffffffffff16815260200191505060206040518083038186803b158015612cdd57600080fd5b505afa158015612cf1573d6000803e3d6000fd5b505050506040513d6020811015612d0757600080fd5b810190808051906020019092919050505090506000612d2f83836129eb90919063ffffffff16565b9050736b175474e89094c44da98b954eedeac495271d0f73ffffffffffffffffffffffffffffffffffffffff166370a08231306040518263ffffffff1660e01b8152600401808273ffffffffffffffffffffffffffffffffffffffff1673ffffffffffffffffffffffffffffffffffffffff16815260200191505060206040518083038186803b158015612dc257600080fd5b505afa158015612dd6573d6000803e3d6000fd5b505050506040513d6020811015612dec57600080fd5b810190808051906020019092919050505092507302285acaafeb533e03a7306c55ec031297df922473ffffffffffffffffffffffffffffffffffffffff16631e9a695030836040518363ffffffff1660e01b8152600401808373ffffffffffffffffffffffffffffffffffffffff1673ffffffffffffffffffffffffffffffffffffffff16815260200182815260200192505050600060405180830381600087803b158015612e9a57600080fd5b505af1158015612eae573d6000803e3d6000fd5b50505050736b175474e89094c44da98b954eedeac495271d0f73ffffffffffffffffffffffffffffffffffffffff166370a08231306040518263ffffffff1660e01b8152600401808273ffffffffffffffffffffffffffffffffffffffff1673ffffffffffffffffffffffffffffffffffffffff16815260200191505060206040518083038186803b158015612f4357600080fd5b505afa158015612f57573d6000803e3d6000fd5b505050506040513d6020811015612f6d57600080fd5b81019080805190602001909291905050509150612f9383836129eb90919063ffffffff16565b905080945050505050919050565b60008082840190508381101561301f576040517f08c379a000000000000000000000000000000000000000000000000000000000815260040180806020018281038252601b8152602001807f536166654d6174683a206164646974696f6e206f766572666c6f77000000000081525060200191505060405180910390fd5b8091505092915050565b6130f5838473ffffffffffffffffffffffffffffffffffffffff1663a9059cbb905060e01b8484604051602401808373ffffffffffffffffffffffffffffffffffffffff1673ffffffffffffffffffffffffffffffffffffffff16815260200182815260200192505050604051602081830303815290604052907bffffffffffffffffffffffffffffffffffffffffffffffffffffffff19166020820180517bffffffffffffffffffffffffffffffffffffffffffffffffffffffff83818316178352505050506136a4565b505050565b60008114806131f4575060008373ffffffffffffffffffffffffffffffffffffffff1663dd62ed3e30856040518363ffffffff1660e01b8152600401808373ffffffffffffffffffffffffffffffffffffffff1673ffffffffffffffffffffffffffffffffffffffff1681526020018273ffffffffffffffffffffffffffffffffffffffff1673ffffffffffffffffffffffffffffffffffffffff1681526020019250505060206040518083038186803b1580156131b757600080fd5b505afa1580156131cb573d6000803e3d6000fd5b505050506040513d60208110156131e157600080fd5b8101908080519060200190929190505050145b613249576040517f08c379a00000000000000000000000000000000000000000000000000000000081526004018080602001828103825260368152602001806139866036913960400191505060405180910390fd5b613315838473ffffffffffffffffffffffffffffffffffffffff1663095ea7b3905060e01b8484604051602401808373ffffffffffffffffffffffffffffffffffffffff1673ffffffffffffffffffffffffffffffffffffffff16815260200182815260200192505050604051602081830303815290604052907bffffffffffffffffffffffffffffffffffffffffffffffffffffffff19166020820180517bffffffffffffffffffffffffffffffffffffffffffffffffffffffff83818316178352505050506136a4565b505050565b73d2fa07cd6cd4a5a96aa86bacfa6e50bb3aadba8b73ffffffffffffffffffffffffffffffffffffffff1663e9fad8ee6040518163ffffffff1660e01b8152600401600060405180830381600087803b15801561337657600080fd5b505af115801561338a573d6000803e3d6000fd5b5050505060007302285acaafeb533e03a7306c55ec031297df922473ffffffffffffffffffffffffffffffffffffffff166370a08231306040518263ffffffff1660e01b8152600401808273ffffffffffffffffffffffffffffffffffffffff1673ffffffffffffffffffffffffffffffffffffffff16815260200191505060206040518083038186803b15801561342157600080fd5b505afa158015613435573d6000803e3d6000fd5b505050506040513d602081101561344b57600080fd5b81019080805190602001909291905050509050600081111561351b577302285acaafeb533e03a7306c55ec031297df922473ffffffffffffffffffffffffffffffffffffffff16631e9a695030836040518363ffffffff1660e01b8152600401808373ffffffffffffffffffffffffffffffffffffffff1673ffffffffffffffffffffffffffffffffffffffff16815260200182815260200192505050600060405180830381600087803b15801561350257600080fd5b505af1158015613516573d6000803e3d6000fd5b505050505b50565b600080831182906135ca576040517f08c379a00000000000000000000000000000000000000000000000000000000081526004018080602001828103825283818151815260200191508051906020019080838360005b8381101561358f578082015181840152602081019050613574565b50505050905090810190601f1680156135bc5780820380516001836020036101000a031916815260200191505b509250505060405180910390fd5b5060008385816135d657fe5b049050809150509392505050565b6000838311158290613691576040517f08c379a00000000000000000000000000000000000000000000000000000000081526004018080602001828103825283818151815260200191508051906020019080838360005b8381101561365657808201518184015260208101905061363b565b50505050905090810190601f1680156136835780820380516001836020036101000a031916815260200191505b509250505060405180910390fd5b5060008385039050809150509392505050565b6136c38273ffffffffffffffffffffffffffffffffffffffff166138ef565b613735576040517f08c379a000000000000000000000000000000000000000000000000000000000815260040180806020018281038252601f8152602001807f5361666545524332303a2063616c6c20746f206e6f6e2d636f6e74726163740081525060200191505060405180910390fd5b600060608373ffffffffffffffffffffffffffffffffffffffff16836040518082805190602001908083835b602083106137845780518252602082019150602081019050602083039250613761565b6001836020036101000a0380198251168184511680821785525050505050509050019150506000604051808303816000865af19150503d80600081146137e6576040519150601f19603f3d011682016040523d82523d6000602084013e6137eb565b606091505b509150915081613863576040517f08c379a00000000000000000000000000000000000000000000000000000000081526004018080602001828103825260208152602001807f5361666545524332303a206c6f772d6c6576656c2063616c6c206661696c656481525060200191505060405180910390fd5b6000815111156138e95780806020019051602081101561388257600080fd5b81019080805190602001909291905050506138e8576040517f08c379a000000000000000000000000000000000000000000000000000000000815260040180806020018281038252602a81526020018061395c602a913960400191505060405180910390fd5b5b50505050565b60008060007fc5d2460186f7233c927e7db2dcc703c0e500b653ca82273b7bfad8045d85a47060001b9050833f915080821415801561393157506000801b8214155b9250505091905056fe536166654d6174683a206d756c7469706c69636174696f6e206f766572666c6f775361666545524332303a204552433230206f7065726174696f6e20646964206e6f7420737563636565645361666545524332303a20617070726f76652066726f6d206e6f6e2d7a65726f20746f206e6f6e2d7a65726f20616c6c6f77616e6365a265627a7a72315820e3e7f1a90f49afc82d47ba74c9f2024de24466e1e5db8e44ddff157ba8b4067e64736f6c63430005110032",
  "source": "// SPDX-License-Identifier: MIT\n\npragma solidity ^0.5.17;\n\nimport \"@openzeppelin/contracts/token/ERC20/IERC20.sol\";\nimport \"@openzeppelin/contracts/math/SafeMath.sol\";\nimport \"@openzeppelin/contracts/utils/Address.sol\";\nimport \"@openzeppelin/contracts/token/ERC20/SafeERC20.sol\";\n\nimport \"../interfaces/dforce/Rewards.sol\";\nimport \"../interfaces/dforce/Token.sol\";\nimport \"../interfaces/uniswap/Uni.sol\";\n\nimport \"../interfaces/yearn/IController.sol\";\n\ncontract StrategyDForceDAI {\n    using SafeERC20 for IERC20;\n    using Address for address;\n    using SafeMath for uint256;\n\n    address public constant want = address(0x6B175474E89094C44Da98b954EedeAC495271d0F); // \n    address public constant ddai = address(0x02285AcaafEB533e03A7306C55EC031297df9224);\n    address public constant pool = address(0xD2fA07cD6Cd4A5A96aa86BacfA6E50bB3aaDBA8B);\n    address public constant df = address(0x431ad2ff6a9C365805eBaD47Ee021148d6f7DBe0);\n    address public constant uni = address(0x7a250d5630B4cF539739dF2C5dAcb4c659F2488D);\n    address public constant weth = address(0xC02aaA39b223FE8D0A0e5C4F27eAD9083C756Cc2); // used for df <> weth <> dai route\n\n    uint256 public performanceFee = 500;\n    uint256 public constant performanceMax = 10000;\n\n    uint256 public withdrawalFee = 50;\n    uint256 public constant withdrawalMax = 10000;\n\n    address public governance;\n    address public controller;\n    address public strategist;\n\n    constructor(address _controller) public {\n        governance = msg.sender;\n        strategist = msg.sender;\n        controller = _controller;\n    }\n\n    function getName() external pure returns (string memory) {\n        return \"StrategyDForceDAI\";\n    }\n\n    function setStrategist(address _strategist) external {\n        require(msg.sender == governance, \"!governance\");\n        strategist = _strategist;\n    }\n\n    function setWithdrawalFee(uint256 _withdrawalFee) external {\n        require(msg.sender == governance, \"!governance\");\n        withdrawalFee = _withdrawalFee;\n    }\n\n    function setPerformanceFee(uint256 _performanceFee) external {\n        require(msg.sender == governance, \"!governance\");\n        performanceFee = _performanceFee;\n    }\n\n    function deposit() public {\n        uint256 _want = IERC20(want).balanceOf(address(this));\n        if (_want > 0) {\n            IERC20(want).safeApprove(ddai, 0);\n            IERC20(want).safeApprove(ddai, _want);\n            dERC20(ddai).mint(address(this), _want);\n        }\n\n        uint256 _ddai = IERC20(ddai).balanceOf(address(this));\n        if (_ddai > 0) {\n            IERC20(ddai).safeApprove(pool, 0);\n            IERC20(ddai).safeApprove(pool, _ddai);\n            dRewards(pool).stake(_ddai);\n        }\n    }\n\n    // Controller only function for creating additional rewards from dust\n    function withdraw(IERC20 _asset) external returns (uint256 balance) {\n        require(msg.sender == controller, \"!controller\");\n        require(want != address(_asset), \"want\");\n        require(ddai != address(_asset), \"ddai\");\n        balance = _asset.balanceOf(address(this));\n        _asset.safeTransfer(controller, balance);\n    }\n\n    // Withdraw partial funds, normally used with a vault withdrawal\n    function withdraw(uint256 _amount) external {\n        require(msg.sender == controller, \"!controller\");\n        uint256 _balance = IERC20(want).balanceOf(address(this));\n        if (_balance < _amount) {\n            _amount = _withdrawSome(_amount.sub(_balance));\n            _amount = _amount.add(_balance);\n        }\n\n        uint256 _fee = _amount.mul(withdrawalFee).div(withdrawalMax);\n\n        IERC20(want).safeTransfer(IController(controller).rewards(), _fee);\n        address _vault = IController(controller).vaults(address(want));\n        require(_vault != address(0), \"!vault\"); // additional protection so we don't burn the funds\n\n        IERC20(want).safeTransfer(_vault, _amount.sub(_fee));\n    }\n\n    // Withdraw all funds, normally used when migrating strategies\n    function withdrawAll() external returns (uint256 balance) {\n        require(msg.sender == controller, \"!controller\");\n        _withdrawAll();\n\n        balance = IERC20(want).balanceOf(address(this));\n\n        address _vault = IController(controller).vaults(address(want));\n        require(_vault != address(0), \"!vault\"); // additional protection so we don't burn the funds\n        IERC20(want).safeTransfer(_vault, balance);\n    }\n\n    function _withdrawAll() internal {\n        dRewards(pool).exit();\n        uint256 _ddai = IERC20(ddai).balanceOf(address(this));\n        if (_ddai > 0) {\n            dERC20(ddai).redeem(address(this), _ddai);\n        }\n    }\n\n    function harvest() public {\n        require(msg.sender == strategist || msg.sender == governance, \"!authorized\");\n        dRewards(pool).getReward();\n        uint256 _df = IERC20(df).balanceOf(address(this));\n        if (_df > 0) {\n            IERC20(df).safeApprove(uni, 0);\n            IERC20(df).safeApprove(uni, _df);\n\n            address[] memory path = new address[](3);\n            path[0] = df;\n            path[1] = weth;\n            path[2] = want;\n\n            Uni(uni).swapExactTokensForTokens(_df, uint256(0), path, address(this), now.add(1800));\n        }\n        uint256 _want = IERC20(want).balanceOf(address(this));\n        if (_want > 0) {\n            uint256 _fee = _want.mul(performanceFee).div(performanceMax);\n            IERC20(want).safeTransfer(IController(controller).rewards(), _fee);\n            deposit();\n        }\n    }\n\n    function _withdrawSome(uint256 _amount) internal returns (uint256) {\n        uint256 _ddai = _amount.mul(1e18).div(dERC20(ddai).getExchangeRate());\n        uint256 _before = IERC20(ddai).balanceOf(address(this));\n        dRewards(pool).withdraw(_ddai);\n        uint256 _after = IERC20(ddai).balanceOf(address(this));\n        uint256 _withdrew = _after.sub(_before);\n        _before = IERC20(want).balanceOf(address(this));\n        dERC20(ddai).redeem(address(this), _withdrew);\n        _after = IERC20(want).balanceOf(address(this));\n        _withdrew = _after.sub(_before);\n        return _withdrew;\n    }\n\n    function balanceOfWant() public view returns (uint256) {\n        return IERC20(want).balanceOf(address(this));\n    }\n\n    function balanceOfPool() public view returns (uint256) {\n        return (dRewards(pool).balanceOf(address(this))).mul(dERC20(ddai).getExchangeRate()).div(1e18);\n    }\n\n    function getExchangeRate() public view returns (uint256) {\n        return dERC20(ddai).getExchangeRate();\n    }\n\n    function balanceOfDDai() public view returns (uint256) {\n        return dERC20(ddai).getTokenBalance(address(this));\n    }\n\n    function balanceOf() public view returns (uint256) {\n        return balanceOfWant().add(balanceOfDDai()).add(balanceOfPool());\n    }\n\n    function setGovernance(address _governance) external {\n        require(msg.sender == governance, \"!governance\");\n        governance = _governance;\n    }\n\n    function setController(address _controller) external {\n        require(msg.sender == governance, \"!governance\");\n        controller = _controller;\n    }\n}\n",
  "sourcePath": "/Users/bruce/work/defi-project/bulldaoV1/bulldao/contracts/strategies/StrategyDForceDAI.sol",
  "compiler": {
    "name": "solc",
    "version": "0.5.17+commit.d19bba13.Linux.g++"
  },
  "schemaVersion": "3.3.0",
  "updatedAt": "2020-11-17T04:24:08.892Z",
  "devdoc": {
    "methods": {}
  },
  "userdoc": {
    "methods": {}
  }
}